Component: ARM Compiler 5.06 update 6 (build 750) Tool: armlink [4d35ed]

==============================================================================

Section Cross References

    startup_stm32l475xx.o(RESET) refers to startup_stm32l475xx.o(STACK) for __initial_sp
    startup_stm32l475xx.o(RESET) refers to startup_stm32l475xx.o(.text) for Reset_Handler
    startup_stm32l475xx.o(RESET) refers to stm32l4xx_it.o(i.NMI_Handler) for NMI_Handler
    startup_stm32l475xx.o(RESET) refers to context_rvds.o(.text) for HardFault_Handler
    startup_stm32l475xx.o(RESET) refers to stm32l4xx_it.o(i.MemManage_Handler) for MemManage_Handler
    startup_stm32l475xx.o(RESET) refers to stm32l4xx_it.o(i.BusFault_Handler) for BusFault_Handler
    startup_stm32l475xx.o(RESET) refers to stm32l4xx_it.o(i.UsageFault_Handler) for UsageFault_Handler
    startup_stm32l475xx.o(RESET) refers to stm32l4xx_it.o(i.SVC_Handler) for SVC_Handler
    startup_stm32l475xx.o(RESET) refers to stm32l4xx_it.o(i.DebugMon_Handler) for DebugMon_Handler
    startup_stm32l475xx.o(RESET) refers to board.o(i.SysTick_Handler) for SysTick_Handler
    startup_stm32l475xx.o(.text) refers to system_stm32l4xx.o(i.SystemInit) for SystemInit
    startup_stm32l475xx.o(.text) refers to entry.o(.ARM.Collect$$$$00000000) for __main
    main.o(i.aht10_thread_entry) refers to drv_aht10.o(i.aht10_read_temperature) for aht10_read_temperature
    main.o(i.aht10_thread_entry) refers to drv_aht10.o(i.aht10_read_humidity) for aht10_read_humidity
    main.o(i.aht10_thread_entry) refers to ipc.o(i.rt_sem_release) for rt_sem_release
    main.o(i.aht10_thread_entry) refers to ipc.o(i.rt_event_send) for rt_event_send
    main.o(i.aht10_thread_entry) refers to thread.o(i.rt_thread_mdelay) for rt_thread_mdelay
    main.o(i.aht10_thread_entry) refers to main.o(.data) for .data
==============================================================================

Removing Unused input sections from the image.

    Removing startup_stm32l475xx.o(HEAP), (512 bytes).
    Removing main.o(.rev16_text), (4 bytes).
    Removing main.o(.revsh_text), (4 bytes).
    Removing main.o(.rrx_text), (6 bytes).
    Removing stm32l4xx_it.o(.rev16_text), (4 bytes).
    Removing stm32l4xx_it.o(.revsh_text), (4 bytes).
    Removing stm32l4xx_it.o(.rrx_text), (6 bytes).
    Removing stm32l4xx_hal_msp.o(.rev16_text), (4 bytes).
    Removing stm32l4xx_hal_msp.o(.revsh_text), (4 bytes).
    Removing stm32l4xx_hal_msp.o(.rrx_text), (6 bytes).
    Removing stm32l4xx_hal_msp.o(i.HAL_MspInit), (44 bytes).
    Removing stm32l4xx_hal_msp.o(i.HAL_UART_MspDeInit), (40 bytes).
    Removing drv_aht10.o(.rev16_text), (4 bytes).
    Removing drv_aht10.o(.revsh_text), (4 bytes).
    Removing drv_aht10.o(.rrx_text), (6 bytes).
    Removing drv_aht10.o(i.aht10_readonebyte), (42 bytes).
    Removing drv_beep.o(.rev16_text), (4 bytes).
    Removing drv_beep.o(.revsh_text), (4 bytes).
==============================================================================

Image Symbol Table

    Local Symbols

    Symbol Name                              Value     Ov Type        Size  Object(Section)

    ../Drivers/STM32L4xx_HAL_Driver/Src/stm32l4xx_hal.c 0x00000000   Number         0  stm32l4xx_hal.o ABSOLUTE
    ../Drivers/STM32L4xx_HAL_Driver/Src/stm32l4xx_hal_cortex.c 0x00000000   Number         0  stm32l4xx_hal_cortex.o ABSOLUTE
    ../Drivers/STM32L4xx_HAL_Driver/Src/stm32l4xx_hal_dma.c 0x00000000   Number         0  stm32l4xx_hal_dma.o ABSOLUTE
    ../Drivers/STM32L4xx_HAL_Driver/Src/stm32l4xx_hal_dma_ex.c 0x00000000   Number         0  stm32l4xx_hal_dma_ex.o ABSOLUTE
    ../Drivers/STM32L4xx_HAL_Driver/Src/stm32l4xx_hal_exti.c 0x00000000   Number         0  stm32l4xx_hal_exti.o ABSOLUTE
    ../Drivers/STM32L4xx_HAL_Driver/Src/stm32l4xx_hal_flash.c 0x00000000   Number         0  stm32l4xx_hal_flash.o ABSOLUTE
    ../Drivers/STM32L4xx_HAL_Driver/Src/stm32l4xx_hal_flash_ex.c 0x00000000   Number         0  stm32l4xx_hal_flash_ex.o ABSOLUTE
    ../Drivers/STM32L4xx_HAL_Driver/Src/stm32l4xx_hal_flash_ramfunc.c 0x00000000   Number         0  stm32l4xx_hal_flash_ramfunc.o ABSOLUTE
    ../Drivers/STM32L4xx_HAL_Driver/Src/stm32l4xx_hal_gpio.c 0x00000000   Number         0  stm32l4xx_hal_gpio.o ABSOLUTE
    ../Drivers/STM32L4xx_HAL_Driver/Src/stm32l4xx_hal_i2c.c 0x00000000   Number         0  stm32l4xx_hal_i2c.o ABSOLUTE
    ../Drivers/STM32L4xx_HAL_Driver/Src/stm32l4xx_hal_i2c_ex.c 0x00000000   Number         0  stm32l4xx_hal_i2c_ex.o ABSOLUTE
    ../Drivers/STM32L4xx_HAL_Driver/Src/stm32l4xx_hal_pwr.c 0x00000000   Number         0  stm32l4xx_hal_pwr.o ABSOLUTE
    ../Drivers/STM32L4xx_HAL_Driver/Src/stm32l4xx_hal_pwr_ex.c 0x00000000   Number         0  stm32l4xx_hal_pwr_ex.o ABSOLUTE
    ../Drivers/STM32L4xx_HAL_Driver/Src/stm32l4xx_hal_rcc.c 0x00000000   Number         0  stm32l4xx_hal_rcc.o ABSOLUTE
    ../Drivers/STM32L4xx_HAL_Driver/Src/stm32l4xx_hal_rcc_ex.c 0x00000000   Number         0  stm32l4xx_hal_rcc_ex.o ABSOLUTE
    ../Drivers/STM32L4xx_HAL_Driver/Src/stm32l4xx_hal_tim.c 0x00000000   Number         0  stm32l4xx_hal_tim.o ABSOLUTE
    ../Drivers/STM32L4xx_HAL_Driver/Src/stm32l4xx_hal_tim_ex.c 0x00000000   Number         0  stm32l4xx_hal_tim_ex.o ABSOLUTE
    ../Drivers/STM32L4xx_HAL_Driver/Src/stm32l4xx_hal_uart.c 0x00000000   Number         0  stm32l4xx_hal_uart.o ABSOLUTE
    ../Drivers/STM32L4xx_HAL_Driver/Src/stm32l4xx_hal_uart_ex.c 0x00000000   Number         0  stm32l4xx_hal_uart_ex.o ABSOLUTE
    ../Src/main.c                            0x00000000   Number         0  main.o ABSOLUTE
    ../Src/stm32l4xx_hal_msp.c               0x00000000   Number         0  stm32l4xx_hal_msp.o ABSOLUTE
    ../Src/stm32l4xx_it.c                    0x00000000   Number         0  stm32l4xx_it.o ABSOLUTE
    ../Src/system_stm32l4xx.c                0x00000000   Number         0  system_stm32l4xx.o ABSOLUTE
    ../clib/microlib/division.c              0x00000000   Number         0  uldiv.o ABSOLUTE
    ../clib/microlib/init/entry.s            0x00000000   Number         0  entry9b.o ABSOLUTE
    ../clib/microlib/init/entry.s            0x00000000   Number         0  entry10a.o ABSOLUTE
    ../clib/microlib/init/entry.s            0x00000000   Number         0  entry5.o ABSOLUTE
    ../clib/microlib/init/entry.s            0x00000000   Number         0  entry7a.o ABSOLUTE
    ../clib/microlib/init/entry.s            0x00000000   Number         0  entry7b.o ABSOLUTE
    ../clib/microlib/init/entry.s            0x00000000   Number         0  entry8a.o ABSOLUTE
    ../clib/microlib/init/entry.s            0x00000000   Number         0  entry8b.o ABSOLUTE
    ../clib/microlib/init/entry.s            0x00000000   Number         0  entry9a.o ABSOLUTE
    ../clib/microlib/init/entry.s            0x00000000   Number         0  entry10b.o ABSOLUTE
    ../clib/microlib/init/entry.s            0x00000000   Number         0  entry11a.o ABSOLUTE
    ../clib/microlib/init/entry.s            0x00000000   Number         0  entry.o ABSOLUTE
    ../clib/microlib/init/entry.s            0x00000000   Number         0  entry11b.o ABSOLUTE
    ../clib/microlib/init/entry.s            0x00000000   Number         0  entry2.o ABSOLUTE
    ../clib/microlib/longlong.c              0x00000000   Number         0  llsshr.o ABSOLUTE
    ../clib/microlib/longlong.c              0x00000000   Number         0  llshl.o ABSOLUTE
    ../clib/microlib/longlong.c              0x00000000   Number         0  llushr.o ABSOLUTE
    ../clib/microlib/string/memcpy.c         0x00000000   Number         0  memcpya.o ABSOLUTE
    ../clib/microlib/string/memcpy.c         0x00000000   Number         0  memcpyb.o ABSOLUTE
    ../clib/microlib/string/memset.c         0x00000000   Number         0  memseta.o ABSOLUTE
    ../clib/microlib/string/strcat.c         0x00000000   Number         0  strcat.o ABSOLUTE
    ../clib/microlib/string/strcpy.c         0x00000000   Number         0  strcpy.o ABSOLUTE
    ../clib/microlib/string/strlen.c         0x00000000   Number         0  strlen.o ABSOLUTE
    ../clib/microlib/string/strncmp.c        0x00000000   Number         0  strncmp.o ABSOLUTE
    ../clib/microlib/string/strncpy.c        0x00000000   Number         0  strncpy.o ABSOLUTE
    ../clib/microlib/stubs.s                 0x00000000   Number         0  iusefp.o ABSOLUTE
    ../fplib/microlib/d2f.c                  0x00000000   Number         0  d2f.o ABSOLUTE
    ../fplib/microlib/fpadd.c                0x00000000   Number         0  dadd.o ABSOLUTE
    ../fplib/microlib/fpepilogue.c           0x00000000   Number         0  fepilogue.o ABSOLUTE
    ../fplib/microlib/fpepilogue.c           0x00000000   Number         0  depilogue.o ABSOLUTE
    ../fplib/microlib/fpflt.c                0x00000000   Number         0  dfltui.o ABSOLUTE
    ../fplib/microlib/fpmul.c                0x00000000   Number         0  dmul.o ABSOLUTE
    ..\Drivers\STM32L4xx_HAL_Driver\Src\stm32l4xx_hal.c 0x00000000   Number         0  stm32l4xx_hal.o ABSOLUTE
    ..\Drivers\STM32L4xx_HAL_Driver\Src\stm32l4xx_hal_cortex.c 0x00000000   Number         0  stm32l4xx_hal_cortex.o ABSOLUTE
    ..\Drivers\STM32L4xx_HAL_Driver\Src\stm32l4xx_hal_dma.c 0x00000000   Number         0  stm32l4xx_hal_dma.o ABSOLUTE
    ..\Drivers\STM32L4xx_HAL_Driver\Src\stm32l4xx_hal_dma_ex.c 0x00000000   Number         0  stm32l4xx_hal_dma_ex.o ABSOLUTE
    ..\Drivers\STM32L4xx_HAL_Driver\Src\stm32l4xx_hal_exti.c 0x00000000   Number         0  stm32l4xx_hal_exti.o ABSOLUTE
    ..\Drivers\STM32L4xx_HAL_Driver\Src\stm32l4xx_hal_flash.c 0x00000000   Number         0  stm32l4xx_hal_flash.o ABSOLUTE
    ..\Drivers\STM32L4xx_HAL_Driver\Src\stm32l4xx_hal_flash_ex.c 0x00000000   Number         0  stm32l4xx_hal_flash_ex.o ABSOLUTE
    ..\Drivers\STM32L4xx_HAL_Driver\Src\stm32l4xx_hal_flash_ramfunc.c 0x00000000   Number         0  stm32l4xx_hal_flash_ramfunc.o ABSOLUTE
    ..\Drivers\STM32L4xx_HAL_Driver\Src\stm32l4xx_hal_gpio.c 0x00000000   Number         0  stm32l4xx_hal_gpio.o ABSOLUTE
    ..\Drivers\STM32L4xx_HAL_Driver\Src\stm32l4xx_hal_i2c.c 0x00000000   Number         0  stm32l4xx_hal_i2c.o ABSOLUTE
    ..\Drivers\STM32L4xx_HAL_Driver\Src\stm32l4xx_hal_i2c_ex.c 0x00000000   Number         0  stm32l4xx_hal_i2c_ex.o ABSOLUTE
    ..\Drivers\STM32L4xx_HAL_Driver\Src\stm32l4xx_hal_pwr.c 0x00000000   Number         0  stm32l4xx_hal_pwr.o ABSOLUTE
    ..\Drivers\STM32L4xx_HAL_Driver\Src\stm32l4xx_hal_pwr_ex.c 0x00000000   Number         0  stm32l4xx_hal_pwr_ex.o ABSOLUTE
    ..\Drivers\STM32L4xx_HAL_Driver\Src\stm32l4xx_hal_rcc.c 0x00000000   Number         0  stm32l4xx_hal_rcc.o ABSOLUTE
    ..\Drivers\STM32L4xx_HAL_Driver\Src\stm32l4xx_hal_rcc_ex.c 0x00000000   Number         0  stm32l4xx_hal_rcc_ex.o ABSOLUTE
    ..\Drivers\STM32L4xx_HAL_Driver\Src\stm32l4xx_hal_tim.c 0x00000000   Number         0  stm32l4xx_hal_tim.o ABSOLUTE
    ..\Drivers\STM32L4xx_HAL_Driver\Src\stm32l4xx_hal_tim_ex.c 0x00000000   Number         0  stm32l4xx_hal_tim_ex.o ABSOLUTE
    ..\Drivers\STM32L4xx_HAL_Driver\Src\stm32l4xx_hal_uart.c 0x00000000   Number         0  stm32l4xx_hal_uart.o ABSOLUTE
    ..\Drivers\STM32L4xx_HAL_Driver\Src\stm32l4xx_hal_uart_ex.c 0x00000000   Number         0  stm32l4xx_hal_uart_ex.o ABSOLUTE
    ..\Src\drv_aht10.c                       0x00000000   Number         0  drv_aht10.o ABSOLUTE
    ..\Src\drv_beep.c                        0x00000000   Number         0  drv_beep.o ABSOLUTE
    ..\Src\drv_iic.c                         0x00000000   Number         0  drv_iic.o ABSOLUTE
    ..\Src\drv_key.c                         0x00000000   Number         0  drv_key.o ABSOLUTE
    ..\Src\drv_led.c                         0x00000000   Number         0  drv_led.o ABSOLUTE
    ..\Src\drv_motor.c                       0x00000000   Number         0  drv_motor.o ABSOLUTE
    ..\Src\drv_uart.c                        0x00000000   Number         0  drv_uart.o ABSOLUTE
    ..\Src\main.c                            0x00000000   Number         0  main.o ABSOLUTE
    ..\Src\stm32l4xx_hal_msp.c               0x00000000   Number         0  stm32l4xx_hal_msp.o ABSOLUTE
    ..\Src\stm32l4xx_it.c                    0x00000000   Number         0  stm32l4xx_it.o ABSOLUTE
    ..\Src\system_stm32l4xx.c                0x00000000   Number         0  system_stm32l4xx.o ABSOLUTE
    ..\\Src\\drv_aht10.c                     0x00000000   Number         0  drv_aht10.o ABSOLUTE
    ..\\Src\\drv_beep.c                      0x00000000   Number         0  drv_beep.o ABSOLUTE
    ..\\Src\\drv_iic.c                       0x00000000   Number         0  drv_iic.o ABSOLUTE
    ..\\Src\\drv_key.c                       0x00000000   Number         0  drv_key.o ABSOLUTE
    ..\\Src\\drv_led.c                       0x00000000   Number         0  drv_led.o ABSOLUTE
    ..\\Src\\drv_motor.c                     0x00000000   Number         0  drv_motor.o ABSOLUTE
    ..\\Src\\drv_uart.c                      0x00000000   Number         0  drv_uart.o ABSOLUTE
    C:\Keil_v5\Arm\Packs\RealThread\RT-Thread\3.1.3\components\finsh\cmd.c 0x00000000   Number         0  cmd.o ABSOLUTE
    C:\Keil_v5\Arm\Packs\RealThread\RT-Thread\3.1.3\components\finsh\msh.c 0x00000000   Number         0  msh.o ABSOLUTE
    C:\Keil_v5\Arm\Packs\RealThread\RT-Thread\3.1.3\components\finsh\shell.c 0x00000000   Number         0  shell.o ABSOLUTE
    C:\Keil_v5\Arm\Packs\RealThread\RT-Thread\3.1.3\libcpu\arm\cortex-m4\context_rvds.S 0x00000000   Number         0  context_rvds.o ABSOLUTE
    C:\Keil_v5\Arm\Packs\RealThread\RT-Thread\3.1.3\libcpu\arm\cortex-m4\cpuport.c 0x00000000   Number         0  cpuport.o ABSOLUTE
    C:\Keil_v5\Arm\Packs\RealThread\RT-Thread\3.1.3\src\clock.c 0x00000000   Number         0  clock.o ABSOLUTE
    C:\Keil_v5\Arm\Packs\RealThread\RT-Thread\3.1.3\src\components.c 0x00000000   Number         0  components.o ABSOLUTE
    C:\Keil_v5\Arm\Packs\RealThread\RT-Thread\3.1.3\src\idle.c 0x00000000   Number         0  idle.o ABSOLUTE
    C:\Keil_v5\Arm\Packs\RealThread\RT-Thread\3.1.3\src\ipc.c 0x00000000   Number         0  ipc.o ABSOLUTE
    C:\Keil_v5\Arm\Packs\RealThread\RT-Thread\3.1.3\src\irq.c 0x00000000   Number         0  irq.o ABSOLUTE
    C:\Keil_v5\Arm\Packs\RealThread\RT-Thread\3.1.3\src\kservice.c 0x00000000   Number         0  kservice.o ABSOLUTE
    C:\Keil_v5\Arm\Packs\RealThread\RT-Thread\3.1.3\src\mem.c 0x00000000   Number         0  mem.o ABSOLUTE
    C:\Keil_v5\Arm\Packs\RealThread\RT-Thread\3.1.3\src\object.c 0x00000000   Number         0  object.o ABSOLUTE
    C:\Keil_v5\Arm\Packs\RealThread\RT-Thread\3.1.3\src\scheduler.c 0x00000000   Number         0  scheduler.o ABSOLUTE
    C:\Keil_v5\Arm\Packs\RealThread\RT-Thread\3.1.3\src\thread.c 0x00000000   Number         0  thread.o ABSOLUTE
    C:\Keil_v5\Arm\Packs\RealThread\RT-Thread\3.1.3\src\timer.c 0x00000000   Number         0  timer.o ABSOLUTE
    RTE\RTOS\board.c                         0x00000000   Number         0  board.o ABSOLUTE
    dc.s                                     0x00000000   Number         0  dc.o ABSOLUTE
    handlers.s                               0x00000000   Number         0  handlers.o ABSOLUTE
    init.s                                   0x00000000   Number         0  init.o ABSOLUTE
    startup_stm32l475xx.s                    0x00000000   Number         0  startup_stm32l475xx.o ABSOLUTE
    RESET                                    0x08000000   Section      392  startup_stm32l475xx.o(RESET)
    .ARM.Collect$$$$00000000                 0x08000188   Section        0  entry.o(.ARM.Collect$$$$00000000)
    .ARM.Collect$$$$00000001                 0x08000188   Section        4  entry2.o(.ARM.Collect$$$$00000001)
    .ARM.Collect$$$$00000004                 0x0800018c   Section        4  entry5.o(.ARM.Collect$$$$00000004)
    .ARM.Collect$$$$00000008                 0x08000190   Section        0  entry7b.o(.ARM.Collect$$$$00000008)
    .ARM.Collect$$$$0000000A                 0x08000190   Section        0  entry8b.o(.ARM.Collect$$$$0000000A)
    .ARM.Collect$$$$0000000B                 0x08000190   Section        8  entry9a.o(.ARM.Collect$$$$0000000B)
    .ARM.Collect$$$$0000000D                 0x08000198   Section        0  entry10a.o(.ARM.Collect$$$$0000000D)
    .ARM.Collect$$$$0000000F                 0x08000198   Section        0  entry11a.o(.ARM.Collect$$$$0000000F)
    .ARM.Collect$$$$00002712                 0x08000198   Section        4  entry2.o(.ARM.Collect$$$$00002712)
    __lit__00000000                          0x08000198   Data           4  entry2.o(.ARM.Collect$$$$00002712)
    .text                                    0x0800019c   Section       36  startup_stm32l475xx.o(.text)
    $v0                                      0x0800019c   Number         0  startup_stm32l475xx.o(.text)
    .text                                    0x080001c0   Section      308  context_rvds.o(.text)
    $v0                                      0x080001c0   Number         0  context_rvds.o(.text)
    .text                                    0x08000300   Section        0  uldiv.o(.text)
    .text                                    0x08000368   Section        0  memcpya.o(.text)
    .text                                    0x0800038c   Section        0  memseta.o(.text)
    .text                                    0x080003b0   Section        0  strcat.o(.text)
    .text                                    0x080003c8   Section        0  strncpy.o(.text)
    .text                                    0x080003e0   Section        0  strlen.o(.text)
    .text                                    0x080003ee   Section        0  strcpy.o(.text)
    .text                                    0x08000400   Section        0  strncmp.o(.text)
    .text                                    0x0800041e   Section        0  dadd.o(.text)
    .text                                    0x0800057c   Section        0  dmul.o(.text)
    .text                                    0x08000666   Section        0  dfltui.o(.text)
    .text                                    0x08000680   Section        0  d2f.o(.text)
    .text                                    0x080006b8   Section        0  llshl.o(.text)
    .text                                    0x080006d6   Section        0  llushr.o(.text)
    .text                                    0x080006f6   Section        0  llsshr.o(.text)
    .text                                    0x0800071a   Section        0  iusefp.o(.text)
    .text                                    0x0800071a   Section        0  fepilogue.o(.text)
    .text                                    0x08000788   Section        0  depilogue.o(.text)
    .text                                    0x08000844   Section       36  init.o(.text)
    i.$Sub$$main                             0x08000868   Section        0  components.o(i.$Sub$$main)
    i.BusFault_Handler                       0x08000872   Section        0  stm32l4xx_it.o(i.BusFault_Handler)
    i.DebugMon_Handler                       0x08000874   Section        0  stm32l4xx_it.o(i.DebugMon_Handler)
    i.HAL_GPIO_Init                          0x08000878   Section        0  stm32l4xx_hal_gpio.o(i.HAL_GPIO_Init)
    i.HAL_GPIO_ReadPin                       0x08000ade   Section        0  stm32l4xx_hal_gpio.o(i.HAL_GPIO_ReadPin)
    i.HAL_GPIO_WritePin                      0x08000ae8   Section        0  stm32l4xx_hal_gpio.o(i.HAL_GPIO_WritePin)
    i.HAL_GetTick                            0x08000af4   Section        0  stm32l4xx_hal.o(i.HAL_GetTick)
    i.HAL_RCC_GetPCLK1Freq                   0x08000b00   Section        0  stm32l4xx_hal_rcc.o(i.HAL_RCC_GetPCLK1Freq)
    i.HAL_RCC_GetPCLK2Freq                   0x08000b24   Section        0  stm32l4xx_hal_rcc.o(i.HAL_RCC_GetPCLK2Freq)
    i.HAL_RCC_GetSysClockFreq                0x08000b48   Section        0  stm32l4xx_hal_rcc.o(i.HAL_RCC_GetSysClockFreq)
    i.HAL_UART_Init                          0x08000bec   Section        0  stm32l4xx_hal_uart.o(i.HAL_UART_Init)
    i.HAL_UART_MspInit                       0x08000c54   Section        0  stm32l4xx_hal_msp.o(i.HAL_UART_MspInit)
    i.HAL_UART_Transmit                      0x08000cb8   Section        0  stm32l4xx_hal_uart.o(i.HAL_UART_Transmit)
    i.MemManage_Handler                      0x08000d6e   Section        0  stm32l4xx_it.o(i.MemManage_Handler)
    i.NMI_Handler                            0x08000d70   Section        0  stm32l4xx_it.o(i.NMI_Handler)
    i.SVC_Handler                            0x08000d72   Section        0  stm32l4xx_it.o(i.SVC_Handler)
    i.SysTick_Handler                        0x08000d74   Section        0  board.o(i.SysTick_Handler)
    i.SystemCoreClockUpdate                  0x08000d88   Section        0  system_stm32l4xx.o(i.SystemCoreClockUpdate)
    i.SystemInit                             0x08000e30   Section        0  system_stm32l4xx.o(i.SystemInit)
    i.UART_AdvFeatureConfig                  0x08000e74   Section        0  stm32l4xx_hal_uart.o(i.UART_AdvFeatureConfig)
    i.UART_CheckIdleState                    0x08000f3c   Section        0  stm32l4xx_hal_uart.o(i.UART_CheckIdleState)
    i.UART_SetConfig                         0x08000f94   Section        0  stm32l4xx_hal_uart.o(i.UART_SetConfig)
    i.UART_WaitOnFlagUntilTimeout            0x08001228   Section        0  stm32l4xx_hal_uart.o(i.UART_WaitOnFlagUntilTimeout)
    i.UsageFault_Handler                     0x080012cc   Section        0  stm32l4xx_it.o(i.UsageFault_Handler)
    i.__rt_ffs                               0x080012d0   Section        0  kservice.o(i.__rt_ffs)
    i.__scatterload_copy                     0x08001314   Section       14  handlers.o(i.__scatterload_copy)
    i.__scatterload_null                     0x08001322   Section        2  handlers.o(i.__scatterload_null)
    i.__scatterload_zeroinit                 0x08001324   Section       14  handlers.o(i.__scatterload_zeroinit)
    i._has_defunct_thread                    0x08001334   Section        0  idle.o(i._has_defunct_thread)
    _has_defunct_thread                      0x08001335   Thumb Code    16  idle.o(i._has_defunct_thread)
    i._msh_exec_cmd                          0x08001348   Section        0  msh.o(i._msh_exec_cmd)
    _msh_exec_cmd                            0x08001349   Thumb Code   140  msh.o(i._msh_exec_cmd)
    i._rt_thread_init                        0x080013ec   Section        0  thread.o(i._rt_thread_init)
    _rt_thread_init                          0x080013ed   Thumb Code   108  thread.o(i._rt_thread_init)
    i._rt_timer_init                         0x08001460   Section        0  timer.o(i._rt_timer_init)
    _rt_timer_init                           0x08001461   Thumb Code    28  timer.o(i._rt_timer_init)
    i._rt_timer_remove                       0x0800147c   Section        0  timer.o(i._rt_timer_remove)
    _rt_timer_remove                         0x0800147d   Thumb Code    18  timer.o(i._rt_timer_remove)
    i.aht10_init                             0x0800148e   Section        0  drv_aht10.o(i.aht10_init)
    i.aht10_read_data                        0x080014d2   Section        0  drv_aht10.o(i.aht10_read_data)
    i.aht10_read_humidity                    0x0800151c   Section        0  drv_aht10.o(i.aht10_read_humidity)
    i.aht10_read_temperature                 0x0800158c   Section        0  drv_aht10.o(i.aht10_read_temperature)
    i.aht10_thread_entry                     0x08001610   Section        0  main.o(i.aht10_thread_entry)
    aht10_thread_entry                       0x08001611   Thumb Code    64  main.o(i.aht10_thread_entry)
    i.aht10_timeout_entry                    0x08001658   Section        0  main.o(i.aht10_timeout_entry)
    aht10_timeout_entry                      0x08001659   Thumb Code   122  main.o(i.aht10_timeout_entry)
    i.aht10_write_data                       0x08001750   Section        0  drv_aht10.o(i.aht10_write_data)
    i.alarm_thread_entry                     0x08001798   Section        0  main.o(i.alarm_thread_entry)
    alarm_thread_entry                       0x08001799   Thumb Code    70  main.o(i.alarm_thread_entry)
    i.beep_init                              0x080017e4   Section        0  drv_beep.o(i.beep_init)
    i.bus_fault_track                        0x0800182c   Section        0  cpuport.o(i.bus_fault_track)
    bus_fault_track                          0x0800182d   Thumb Code   110  cpuport.o(i.bus_fault_track)
    i.cmd_free                               0x08001914   Section        0  msh.o(i.cmd_free)
    i.cmd_ps                                 0x0800191e   Section        0  msh.o(i.cmd_ps)
    i.finsh_get_prompt                       0x08001928   Section        0  shell.o(i.finsh_get_prompt)
    i.finsh_set_prompt_mode                  0x08001988   Section        0  shell.o(i.finsh_set_prompt_mode)
    i.finsh_system_function_init             0x0800199c   Section        0  shell.o(i.finsh_system_function_init)
    i.finsh_system_init                      0x080019a8   Section        0  shell.o(i.finsh_system_init)
    i.finsh_thread_entry                     0x08001a3c   Section        0  shell.o(i.finsh_thread_entry)
    i.hard_fault_track                       0x08001cc8   Section        0  cpuport.o(i.hard_fault_track)
    hard_fault_track                         0x08001cc9   Thumb Code    76  cpuport.o(i.hard_fault_track)
    i.hello                                  0x08001d40   Section        0  cmd.o(i.hello)
    i.iic_ack                                0x08001d60   Section        0  drv_iic.o(i.iic_ack)
    i.iic_init                               0x08001db4   Section        0  drv_iic.o(i.iic_init)
    i.iic_nack                               0x08001e2c   Section        0  drv_iic.o(i.iic_nack)
    i.iic_read_byte                          0x08001e80   Section        0  drv_iic.o(i.iic_read_byte)
    i.iic_send_byte                          0x08001ef0   Section        0  drv_iic.o(i.iic_send_byte)
    i.iic_start                              0x08001f60   Section        0  drv_iic.o(i.iic_start)
    i.iic_stop                               0x08001fb8   Section        0  drv_iic.o(i.iic_stop)
    i.iic_wait_ack                           0x08002010   Section        0  drv_iic.o(i.iic_wait_ack)
    i.key_init                               0x08002078   Section        0  drv_key.o(i.key_init)
    i.key_scan                               0x080020e0   Section        0  drv_key.o(i.key_scan)
    i.key_thread_entry                       0x080021c4   Section        0  main.o(i.key_thread_entry)
    key_thread_entry                         0x080021c5   Thumb Code    84  main.o(i.key_thread_entry)
    i.led_init                               0x08002254   Section        0  drv_led.o(i.led_init)
    i.list                                   0x080022b0   Section        0  cmd.o(i.list)
    i.list_event                             0x08002304   Section        0  cmd.o(i.list_event)
    i.list_find_init                         0x08002434   Section        0  cmd.o(i.list_find_init)
    list_find_init                           0x08002435   Thumb Code    36  cmd.o(i.list_find_init)
    i.list_get_next                          0x08002458   Section        0  cmd.o(i.list_get_next)
    list_get_next                            0x08002459   Thumb Code   102  cmd.o(i.list_get_next)
    i.list_mailbox                           0x080024c0   Section        0  cmd.o(i.list_mailbox)
    i.list_mem                               0x08002604   Section        0  mem.o(i.list_mem)
    i.list_sem                               0x08002670   Section        0  cmd.o(i.list_sem)
    i.list_thread                            0x0800278c   Section        0  cmd.o(i.list_thread)
    i.list_timer                             0x08002944   Section        0  cmd.o(i.list_timer)
    i.main                                   0x08002a84   Section        0  main.o(i.main)
    i.main_thread_entry                      0x08002c90   Section        0  components.o(i.main_thread_entry)
    i.mem_manage_fault_track                 0x08002ca0   Section        0  cpuport.o(i.mem_manage_fault_track)
    mem_manage_fault_track                   0x08002ca1   Thumb Code    98  cpuport.o(i.mem_manage_fault_track)
    i.motor_forward                          0x08002d78   Section        0  drv_motor.o(i.motor_forward)
    i.motor_init                             0x08002d98   Section        0  drv_motor.o(i.motor_init)
    i.motor_stop                             0x08002dd0   Section        0  drv_motor.o(i.motor_stop)
    i.msh_auto_complete                      0x08002df0   Section        0  msh.o(i.msh_auto_complete)
    i.msh_exec                               0x08002e9c   Section        0  msh.o(i.msh_exec)
    i.msh_help                               0x08002f00   Section        0  msh.o(i.msh_help)
    i.msh_is_used                            0x08002f6c   Section        0  msh.o(i.msh_is_used)
    i.msh_split                              0x08002f70   Section        0  msh.o(i.msh_split)
    msh_split                                0x08002f71   Thumb Code   172  msh.o(i.msh_split)
    i.object_split                           0x08003040   Section        0  cmd.o(i.object_split)
    object_split                             0x08003041   Thumb Code    18  cmd.o(i.object_split)
    i.plug_holes                             0x08003058   Section        0  mem.o(i.plug_holes)
    plug_holes                               0x08003059   Thumb Code    80  mem.o(i.plug_holes)
    i.print_number                           0x080030ac   Section        0  kservice.o(i.print_number)
    print_number                             0x080030ad   Thumb Code   300  kservice.o(i.print_number)
    i.rt_application_init                    0x080031e4   Section        0  components.o(i.rt_application_init)
    i.rt_calloc                              0x08003210   Section        0  mem.o(i.rt_calloc)
    i.rt_components_board_init               0x0800322c   Section        0  components.o(i.rt_components_board_init)
    i.rt_components_init                     0x08003248   Section        0  components.o(i.rt_components_init)
    i.rt_enter_critical                      0x08003264   Section        0  scheduler.o(i.rt_enter_critical)
    i.rt_event_create                        0x08003280   Section        0  ipc.o(i.rt_event_create)
    i.rt_event_recv                          0x080032a0   Section        0  ipc.o(i.rt_event_recv)
    i.rt_event_send                          0x0800335e   Section        0  ipc.o(i.rt_event_send)
    i.rt_exit_critical                       0x080033e4   Section        0  scheduler.o(i.rt_exit_critical)
    i.rt_free                                0x0800341c   Section        0  mem.o(i.rt_free)
    i.rt_hw_board_init                       0x080034e0   Section        0  board.o(i.rt_hw_board_init)
    i.rt_hw_console_getchar                  0x08003530   Section        0  drv_uart.o(i.rt_hw_console_getchar)
    i.rt_hw_console_output                   0x08003564   Section        0  drv_uart.o(i.rt_hw_console_output)
    i.rt_hw_hard_fault_exception             0x080035ac   Section        0  cpuport.o(i.rt_hw_hard_fault_exception)
    i.rt_hw_stack_init                       0x080037c4   Section        0  cpuport.o(i.rt_hw_stack_init)
    i.rt_hw_us_delay                         0x08003800   Section        0  drv_iic.o(i.rt_hw_us_delay)
    i.rt_interrupt_enter                     0x08003834   Section        0  irq.o(i.rt_interrupt_enter)
    i.rt_interrupt_leave                     0x08003850   Section        0  irq.o(i.rt_interrupt_leave)
    i.rt_ipc_list_suspend                    0x0800386c   Section        0  ipc.o(i.rt_ipc_list_suspend)
    rt_ipc_list_suspend                      0x0800386d   Thumb Code    82  ipc.o(i.rt_ipc_list_suspend)
    i.rt_kprintf                             0x080038c0   Section        0  kservice.o(i.rt_kprintf)
    i.rt_list_insert_after                   0x080038e0   Section        0  object.o(i.rt_list_insert_after)
    rt_list_insert_after                     0x080038e1   Thumb Code    14  object.o(i.rt_list_insert_after)
    i.rt_list_insert_after                   0x080038ee   Section        0  thread.o(i.rt_list_insert_after)
    rt_list_insert_after                     0x080038ef   Thumb Code    14  thread.o(i.rt_list_insert_after)
    i.rt_list_insert_after                   0x080038fc   Section        0  timer.o(i.rt_list_insert_after)
    rt_list_insert_after                     0x080038fd   Thumb Code    14  timer.o(i.rt_list_insert_after)
    i.rt_list_insert_before                  0x0800390a   Section        0  ipc.o(i.rt_list_insert_before)
    rt_list_insert_before                    0x0800390b   Thumb Code    14  ipc.o(i.rt_list_insert_before)
    i.rt_list_len                            0x08003918   Section        0  cmd.o(i.rt_list_len)
    rt_list_len                              0x08003919   Thumb Code    18  cmd.o(i.rt_list_len)
    i.rt_list_remove                         0x0800392a   Section        0  object.o(i.rt_list_remove)
    rt_list_remove                           0x0800392b   Thumb Code    18  object.o(i.rt_list_remove)
    i.rt_list_remove                         0x0800393c   Section        0  thread.o(i.rt_list_remove)
    rt_list_remove                           0x0800393d   Thumb Code    18  thread.o(i.rt_list_remove)
    i.rt_malloc                              0x08003950   Section        0  mem.o(i.rt_malloc)
    i.rt_memmove                             0x08003a40   Section        0  kservice.o(i.rt_memmove)
    i.rt_memset                              0x08003a74   Section        0  kservice.o(i.rt_memset)
    i.rt_object_allocate                     0x08003aba   Section        0  object.o(i.rt_object_allocate)
    i.rt_object_delete                       0x08003b0a   Section        0  object.o(i.rt_object_delete)
    i.rt_object_detach                       0x08003b30   Section        0  object.o(i.rt_object_detach)
    i.rt_object_get_information              0x08003b50   Section        0  object.o(i.rt_object_get_information)
    i.rt_object_init                         0x08003b74   Section        0  object.o(i.rt_object_init)
    i.rt_object_is_systemobject              0x08003bc4   Section        0  object.o(i.rt_object_is_systemobject)
    i.rt_schedule                            0x08003bd4   Section        0  scheduler.o(i.rt_schedule)
    i.rt_schedule_insert_thread              0x08003c2c   Section        0  scheduler.o(i.rt_schedule_insert_thread)
    i.rt_schedule_remove_thread              0x08003c7c   Section        0  scheduler.o(i.rt_schedule_remove_thread)
    i.rt_sem_create                          0x08003cc4   Section        0  ipc.o(i.rt_sem_create)
    i.rt_sem_init                            0x08003ce4   Section        0  ipc.o(i.rt_sem_init)
    i.rt_sem_release                         0x08003d08   Section        0  ipc.o(i.rt_sem_release)
    i.rt_sem_take                            0x08003d3e   Section        0  ipc.o(i.rt_sem_take)
    i.rt_show_version                        0x08003dac   Section        0  kservice.o(i.rt_show_version)
    i.rt_strlen                              0x08003e5c   Section        0  kservice.o(i.rt_strlen)
    i.rt_strncpy                             0x08003e6c   Section        0  kservice.o(i.rt_strncpy)
    i.rt_system_heap_init                    0x08003e94   Section        0  mem.o(i.rt_system_heap_init)
    i.rt_system_scheduler_init               0x08003f40   Section        0  scheduler.o(i.rt_system_scheduler_init)
    i.rt_system_scheduler_start              0x08003f74   Section        0  scheduler.o(i.rt_system_scheduler_start)
    i.rt_system_timer_init                   0x08003f9c   Section        0  timer.o(i.rt_system_timer_init)
    i.rt_system_timer_thread_init            0x08003fa8   Section        0  timer.o(i.rt_system_timer_thread_init)
    i.rt_thread_create                       0x08003faa   Section        0  thread.o(i.rt_thread_create)
    i.rt_thread_exit                         0x08003ff4   Section        0  thread.o(i.rt_thread_exit)
    i.rt_thread_idle_entry                   0x0800404c   Section        0  idle.o(i.rt_thread_idle_entry)
    rt_thread_idle_entry                     0x0800404d   Thumb Code     6  idle.o(i.rt_thread_idle_entry)
    i.rt_thread_idle_excute                  0x08004054   Section        0  idle.o(i.rt_thread_idle_excute)
    i.rt_thread_idle_init                    0x080040cc   Section        0  idle.o(i.rt_thread_idle_init)
    i.rt_thread_init                         0x08004104   Section        0  thread.o(i.rt_thread_init)
    i.rt_thread_mdelay                       0x0800413a   Section        0  thread.o(i.rt_thread_mdelay)
    i.rt_thread_resume                       0x08004148   Section        0  thread.o(i.rt_thread_resume)
    i.rt_thread_self                         0x08004184   Section        0  thread.o(i.rt_thread_self)
    i.rt_thread_sleep                        0x08004190   Section        0  thread.o(i.rt_thread_sleep)
    i.rt_thread_startup                      0x080041d0   Section        0  thread.o(i.rt_thread_startup)
    i.rt_thread_suspend                      0x080041fc   Section        0  thread.o(i.rt_thread_suspend)
    i.rt_thread_timeout                      0x0800423e   Section        0  thread.o(i.rt_thread_timeout)
    i.rt_thread_yield                        0x08004260   Section        0  thread.o(i.rt_thread_yield)
    i.rt_tick_from_millisecond               0x080042c0   Section        0  clock.o(i.rt_tick_from_millisecond)
    i.rt_tick_get                            0x080042f4   Section        0  clock.o(i.rt_tick_get)
    i.rt_tick_increase                       0x08004300   Section        0  clock.o(i.rt_tick_increase)
    i.rt_timer_check                         0x0800432c   Section        0  timer.o(i.rt_timer_check)
    i.rt_timer_control                       0x08004394   Section        0  timer.o(i.rt_timer_control)
    i.rt_timer_create                        0x080043c4   Section        0  timer.o(i.rt_timer_create)
    i.rt_timer_detach                        0x080043f2   Section        0  timer.o(i.rt_timer_detach)
    i.rt_timer_init                          0x08004412   Section        0  timer.o(i.rt_timer_init)
    i.rt_timer_start                         0x0800443c   Section        0  timer.o(i.rt_timer_start)
    i.rt_timer_stop                          0x080044c8   Section        0  timer.o(i.rt_timer_stop)
    i.rt_vsnprintf                           0x080044f8   Section        0  kservice.o(i.rt_vsnprintf)
    i.rti_board_end                          0x0800477a   Section        0  components.o(i.rti_board_end)
    rti_board_end                            0x0800477b   Thumb Code     4  components.o(i.rti_board_end)
    i.rti_board_start                        0x0800477e   Section        0  components.o(i.rti_board_start)
    rti_board_start                          0x0800477f   Thumb Code     4  components.o(i.rti_board_start)
    i.rti_end                                0x08004782   Section        0  components.o(i.rti_end)
    rti_end                                  0x08004783   Thumb Code     4  components.o(i.rti_end)
    i.rti_start                              0x08004786   Section        0  components.o(i.rti_start)
    rti_start                                0x08004787   Thumb Code     4  components.o(i.rti_start)
    i.rtthread_startup                       0x0800478a   Section        0  components.o(i.rtthread_startup)
    i.show_wait_queue                        0x080047b4   Section        0  cmd.o(i.show_wait_queue)
    show_wait_queue                          0x080047b5   Thumb Code    38  cmd.o(i.show_wait_queue)
    i.skip_atoi                              0x080047e4   Section        0  kservice.o(i.skip_atoi)
    skip_atoi                                0x080047e5   Thumb Code    40  kservice.o(i.skip_atoi)
    i.stop_alarm_thread_entry                0x0800480c   Section        0  main.o(i.stop_alarm_thread_entry)
    stop_alarm_thread_entry                  0x0800480d   Thumb Code    52  main.o(i.stop_alarm_thread_entry)
    i.turn_off_led_g                         0x08004844   Section        0  drv_led.o(i.turn_off_led_g)
    i.turn_off_led_r                         0x08004854   Section        0  drv_led.o(i.turn_off_led_r)
    i.turn_on_led_g                          0x08004864   Section        0  drv_led.o(i.turn_on_led_g)
    i.turn_on_led_r                          0x08004874   Section        0  drv_led.o(i.turn_on_led_r)
    i.uart_init                              0x08004884   Section        0  drv_uart.o(i.uart_init)
    i.usage_fault_track                      0x080048d4   Section        0  cpuport.o(i.usage_fault_track)
    usage_fault_track                        0x080048d5   Thumb Code   100  cpuport.o(i.usage_fault_track)
    i.version                                0x080049a4   Section        0  cmd.o(i.version)
    .constdata                               0x080049b0   Section       64  system_stm32l4xx.o(.constdata)
    .constdata                               0x080049f0   Section        8  system_stm32l4xx.o(.constdata)
    .constdata                               0x080049f8   Section        6  cmd.o(.constdata)
    .constdata                               0x080049fe   Section        8  cmd.o(.constdata)
    .constdata                               0x08004a06   Section       14  cmd.o(.constdata)
    .constdata                               0x08004a14   Section       12  cmd.o(.constdata)
    .constdata                               0x08004a20   Section       18  cmd.o(.constdata)
    .constdata                               0x08004a32   Section        9  cmd.o(.constdata)
    .constdata                               0x08004a3b   Section       15  cmd.o(.constdata)
    .constdata                               0x08004a4a   Section       11  cmd.o(.constdata)
    .constdata                               0x08004a55   Section       17  cmd.o(.constdata)
    .constdata                               0x08004a66   Section       13  cmd.o(.constdata)
    .constdata                               0x08004a73   Section       19  cmd.o(.constdata)
    .constdata                               0x08004a86   Section       11  cmd.o(.constdata)
    .constdata                               0x08004a91   Section       17  cmd.o(.constdata)
    .constdata                               0x08004aa2   Section        5  cmd.o(.constdata)
    .constdata                               0x08004aa7   Section       11  msh.o(.constdata)
    .constdata                               0x08004ab2   Section        9  msh.o(.constdata)
    .constdata                               0x08004abb   Section       11  msh.o(.constdata)
    .constdata                               0x08004ac6   Section      290  kservice.o(.constdata)
    small_digits                             0x08004bc6   Data          17  kservice.o(.constdata)
    large_digits                             0x08004bd7   Data          17  kservice.o(.constdata)
    .constdata                               0x08004be8   Section        9  mem.o(.constdata)
    .conststring                             0x08004bf4   Section       68  cmd.o(.conststring)
    .rti_fn.0                                0x08004c38   Section        4  components.o(.rti_fn.0)
    __tagsym$$used                           0x08004c38   Number         0  components.o(.rti_fn.0)
    .rti_fn.0.end                            0x08004c3c   Section        4  components.o(.rti_fn.0.end)
    __tagsym$$used                           0x08004c3c   Number         0  components.o(.rti_fn.0.end)
    .rti_fn.1                                0x08004c40   Section        4  drv_aht10.o(.rti_fn.1)
    __tagsym$$used                           0x08004c40   Number         0  drv_aht10.o(.rti_fn.1)
    .rti_fn.1                                0x08004c44   Section        4  drv_beep.o(.rti_fn.1)
    __tagsym$$used                           0x08004c44   Number         0  drv_beep.o(.rti_fn.1)
    .rti_fn.1                                0x08004c48   Section        4  drv_iic.o(.rti_fn.1)
    __tagsym$$used                           0x08004c48   Number         0  drv_iic.o(.rti_fn.1)
    .rti_fn.1                                0x08004c4c   Section        4  drv_key.o(.rti_fn.1)
    __tagsym$$used                           0x08004c4c   Number         0  drv_key.o(.rti_fn.1)
    .rti_fn.1                                0x08004c50   Section        4  drv_led.o(.rti_fn.1)
    __tagsym$$used                           0x08004c50   Number         0  drv_led.o(.rti_fn.1)
    .rti_fn.1                                0x08004c54   Section        4  drv_motor.o(.rti_fn.1)
    __tagsym$$used                           0x08004c54   Number         0  drv_motor.o(.rti_fn.1)
    .rti_fn.1                                0x08004c58   Section        4  drv_uart.o(.rti_fn.1)
    __tagsym$$used                           0x08004c58   Number         0  drv_uart.o(.rti_fn.1)
    .rti_fn.1.end                            0x08004c5c   Section        4  components.o(.rti_fn.1.end)
    __tagsym$$used                           0x08004c5c   Number         0  components.o(.rti_fn.1.end)
    .rti_fn.6                                0x08004c60   Section        4  shell.o(.rti_fn.6)
    __tagsym$$used                           0x08004c60   Number         0  shell.o(.rti_fn.6)
    .rti_fn.6.end                            0x08004c64   Section        4  components.o(.rti_fn.6.end)
    __tagsym$$used                           0x08004c64   Number         0  components.o(.rti_fn.6.end)
    FSymTab                                  0x08004c68   Section      112  cmd.o(FSymTab)
    __tagsym$$used                           0x08004c68   Number         0  cmd.o(FSymTab)
    __tagsym$$used                           0x08004c70   Number         0  cmd.o(FSymTab)
    __tagsym$$used                           0x08004c78   Number         0  cmd.o(FSymTab)
    __tagsym$$used                           0x08004c80   Number         0  cmd.o(FSymTab)
    __tagsym$$used                           0x08004c88   Number         0  cmd.o(FSymTab)
    __tagsym$$used                           0x08004c90   Number         0  cmd.o(FSymTab)
    __tagsym$$used                           0x08004c98   Number         0  cmd.o(FSymTab)
    __tagsym$$used                           0x08004ca0   Number         0  cmd.o(FSymTab)
    __tagsym$$used                           0x08004ca8   Number         0  cmd.o(FSymTab)
    __tagsym$$used                           0x08004cb0   Number         0  cmd.o(FSymTab)
    __tagsym$$used                           0x08004cb8   Number         0  cmd.o(FSymTab)
    __tagsym$$used                           0x08004cc0   Number         0  cmd.o(FSymTab)
    __tagsym$$used                           0x08004cc8   Number         0  cmd.o(FSymTab)
    __tagsym$$used                           0x08004cd0   Number         0  cmd.o(FSymTab)
    FSymTab                                  0x08004cd8   Section       24  msh.o(FSymTab)
    __tagsym$$used                           0x08004cd8   Number         0  msh.o(FSymTab)
    __tagsym$$used                           0x08004ce0   Number         0  msh.o(FSymTab)
    __tagsym$$used                           0x08004ce8   Number         0  msh.o(FSymTab)
    FSymTab                                  0x08004cf0   Section        8  mem.o(FSymTab)
    __tagsym$$used                           0x08004cf0   Number         0  mem.o(FSymTab)
    .data                                    0x20000000   Section       24  main.o(.data)
    timer_control_key_value                  0x20000000   Data           1  main.o(.data)
    alarm_event                              0x20000004   Data           4  main.o(.data)
    aht10_timer                              0x20000008   Data           4  main.o(.data)
    alarm_sem                                0x2000000c   Data           4  main.o(.data)
    temp                                     0x20000010   Data           4  main.o(.data)
    humi                                     0x20000014   Data           4  main.o(.data)
    .data                                    0x20000018   Section        1  drv_key.o(.data)
    key_up                                   0x20000018   Data           1  drv_key.o(.data)
    .data                                    0x2000001c   Section       12  stm32l4xx_hal.o(.data)
    .data                                    0x20000028   Section        4  system_stm32l4xx.o(.data)
    .data                                    0x2000002c   Section       24  shell.o(.data)
    finsh_prompt_custom                      0x2000003c   Data           4  shell.o(.data)
    .data                                    0x20000044   Section        4  cpuport.o(.data)
    rt_exception_hook                        0x20000044   Data           4  cpuport.o(.data)
    .data                                    0x20000048   Section        4  cpuport.o(.data)
    .data                                    0x2000004c   Section        4  cpuport.o(.data)
    .data                                    0x20000050   Section        4  cpuport.o(.data)
    .data                                    0x20000054   Section        4  clock.o(.data)
    rt_tick                                  0x20000054   Data           4  clock.o(.data)
    .data                                    0x20000058   Section        1  irq.o(.data)
    .data                                    0x2000005c   Section       24  mem.o(.data)
    heap_ptr                                 0x2000005c   Data           4  mem.o(.data)
    heap_end                                 0x20000060   Data           4  mem.o(.data)
    lfree                                    0x20000064   Data           4  mem.o(.data)
    mem_size_aligned                         0x20000068   Data           4  mem.o(.data)
    used_mem                                 0x2000006c   Data           4  mem.o(.data)
    max_mem                                  0x20000070   Data           4  mem.o(.data)
    .data                                    0x20000074   Section       80  object.o(.data)
    rt_object_container                      0x20000074   Data          80  object.o(.data)
    .data                                    0x200000c4   Section       20  scheduler.o(.data)
    rt_scheduler_lock_nest                   0x200000c6   Data           2  scheduler.o(.data)
    .data                                    0x200000d8   Section       12  timer.o(.data)
    random_nr                                0x200000d8   Data           4  timer.o(.data)
    rt_timer_list                            0x200000dc   Data           8  timer.o(.data)
    .bss                                     0x200000e4   Section      128  drv_uart.o(.bss)
    .bss                                     0x20000164   Section      129  shell.o(.bss)
    finsh_prompt                             0x20000164   Data         129  shell.o(.bss)
    .bss                                     0x200001e8   Section      384  idle.o(.bss)
    idle                                     0x200001e8   Data         128  idle.o(.bss)
    rt_thread_stack                          0x20000268   Data         256  idle.o(.bss)
    .bss                                     0x20000368   Section      128  kservice.o(.bss)
    rt_log_buf                               0x20000368   Data         128  kservice.o(.bss)
    .bss                                     0x200003e8   Section       32  mem.o(.bss)
    heap_sem                                 0x200003e8   Data          32  mem.o(.bss)
    .bss                                     0x20000408   Section       64  scheduler.o(.bss)
    STACK                                    0x20000448   Section     1024  startup_stm32l475xx.o(STACK)

    Global Symbols

    Symbol Name                              Value     Ov Type        Size  Object(Section)

    BuildAttributes$$THM_ISAv4$E$P$D$K$B$S$7EM$VFPi3$EXTD16$VFPS$VFMA$PE$A:L22UL41UL21$X:L11$S22US41US21$IEEE1$IW$USESV6$~STKCKD$USESV7$~SHL$OTIME$ROPI$EBA8$MICROLIB$REQ8$PRES8$EABIv2 0x00000000   Number         0  anon$$obj.o ABSOLUTE
    __ARM_use_no_argv                        0x00000000   Number         0  main.o ABSOLUTE
    __cpp_initialize__aeabi_                  - Undefined Weak Reference
    __cxa_finalize                            - Undefined Weak Reference
    __decompress                              - Undefined Weak Reference
    _clock_init                               - Undefined Weak Reference
    _microlib_exit                            - Undefined Weak Reference
    __Vectors_Size                           0x00000188   Number         0  startup_stm32l475xx.o ABSOLUTE
    __Vectors                                0x08000000   Data           4  startup_stm32l475xx.o(RESET)
    __Vectors_End                            0x08000188   Data           0  startup_stm32l475xx.o(RESET)
    __main                                   0x08000189   Thumb Code     0  entry.o(.ARM.Collect$$$$00000000)
    _main_stk                                0x08000189   Thumb Code     0  entry2.o(.ARM.Collect$$$$00000001)
    _main_scatterload                        0x0800018d   Thumb Code     0  entry5.o(.ARM.Collect$$$$00000004)
    __main_after_scatterload                 0x08000191   Thumb Code     0  entry5.o(.ARM.Collect$$$$00000004)
    _main_clock                              0x08000191   Thumb Code     0  entry7b.o(.ARM.Collect$$$$00000008)
    _main_cpp_init                           0x08000191   Thumb Code     0  entry8b.o(.ARM.Collect$$$$0000000A)
    _main_init                               0x08000191   Thumb Code     0  entry9a.o(.ARM.Collect$$$$0000000B)
    __rt_final_cpp                           0x08000199   Thumb Code     0  entry10a.o(.ARM.Collect$$$$0000000D)
    __rt_final_exit                          0x08000199   Thumb Code     0  entry11a.o(.ARM.Collect$$$$0000000F)
    Reset_Handler                            0x0800019d   Thumb Code     8  startup_stm32l475xx.o(.text)
    ADC1_2_IRQHandler                        0x080001b7   Thumb Code     0  startup_stm32l475xx.o(.text)
    ADC3_IRQHandler                          0x080001b7   Thumb Code     0  startup_stm32l475xx.o(.text)
    CAN1_RX0_IRQHandler                      0x080001b7   Thumb Code     0  startup_stm32l475xx.o(.text)
    CAN1_RX1_IRQHandler                      0x080001b7   Thumb Code     0  startup_stm32l475xx.o(.text)
    CAN1_SCE_IRQHandler                      0x080001b7   Thumb Code     0  startup_stm32l475xx.o(.text)
    CAN1_TX_IRQHandler                       0x080001b7   Thumb Code     0  startup_stm32l475xx.o(.text)
    COMP_IRQHandler                          0x080001b7   Thumb Code     0  startup_stm32l475xx.o(.text)
    DFSDM1_FLT0_IRQHandler                   0x080001b7   Thumb Code     0  startup_stm32l475xx.o(.text)
    DFSDM1_FLT1_IRQHandler                   0x080001b7   Thumb Code     0  startup_stm32l475xx.o(.text)
    DFSDM1_FLT2_IRQHandler                   0x080001b7   Thumb Code     0  startup_stm32l475xx.o(.text)
    DFSDM1_FLT3_IRQHandler                   0x080001b7   Thumb Code     0  startup_stm32l475xx.o(.text)
    DMA1_Channel1_IRQHandler                 0x080001b7   Thumb Code     0  startup_stm32l475xx.o(.text)
    DMA1_Channel2_IRQHandler                 0x080001b7   Thumb Code     0  startup_stm32l475xx.o(.text)
    DMA1_Channel3_IRQHandler                 0x080001b7   Thumb Code     0  startup_stm32l475xx.o(.text)
    DMA1_Channel4_IRQHandler                 0x080001b7   Thumb Code     0  startup_stm32l475xx.o(.text)
    DMA1_Channel5_IRQHandler                 0x080001b7   Thumb Code     0  startup_stm32l475xx.o(.text)
    DMA1_Channel6_IRQHandler                 0x080001b7   Thumb Code     0  startup_stm32l475xx.o(.text)
    DMA1_Channel7_IRQHandler                 0x080001b7   Thumb Code     0  startup_stm32l475xx.o(.text)
    DMA2_Channel1_IRQHandler                 0x080001b7   Thumb Code     0  startup_stm32l475xx.o(.text)
    DMA2_Channel2_IRQHandler                 0x080001b7   Thumb Code     0  startup_stm32l475xx.o(.text)
    DMA2_Channel3_IRQHandler                 0x080001b7   Thumb Code     0  startup_stm32l475xx.o(.text)
    DMA2_Channel4_IRQHandler                 0x080001b7   Thumb Code     0  startup_stm32l475xx.o(.text)
    DMA2_Channel5_IRQHandler                 0x080001b7   Thumb Code     0  startup_stm32l475xx.o(.text)
    DMA2_Channel6_IRQHandler                 0x080001b7   Thumb Code     0  startup_stm32l475xx.o(.text)
    DMA2_Channel7_IRQHandler                 0x080001b7   Thumb Code     0  startup_stm32l475xx.o(.text)
    EXTI0_IRQHandler                         0x080001b7   Thumb Code     0  startup_stm32l475xx.o(.text)
    EXTI15_10_IRQHandler                     0x080001b7   Thumb Code     0  startup_stm32l475xx.o(.text)
    EXTI1_IRQHandler                         0x080001b7   Thumb Code     0  startup_stm32l475xx.o(.text)
    EXTI2_IRQHandler                         0x080001b7   Thumb Code     0  startup_stm32l475xx.o(.text)
    EXTI3_IRQHandler                         0x080001b7   Thumb Code     0  startup_stm32l475xx.o(.text)
    EXTI4_IRQHandler                         0x080001b7   Thumb Code     0  startup_stm32l475xx.o(.text)
    EXTI9_5_IRQHandler                       0x080001b7   Thumb Code     0  startup_stm32l475xx.o(.text)
    FLASH_IRQHandler                         0x080001b7   Thumb Code     0  startup_stm32l475xx.o(.text)
    FMC_IRQHandler                           0x080001b7   Thumb Code     0  startup_stm32l475xx.o(.text)
    FPU_IRQHandler                           0x080001b7   Thumb Code     0  startup_stm32l475xx.o(.text)
    I2C1_ER_IRQHandler                       0x080001b7   Thumb Code     0  startup_stm32l475xx.o(.text)
    I2C1_EV_IRQHandler                       0x080001b7   Thumb Code     0  startup_stm32l475xx.o(.text)
    I2C2_ER_IRQHandler                       0x080001b7   Thumb Code     0  startup_stm32l475xx.o(.text)
    I2C2_EV_IRQHandler                       0x080001b7   Thumb Code     0  startup_stm32l475xx.o(.text)
    I2C3_ER_IRQHandler                       0x080001b7   Thumb Code     0  startup_stm32l475xx.o(.text)
    I2C3_EV_IRQHandler                       0x080001b7   Thumb Code     0  startup_stm32l475xx.o(.text)
    LPTIM1_IRQHandler                        0x080001b7   Thumb Code     0  startup_stm32l475xx.o(.text)
    LPTIM2_IRQHandler                        0x080001b7   Thumb Code     0  startup_stm32l475xx.o(.text)
    LPUART1_IRQHandler                       0x080001b7   Thumb Code     0  startup_stm32l475xx.o(.text)
    OTG_FS_IRQHandler                        0x080001b7   Thumb Code     0  startup_stm32l475xx.o(.text)
    PVD_PVM_IRQHandler                       0x080001b7   Thumb Code     0  startup_stm32l475xx.o(.text)
    QUADSPI_IRQHandler                       0x080001b7   Thumb Code     0  startup_stm32l475xx.o(.text)
    RCC_IRQHandler                           0x080001b7   Thumb Code     0  startup_stm32l475xx.o(.text)
    RNG_IRQHandler                           0x080001b7   Thumb Code     0  startup_stm32l475xx.o(.text)
    RTC_Alarm_IRQHandler                     0x080001b7   Thumb Code     0  startup_stm32l475xx.o(.text)
    RTC_WKUP_IRQHandler                      0x080001b7   Thumb Code     0  startup_stm32l475xx.o(.text)
    SAI1_IRQHandler                          0x080001b7   Thumb Code     0  startup_stm32l475xx.o(.text)
    SAI2_IRQHandler                          0x080001b7   Thumb Code     0  startup_stm32l475xx.o(.text)
    SDMMC1_IRQHandler                        0x080001b7   Thumb Code     0  startup_stm32l475xx.o(.text)
    SPI1_IRQHandler                          0x080001b7   Thumb Code     0  startup_stm32l475xx.o(.text)
    SPI2_IRQHandler                          0x080001b7   Thumb Code     0  startup_stm32l475xx.o(.text)
    SPI3_IRQHandler                          0x080001b7   Thumb Code     0  startup_stm32l475xx.o(.text)
    SWPMI1_IRQHandler                        0x080001b7   Thumb Code     0  startup_stm32l475xx.o(.text)
    TAMP_STAMP_IRQHandler                    0x080001b7   Thumb Code     0  startup_stm32l475xx.o(.text)
    TIM1_BRK_TIM15_IRQHandler                0x080001b7   Thumb Code     0  startup_stm32l475xx.o(.text)
    TIM1_CC_IRQHandler                       0x080001b7   Thumb Code     0  startup_stm32l475xx.o(.text)
    TIM1_TRG_COM_TIM17_IRQHandler            0x080001b7   Thumb Code     0  startup_stm32l475xx.o(.text)
    TIM1_UP_TIM16_IRQHandler                 0x080001b7   Thumb Code     0  startup_stm32l475xx.o(.text)
    TIM2_IRQHandler                          0x080001b7   Thumb Code     0  startup_stm32l475xx.o(.text)
    TIM3_IRQHandler                          0x080001b7   Thumb Code     0  startup_stm32l475xx.o(.text)
    TIM4_IRQHandler                          0x080001b7   Thumb Code     0  startup_stm32l475xx.o(.text)
    TIM5_IRQHandler                          0x080001b7   Thumb Code     0  startup_stm32l475xx.o(.text)
    TIM6_DAC_IRQHandler                      0x080001b7   Thumb Code     0  startup_stm32l475xx.o(.text)
    TIM7_IRQHandler                          0x080001b7   Thumb Code     0  startup_stm32l475xx.o(.text)
    TIM8_BRK_IRQHandler                      0x080001b7   Thumb Code     0  startup_stm32l475xx.o(.text)
    TIM8_CC_IRQHandler                       0x080001b7   Thumb Code     0  startup_stm32l475xx.o(.text)
    TIM8_TRG_COM_IRQHandler                  0x080001b7   Thumb Code     0  startup_stm32l475xx.o(.text)
    TIM8_UP_IRQHandler                       0x080001b7   Thumb Code     0  startup_stm32l475xx.o(.text)
    TSC_IRQHandler                           0x080001b7   Thumb Code     0  startup_stm32l475xx.o(.text)
    UART4_IRQHandler                         0x080001b7   Thumb Code     0  startup_stm32l475xx.o(.text)
    UART5_IRQHandler                         0x080001b7   Thumb Code     0  startup_stm32l475xx.o(.text)
    USART1_IRQHandler                        0x080001b7   Thumb Code     0  startup_stm32l475xx.o(.text)
    USART2_IRQHandler                        0x080001b7   Thumb Code     0  startup_stm32l475xx.o(.text)
    USART3_IRQHandler                        0x080001b7   Thumb Code     0  startup_stm32l475xx.o(.text)
    WWDG_IRQHandler                          0x080001b7   Thumb Code     0  startup_stm32l475xx.o(.text)
    rt_hw_interrupt_disable                  0x080001c1   Thumb Code     8  context_rvds.o(.text)
    rt_hw_interrupt_enable                   0x080001c9   Thumb Code     6  context_rvds.o(.text)
    rt_hw_context_switch                     0x080001cf   Thumb Code    32  context_rvds.o(.text)
    rt_hw_context_switch_interrupt           0x080001cf   Thumb Code     0  context_rvds.o(.text)
    PendSV_Handler                           0x080001ef   Thumb Code   108  context_rvds.o(.text)
    rt_hw_context_switch_to                  0x0800025b   Thumb Code    70  context_rvds.o(.text)
    rt_hw_interrupt_thread_switch            0x080002a1   Thumb Code     2  context_rvds.o(.text)
    HardFault_Handler                        0x080002a3   Thumb Code    56  context_rvds.o(.text)
    __aeabi_uldivmod                         0x08000301   Thumb Code    98  uldiv.o(.text)
    __aeabi_memcpy                           0x08000369   Thumb Code    36  memcpya.o(.text)
    __aeabi_memcpy4                          0x08000369   Thumb Code     0  memcpya.o(.text)
    __aeabi_memcpy8                          0x08000369   Thumb Code     0  memcpya.o(.text)
    __aeabi_memset                           0x0800038d   Thumb Code    14  memseta.o(.text)
    __aeabi_memset4                          0x0800038d   Thumb Code     0  memseta.o(.text)
    __aeabi_memset8                          0x0800038d   Thumb Code     0  memseta.o(.text)
    __aeabi_memclr                           0x0800039b   Thumb Code     4  memseta.o(.text)
    __aeabi_memclr4                          0x0800039b   Thumb Code     0  memseta.o(.text)
    __aeabi_memclr8                          0x0800039b   Thumb Code     0  memseta.o(.text)
    _memset$wrapper                          0x0800039f   Thumb Code    18  memseta.o(.text)
    strcat                                   0x080003b1   Thumb Code    24  strcat.o(.text)
    strncpy                                  0x080003c9   Thumb Code    24  strncpy.o(.text)
    strlen                                   0x080003e1   Thumb Code    14  strlen.o(.text)
    strcpy                                   0x080003ef   Thumb Code    18  strcpy.o(.text)
    strncmp                                  0x08000401   Thumb Code    30  strncmp.o(.text)
    __aeabi_dadd                             0x0800041f   Thumb Code   322  dadd.o(.text)
    __aeabi_dsub                             0x08000561   Thumb Code     6  dadd.o(.text)
    __aeabi_drsub                            0x08000567   Thumb Code     6  dadd.o(.text)
    __aeabi_dmul                             0x0800057d   Thumb Code   228  dmul.o(.text)
    __aeabi_ui2d                             0x08000667   Thumb Code    26  dfltui.o(.text)
    __aeabi_d2f                              0x08000681   Thumb Code    56  d2f.o(.text)
    __aeabi_llsl                             0x080006b9   Thumb Code    30  llshl.o(.text)
    _ll_shift_l                              0x080006b9   Thumb Code     0  llshl.o(.text)
    __aeabi_llsr                             0x080006d7   Thumb Code    32  llushr.o(.text)
    _ll_ushift_r                             0x080006d7   Thumb Code     0  llushr.o(.text)
    __aeabi_lasr                             0x080006f7   Thumb Code    36  llsshr.o(.text)
    _ll_sshift_r                             0x080006f7   Thumb Code     0  llsshr.o(.text)
    __I$use$fp                               0x0800071b   Thumb Code     0  iusefp.o(.text)
    _float_round                             0x0800071b   Thumb Code    18  fepilogue.o(.text)
    _float_epilogue                          0x0800072d   Thumb Code    92  fepilogue.o(.text)
    _double_round                            0x08000789   Thumb Code    30  depilogue.o(.text)
    _double_epilogue                         0x080007a7   Thumb Code   156  depilogue.o(.text)
    __scatterload                            0x08000845   Thumb Code    28  init.o(.text)
    __scatterload_rt2                        0x08000845   Thumb Code     0  init.o(.text)
    main                                     0x08000869   Thumb Code    10  components.o(i.$Sub$$main)
    BusFault_Handler                         0x08000873   Thumb Code     2  stm32l4xx_it.o(i.BusFault_Handler)
    DebugMon_Handler                         0x08000875   Thumb Code     2  stm32l4xx_it.o(i.DebugMon_Handler)
    HAL_GPIO_Init                            0x08000879   Thumb Code   570  stm32l4xx_hal_gpio.o(i.HAL_GPIO_Init)
    HAL_GPIO_ReadPin                         0x08000adf   Thumb Code    10  stm32l4xx_hal_gpio.o(i.HAL_GPIO_ReadPin)
    HAL_GPIO_WritePin                        0x08000ae9   Thumb Code    10  stm32l4xx_hal_gpio.o(i.HAL_GPIO_WritePin)
    HAL_GetTick                              0x08000af5   Thumb Code     6  stm32l4xx_hal.o(i.HAL_GetTick)
    HAL_RCC_GetPCLK1Freq                     0x08000b01   Thumb Code    24  stm32l4xx_hal_rcc.o(i.HAL_RCC_GetPCLK1Freq)
    HAL_RCC_GetPCLK2Freq                     0x08000b25   Thumb Code    24  stm32l4xx_hal_rcc.o(i.HAL_RCC_GetPCLK2Freq)
    HAL_RCC_GetSysClockFreq                  0x08000b49   Thumb Code   150  stm32l4xx_hal_rcc.o(i.HAL_RCC_GetSysClockFreq)
    HAL_UART_Init                            0x08000bed   Thumb Code   102  stm32l4xx_hal_uart.o(i.HAL_UART_Init)
    HAL_UART_MspInit                         0x08000c55   Thumb Code    92  stm32l4xx_hal_msp.o(i.HAL_UART_MspInit)
    HAL_UART_Transmit                        0x08000cb9   Thumb Code   182  stm32l4xx_hal_uart.o(i.HAL_UART_Transmit)
    MemManage_Handler                        0x08000d6f   Thumb Code     2  stm32l4xx_it.o(i.MemManage_Handler)
    NMI_Handler                              0x08000d71   Thumb Code     2  stm32l4xx_it.o(i.NMI_Handler)
    SVC_Handler                              0x08000d73   Thumb Code     2  stm32l4xx_it.o(i.SVC_Handler)
    SysTick_Handler                          0x08000d75   Thumb Code    18  board.o(i.SysTick_Handler)
    SystemCoreClockUpdate                    0x08000d89   Thumb Code   152  system_stm32l4xx.o(i.SystemCoreClockUpdate)
    SystemInit                               0x08000e31   Thumb Code    56  system_stm32l4xx.o(i.SystemInit)
    UART_AdvFeatureConfig                    0x08000e75   Thumb Code   200  stm32l4xx_hal_uart.o(i.UART_AdvFeatureConfig)
    UART_CheckIdleState                      0x08000f3d   Thumb Code    88  stm32l4xx_hal_uart.o(i.UART_CheckIdleState)
    UART_SetConfig                           0x08000f95   Thumb Code   612  stm32l4xx_hal_uart.o(i.UART_SetConfig)
    UART_WaitOnFlagUntilTimeout              0x08001229   Thumb Code   164  stm32l4xx_hal_uart.o(i.UART_WaitOnFlagUntilTimeout)
    UsageFault_Handler                       0x080012cd   Thumb Code     2  stm32l4xx_it.o(i.UsageFault_Handler)
    __rt_ffs                                 0x080012d1   Thumb Code    64  kservice.o(i.__rt_ffs)
    __scatterload_copy                       0x08001315   Thumb Code    14  handlers.o(i.__scatterload_copy)
    __scatterload_null                       0x08001323   Thumb Code     2  handlers.o(i.__scatterload_null)
    __scatterload_zeroinit                   0x08001325   Thumb Code    14  handlers.o(i.__scatterload_zeroinit)
    aht10_init                               0x0800148f   Thumb Code    68  drv_aht10.o(i.aht10_init)
    aht10_read_data                          0x080014d3   Thumb Code    72  drv_aht10.o(i.aht10_read_data)
    aht10_read_humidity                      0x0800151d   Thumb Code    96  drv_aht10.o(i.aht10_read_humidity)
    aht10_read_temperature                   0x0800158d   Thumb Code   106  drv_aht10.o(i.aht10_read_temperature)
    aht10_write_data                         0x08001751   Thumb Code    72  drv_aht10.o(i.aht10_write_data)
    beep_init                                0x080017e5   Thumb Code    62  drv_beep.o(i.beep_init)
    cmd_free                                 0x08001915   Thumb Code    10  msh.o(i.cmd_free)
    cmd_ps                                   0x0800191f   Thumb Code    10  msh.o(i.cmd_ps)
    finsh_get_prompt                         0x08001929   Thumb Code    66  shell.o(i.finsh_get_prompt)
    finsh_set_prompt_mode                    0x08001989   Thumb Code    16  shell.o(i.finsh_set_prompt_mode)
    finsh_system_function_init               0x0800199d   Thumb Code     8  shell.o(i.finsh_system_function_init)
    finsh_system_init                        0x080019a9   Thumb Code    90  shell.o(i.finsh_system_init)
    finsh_thread_entry                       0x08001a3d   Thumb Code   612  shell.o(i.finsh_thread_entry)
    hello                                    0x08001d41   Thumb Code    12  cmd.o(i.hello)
    iic_ack                                  0x08001d61   Thumb Code    76  drv_iic.o(i.iic_ack)
    iic_init                                 0x08001db5   Thumb Code   106  drv_iic.o(i.iic_init)
    iic_nack                                 0x08001e2d   Thumb Code    76  drv_iic.o(i.iic_nack)
    iic_read_byte                            0x08001e81   Thumb Code   104  drv_iic.o(i.iic_read_byte)
    iic_send_byte                            0x08001ef1   Thumb Code   104  drv_iic.o(i.iic_send_byte)
    iic_start                                0x08001f61   Thumb Code    78  drv_iic.o(i.iic_start)
    iic_stop                                 0x08001fb9   Thumb Code    78  drv_iic.o(i.iic_stop)
    iic_wait_ack                             0x08002011   Thumb Code    96  drv_iic.o(i.iic_wait_ack)
    key_init                                 0x08002079   Thumb Code    92  drv_key.o(i.key_init)
    key_scan                                 0x080020e1   Thumb Code   208  drv_key.o(i.key_scan)
    led_init                                 0x08002255   Thumb Code    84  drv_led.o(i.led_init)
    list                                     0x080022b1   Thumb Code    48  cmd.o(i.list)
    list_event                               0x08002305   Thumb Code   184  cmd.o(i.list_event)
    list_mailbox                             0x080024c1   Thumb Code   200  cmd.o(i.list_mailbox)
    list_mem                                 0x08002605   Thumb Code    32  mem.o(i.list_mem)
    list_sem                                 0x08002671   Thumb Code   188  cmd.o(i.list_sem)
    list_thread                              0x0800278d   Thumb Code   250  cmd.o(i.list_thread)
    list_timer                               0x08002945   Thumb Code   160  cmd.o(i.list_timer)
    $Super$$main                             0x08002a85   Thumb Code   212  main.o(i.main)
    main_thread_entry                        0x08002c91   Thumb Code    14  components.o(i.main_thread_entry)
    motor_forward                            0x08002d79   Thumb Code    30  drv_motor.o(i.motor_forward)
    motor_init                               0x08002d99   Thumb Code    52  drv_motor.o(i.motor_init)
    motor_stop                               0x08002dd1   Thumb Code    30  drv_motor.o(i.motor_stop)
    msh_auto_complete                        0x08002df1   Thumb Code   150  msh.o(i.msh_auto_complete)
    msh_exec                                 0x08002e9d   Thumb Code    74  msh.o(i.msh_exec)
    msh_help                                 0x08002f01   Thumb Code    56  msh.o(i.msh_help)
    msh_is_used                              0x08002f6d   Thumb Code     4  msh.o(i.msh_is_used)
    rt_application_init                      0x080031e5   Thumb Code    30  components.o(i.rt_application_init)
    rt_calloc                                0x08003211   Thumb Code    26  mem.o(i.rt_calloc)
    rt_components_board_init                 0x0800322d   Thumb Code    20  components.o(i.rt_components_board_init)
    rt_components_init                       0x08003249   Thumb Code    20  components.o(i.rt_components_init)
    rt_enter_critical                        0x08003265   Thumb Code    22  scheduler.o(i.rt_enter_critical)
    rt_event_create                          0x08003281   Thumb Code    32  ipc.o(i.rt_event_create)
    rt_event_recv                            0x080032a1   Thumb Code   190  ipc.o(i.rt_event_recv)
    rt_event_send                            0x0800335f   Thumb Code   134  ipc.o(i.rt_event_send)
    rt_exit_critical                         0x080033e5   Thumb Code    52  scheduler.o(i.rt_exit_critical)
    rt_free                                  0x0800341d   Thumb Code   112  mem.o(i.rt_free)
    rt_hw_board_init                         0x080034e1   Thumb Code    62  board.o(i.rt_hw_board_init)
    rt_hw_console_getchar                    0x08003531   Thumb Code    46  drv_uart.o(i.rt_hw_console_getchar)
    rt_hw_console_output                     0x08003565   Thumb Code    66  drv_uart.o(i.rt_hw_console_output)
    rt_hw_hard_fault_exception               0x080035ad   Thumb Code   198  cpuport.o(i.rt_hw_hard_fault_exception)
    rt_hw_stack_init                         0x080037c5   Thumb Code    54  cpuport.o(i.rt_hw_stack_init)
    rt_hw_us_delay                           0x08003801   Thumb Code    42  drv_iic.o(i.rt_hw_us_delay)
    rt_interrupt_enter                       0x08003835   Thumb Code    22  irq.o(i.rt_interrupt_enter)
    rt_interrupt_leave                       0x08003851   Thumb Code    22  irq.o(i.rt_interrupt_leave)
    rt_kprintf                               0x080038c1   Thumb Code    28  kservice.o(i.rt_kprintf)
    rt_malloc                                0x08003951   Thumb Code   232  mem.o(i.rt_malloc)
    rt_memmove                               0x08003a41   Thumb Code    50  kservice.o(i.rt_memmove)
    rt_memset                                0x08003a75   Thumb Code    70  kservice.o(i.rt_memset)
    rt_object_allocate                       0x08003abb   Thumb Code    80  object.o(i.rt_object_allocate)
    rt_object_delete                         0x08003b0b   Thumb Code    38  object.o(i.rt_object_delete)
    rt_object_detach                         0x08003b31   Thumb Code    32  object.o(i.rt_object_detach)
    rt_object_get_information                0x08003b51   Thumb Code    30  object.o(i.rt_object_get_information)
    rt_object_init                           0x08003b75   Thumb Code    80  object.o(i.rt_object_init)
    rt_object_is_systemobject                0x08003bc5   Thumb Code    14  object.o(i.rt_object_is_systemobject)
    rt_schedule                              0x08003bd5   Thumb Code    76  scheduler.o(i.rt_schedule)
    rt_schedule_insert_thread                0x08003c2d   Thumb Code    70  scheduler.o(i.rt_schedule_insert_thread)
    rt_schedule_remove_thread                0x08003c7d   Thumb Code    64  scheduler.o(i.rt_schedule_remove_thread)
    rt_sem_create                            0x08003cc5   Thumb Code    32  ipc.o(i.rt_sem_create)
    rt_sem_init                              0x08003ce5   Thumb Code    36  ipc.o(i.rt_sem_init)
    rt_sem_release                           0x08003d09   Thumb Code    54  ipc.o(i.rt_sem_release)
    rt_sem_take                              0x08003d3f   Thumb Code   110  ipc.o(i.rt_sem_take)
    rt_show_version                          0x08003dad   Thumb Code    40  kservice.o(i.rt_show_version)
    rt_strlen                                0x08003e5d   Thumb Code    16  kservice.o(i.rt_strlen)
    rt_strncpy                               0x08003e6d   Thumb Code    38  kservice.o(i.rt_strncpy)
    rt_system_heap_init                      0x08003e95   Thumb Code    96  mem.o(i.rt_system_heap_init)
    rt_system_scheduler_init                 0x08003f41   Thumb Code    44  scheduler.o(i.rt_system_scheduler_init)
    rt_system_scheduler_start                0x08003f75   Thumb Code    32  scheduler.o(i.rt_system_scheduler_start)
    rt_system_timer_init                     0x08003f9d   Thumb Code     8  timer.o(i.rt_system_timer_init)
    rt_system_timer_thread_init              0x08003fa9   Thumb Code     2  timer.o(i.rt_system_timer_thread_init)
    rt_thread_create                         0x08003fab   Thumb Code    72  thread.o(i.rt_thread_create)
    rt_thread_exit                           0x08003ff5   Thumb Code    78  thread.o(i.rt_thread_exit)
    rt_thread_idle_excute                    0x08004055   Thumb Code   114  idle.o(i.rt_thread_idle_excute)
    rt_thread_idle_init                      0x080040cd   Thumb Code    40  idle.o(i.rt_thread_idle_init)
    rt_thread_init                           0x08004105   Thumb Code    48  thread.o(i.rt_thread_init)
    rt_thread_mdelay                         0x0800413b   Thumb Code    14  thread.o(i.rt_thread_mdelay)
    rt_thread_resume                         0x08004149   Thumb Code    60  thread.o(i.rt_thread_resume)
    rt_thread_self                           0x08004185   Thumb Code     6  thread.o(i.rt_thread_self)
    rt_thread_sleep                          0x08004191   Thumb Code    60  thread.o(i.rt_thread_sleep)
    rt_thread_startup                        0x080041d1   Thumb Code    40  thread.o(i.rt_thread_startup)
    rt_thread_suspend                        0x080041fd   Thumb Code    66  thread.o(i.rt_thread_suspend)
    rt_thread_timeout                        0x0800423f   Thumb Code    32  thread.o(i.rt_thread_timeout)
    rt_thread_yield                          0x08004261   Thumb Code    86  thread.o(i.rt_thread_yield)
    rt_tick_from_millisecond                 0x080042c1   Thumb Code    50  clock.o(i.rt_tick_from_millisecond)
    rt_tick_get                              0x080042f5   Thumb Code     6  clock.o(i.rt_tick_get)
    rt_tick_increase                         0x08004301   Thumb Code    38  clock.o(i.rt_tick_increase)
    rt_timer_check                           0x0800432d   Thumb Code    98  timer.o(i.rt_timer_check)
    rt_timer_control                         0x08004395   Thumb Code    48  timer.o(i.rt_timer_control)
    rt_timer_create                          0x080043c5   Thumb Code    46  timer.o(i.rt_timer_create)
    rt_timer_detach                          0x080043f3   Thumb Code    32  timer.o(i.rt_timer_detach)
    rt_timer_init                            0x08004413   Thumb Code    40  timer.o(i.rt_timer_init)
    rt_timer_start                           0x0800443d   Thumb Code   136  timer.o(i.rt_timer_start)
    rt_timer_stop                            0x080044c9   Thumb Code    46  timer.o(i.rt_timer_stop)
    rt_vsnprintf                             0x080044f9   Thumb Code   626  kservice.o(i.rt_vsnprintf)
    rtthread_startup                         0x0800478b   Thumb Code    42  components.o(i.rtthread_startup)
    turn_off_led_g                           0x08004845   Thumb Code    10  drv_led.o(i.turn_off_led_g)
    turn_off_led_r                           0x08004855   Thumb Code    10  drv_led.o(i.turn_off_led_r)
    turn_on_led_g                            0x08004865   Thumb Code    12  drv_led.o(i.turn_on_led_g)
    turn_on_led_r                            0x08004875   Thumb Code    10  drv_led.o(i.turn_on_led_r)
    uart_init                                0x08004885   Thumb Code    52  drv_uart.o(i.uart_init)
    version                                  0x080049a5   Thumb Code    10  cmd.o(i.version)
    AHBPrescTable                            0x080049b0   Data          16  system_stm32l4xx.o(.constdata)
    MSIRangeTable                            0x080049c0   Data          48  system_stm32l4xx.o(.constdata)
    APBPrescTable                            0x080049f0   Data           8  system_stm32l4xx.o(.constdata)
    __fsym_hello_name                        0x080049f8   Data           6  cmd.o(.constdata)
    __fsym_version_name                      0x080049fe   Data           8  cmd.o(.constdata)
    __fsym___cmd_version_name                0x08004a06   Data          14  cmd.o(.constdata)
    __fsym_list_thread_name                  0x08004a14   Data          12  cmd.o(.constdata)
    __fsym___cmd_list_thread_name            0x08004a20   Data          18  cmd.o(.constdata)
    __fsym_list_sem_name                     0x08004a32   Data           9  cmd.o(.constdata)
    __fsym___cmd_list_sem_name               0x08004a3b   Data          15  cmd.o(.constdata)
    __fsym_list_event_name                   0x08004a4a   Data          11  cmd.o(.constdata)
    __fsym___cmd_list_event_name             0x08004a55   Data          17  cmd.o(.constdata)
    __fsym_list_mailbox_name                 0x08004a66   Data          13  cmd.o(.constdata)
    __fsym___cmd_list_mailbox_name           0x08004a73   Data          19  cmd.o(.constdata)
    __fsym_list_timer_name                   0x08004a86   Data          11  cmd.o(.constdata)
    __fsym___cmd_list_timer_name             0x08004a91   Data          17  cmd.o(.constdata)
    __fsym_list_name                         0x08004aa2   Data           5  cmd.o(.constdata)
    __fsym___cmd_help_name                   0x08004aa7   Data          11  msh.o(.constdata)
    __fsym___cmd_ps_name                     0x08004ab2   Data           9  msh.o(.constdata)
    __fsym___cmd_free_name                   0x08004abb   Data          11  msh.o(.constdata)
    __lowest_bit_bitmap                      0x08004ac6   Data         256  kservice.o(.constdata)
    __fsym_list_mem_name                     0x08004be8   Data           9  mem.o(.constdata)
    __rt_init_rti_start                      0x08004c38   Data           4  components.o(.rti_fn.0)
    __rt_init_rti_board_start                0x08004c3c   Data           4  components.o(.rti_fn.0.end)
    __rt_init_aht10_init                     0x08004c40   Data           4  drv_aht10.o(.rti_fn.1)
    __rt_init_beep_init                      0x08004c44   Data           4  drv_beep.o(.rti_fn.1)
    __rt_init_iic_init                       0x08004c48   Data           4  drv_iic.o(.rti_fn.1)
    __rt_init_key_init                       0x08004c4c   Data           4  drv_key.o(.rti_fn.1)
    __rt_init_led_init                       0x08004c50   Data           4  drv_led.o(.rti_fn.1)
    __rt_init_motor_init                     0x08004c54   Data           4  drv_motor.o(.rti_fn.1)
    __rt_init_uart_init                      0x08004c58   Data           4  drv_uart.o(.rti_fn.1)
    __rt_init_rti_board_end                  0x08004c5c   Data           4  components.o(.rti_fn.1.end)
    __rt_init_finsh_system_init              0x08004c60   Data           4  shell.o(.rti_fn.6)
    __rt_init_rti_end                        0x08004c64   Data           4  components.o(.rti_fn.6.end)
    FSymTab$$Base                            0x08004c68   Number         0  cmd.o(FSymTab)
    __fsym_hello                             0x08004c68   Data           8  cmd.o(FSymTab)
    __fsym_version                           0x08004c70   Data           8  cmd.o(FSymTab)
    __fsym___cmd_version                     0x08004c78   Data           8  cmd.o(FSymTab)
    __fsym_list_thread                       0x08004c80   Data           8  cmd.o(FSymTab)
    __fsym___cmd_list_thread                 0x08004c88   Data           8  cmd.o(FSymTab)
    __fsym_list_sem                          0x08004c90   Data           8  cmd.o(FSymTab)
    __fsym___cmd_list_sem                    0x08004c98   Data           8  cmd.o(FSymTab)
    __fsym_list_event                        0x08004ca0   Data           8  cmd.o(FSymTab)
    __fsym___cmd_list_event                  0x08004ca8   Data           8  cmd.o(FSymTab)
    __fsym_list_mailbox                      0x08004cb0   Data           8  cmd.o(FSymTab)
    __fsym___cmd_list_mailbox                0x08004cb8   Data           8  cmd.o(FSymTab)
    __fsym_list_timer                        0x08004cc0   Data           8  cmd.o(FSymTab)
    __fsym___cmd_list_timer                  0x08004cc8   Data           8  cmd.o(FSymTab)
    __fsym_list                              0x08004cd0   Data           8  cmd.o(FSymTab)
    __fsym___cmd_help                        0x08004cd8   Data           8  msh.o(FSymTab)
    __fsym___cmd_ps                          0x08004ce0   Data           8  msh.o(FSymTab)
    __fsym___cmd_free                        0x08004ce8   Data           8  msh.o(FSymTab)
    __fsym_list_mem                          0x08004cf0   Data           8  mem.o(FSymTab)
    FSymTab$$Limit                           0x08004cf8   Number         0  mem.o(FSymTab)
    Region$$Table$$Base                      0x08004cf8   Number         0  anon$$obj.o(Region$$Table)
    Region$$Table$$Limit                     0x08004d18   Number         0  anon$$obj.o(Region$$Table)
    uwTickPrio                               0x2000001c   Data           4  stm32l4xx_hal.o(.data)
    uwTickFreq                               0x20000020   Data           4  stm32l4xx_hal.o(.data)
    uwTick                                   0x20000024   Data           4  stm32l4xx_hal.o(.data)
    SystemCoreClock                          0x20000028   Data           4  system_stm32l4xx.o(.data)
    _syscall_table_begin                     0x2000002c   Data           4  shell.o(.data)
    _syscall_table_end                       0x20000030   Data           4  shell.o(.data)
    _sysvar_table_begin                      0x20000034   Data           4  shell.o(.data)
    _sysvar_table_end                        0x20000038   Data           4  shell.o(.data)
    shell                                    0x20000040   Data           4  shell.o(.data)
    rt_interrupt_from_thread                 0x20000048   Data           4  cpuport.o(.data)
    rt_interrupt_to_thread                   0x2000004c   Data           4  cpuport.o(.data)
    rt_thread_switch_interrupt_flag          0x20000050   Data           4  cpuport.o(.data)
    rt_interrupt_nest                        0x20000058   Data           1  irq.o(.data)
    rt_current_priority                      0x200000c4   Data           1  scheduler.o(.data)
    rt_current_thread                        0x200000c8   Data           4  scheduler.o(.data)
    rt_thread_ready_priority_group           0x200000cc   Data           4  scheduler.o(.data)
    rt_thread_defunct                        0x200000d0   Data           8  scheduler.o(.data)
    huart1                                   0x200000e4   Data         128  drv_uart.o(.bss)
    rt_thread_priority_table                 0x20000408   Data          64  scheduler.o(.bss)
    Image$$RW_IRAM1$$ZI$$Limit               0x20000848   Number         0  anon$$obj.o ABSOLUTE
    __initial_sp                             0x20000848   Data           0  startup_stm32l475xx.o(STACK)



==============================================================================

Memory Map of the image

  Image Entry point : 0x08000189

  Load Region LR_IROM1 (Base: 0x08000000, Size: 0x00004dfc, Max: 0x00080000, ABSOLUTE)

    Execution Region ER_IROM1 (Exec base: 0x08000000, Load base: 0x08000000, Size: 0x00004d18, Max: 0x00080000, ABSOLUTE)

    Exec Addr    Load Addr    Size         Type   Attr      Idx    E Section Name        Object

    0x08000000   0x08000000   0x00000188   Data   RO            3    RESET               startup_stm32l475xx.o
    0x08000188   0x08000188   0x00000000   Code   RO         4407  * .ARM.Collect$$$$00000000  mc_w.l(entry.o)
    0x08000188   0x08000188   0x00000004   Code   RO         4436    .ARM.Collect$$$$00000001  mc_w.l(entry2.o)
    0x0800018c   0x0800018c   0x00000004   Code   RO         4439    .ARM.Collect$$$$00000004  mc_w.l(entry5.o)
    0x08000190   0x08000190   0x00000000   Code   RO         4441    .ARM.Collect$$$$00000008  mc_w.l(entry7b.o)
    0x08000190   0x08000190   0x00000000   Code   RO         4443    .ARM.Collect$$$$0000000A  mc_w.l(entry8b.o)
    0x08000190   0x08000190   0x00000008   Code   RO         4444    .ARM.Collect$$$$0000000B  mc_w.l(entry9a.o)
    0x08000198   0x08000198   0x00000000   Code   RO         4446    .ARM.Collect$$$$0000000D  mc_w.l(entry10a.o)
    0x08000198   0x08000198   0x00000000   Code   RO         4448    .ARM.Collect$$$$0000000F  mc_w.l(entry11a.o)
    0x08000198   0x08000198   0x00000004   Code   RO         4437    .ARM.Collect$$$$00002712  mc_w.l(entry2.o)
    0x0800019c   0x0800019c   0x00000024   Code   RO            4    .text               startup_stm32l475xx.o
    0x080001c0   0x080001c0   0x00000140   Code   RO         3406    .text               context_rvds.o
    0x08000300   0x08000300   0x00000068   Code   RO         4410    .text               mc_w.l(uldiv.o)
    0x08000368   0x08000368   0x00000024   Code   RO         4412    .text               mc_w.l(memcpya.o)
    0x0800038c   0x0800038c   0x00000024   Code   RO         4414    .text               mc_w.l(memseta.o)
    0x080003b0   0x080003b0   0x00000018   Code   RO         4416    .text               mc_w.l(strcat.o)
    0x080003c8   0x080003c8   0x00000018   Code   RO         4418    .text               mc_w.l(strncpy.o)
    0x080003e0   0x080003e0   0x0000000e   Code   RO         4420    .text               mc_w.l(strlen.o)
    0x080003ee   0x080003ee   0x00000012   Code   RO         4422    .text               mc_w.l(strcpy.o)
    0x08000400   0x08000400   0x0000001e   Code   RO         4424    .text               mc_w.l(strncmp.o)
    0x0800041e   0x0800041e   0x0000015e   Code   RO         4428    .text               mf_w.l(dadd.o)
    0x0800057c   0x0800057c   0x000000ea   Code   RO         4430    .text               mf_w.l(dmul.o)
    0x08000666   0x08000666   0x0000001a   Code   RO         4432    .text               mf_w.l(dfltui.o)
    0x08000680   0x08000680   0x00000038   Code   RO         4434    .text               mf_w.l(d2f.o)
    0x080006b8   0x080006b8   0x0000001e   Code   RO         4450    .text               mc_w.l(llshl.o)
    0x080006d6   0x080006d6   0x00000020   Code   RO         4452    .text               mc_w.l(llushr.o)
    0x080006f6   0x080006f6   0x00000024   Code   RO         4454    .text               mc_w.l(llsshr.o)
    0x0800071a   0x0800071a   0x00000000   Code   RO         4456    .text               mc_w.l(iusefp.o)
    0x0800071a   0x0800071a   0x0000006e   Code   RO         4457    .text               mf_w.l(fepilogue.o)
    0x08000788   0x08000788   0x000000ba   Code   RO         4459    .text               mf_w.l(depilogue.o)
    0x08000842   0x08000842   0x00000002   PAD
    0x08000844   0x08000844   0x00000024   Code   RO         4461    .text               mc_w.l(init.o)
    0x08000868   0x08000868   0x0000000a   Code   RO         3510    i.$Sub$$main        components.o
    0x08000872   0x08000872   0x00000002   Code   RO          205    i.BusFault_Handler  stm32l4xx_it.o
    0x08000874   0x08000874   0x00000002   Code   RO          206    i.DebugMon_Handler  stm32l4xx_it.o
    0x08000876   0x08000876   0x00000002   PAD
    0x08000878   0x08000878   0x00000266   Code   RO         2361    i.HAL_GPIO_Init     stm32l4xx_hal_gpio.o
    0x08000ade   0x08000ade   0x0000000a   Code   RO         2363    i.HAL_GPIO_ReadPin  stm32l4xx_hal_gpio.o
    0x08000ae8   0x08000ae8   0x0000000a   Code   RO         2365    i.HAL_GPIO_WritePin  stm32l4xx_hal_gpio.o
    0x08000af2   0x08000af2   0x00000002   PAD
    0x08000af4   0x08000af4   0x0000000c   Code   RO         1159    i.HAL_GetTick       stm32l4xx_hal.o
    0x08000b00   0x08000b00   0x00000024   Code   RO         1905    i.HAL_RCC_GetPCLK1Freq  stm32l4xx_hal_rcc.o
    0x08000b24   0x08000b24   0x00000024   Code   RO         1906    i.HAL_RCC_GetPCLK2Freq  stm32l4xx_hal_rcc.o
    0x08000b48   0x08000b48   0x000000a4   Code   RO         1907    i.HAL_RCC_GetSysClockFreq  stm32l4xx_hal_rcc.o
    0x08000bec   0x08000bec   0x00000066   Code   RO          736    i.HAL_UART_Init     stm32l4xx_hal_uart.o
    0x08000c52   0x08000c52   0x00000002   PAD
    0x08000c54   0x08000c54   0x00000064   Code   RO          267    i.HAL_UART_MspInit  stm32l4xx_hal_msp.o
    0x08000cb8   0x08000cb8   0x000000b6   Code   RO          745    i.HAL_UART_Transmit  stm32l4xx_hal_uart.o
    0x08000d6e   0x08000d6e   0x00000002   Code   RO          207    i.MemManage_Handler  stm32l4xx_it.o
    0x08000d70   0x08000d70   0x00000002   Code   RO          208    i.NMI_Handler       stm32l4xx_it.o
    0x08000d72   0x08000d72   0x00000002   Code   RO          209    i.SVC_Handler       stm32l4xx_it.o
    0x08000d74   0x08000d74   0x00000012   Code   RO         4388    i.SysTick_Handler   board.o
    0x08000d86   0x08000d86   0x00000002   PAD
    0x08000d88   0x08000d88   0x000000a8   Code   RO         3110    i.SystemCoreClockUpdate  system_stm32l4xx.o
    0x08000e30   0x08000e30   0x00000044   Code   RO         3111    i.SystemInit        system_stm32l4xx.o
    0x08000e74   0x08000e74   0x000000c8   Code   RO          750    i.UART_AdvFeatureConfig  stm32l4xx_hal_uart.o
    0x08000f3c   0x08000f3c   0x00000058   Code   RO          751    i.UART_CheckIdleState  stm32l4xx_hal_uart.o
    0x08000f94   0x08000f94   0x00000294   Code   RO          766    i.UART_SetConfig    stm32l4xx_hal_uart.o
    0x08001228   0x08001228   0x000000a4   Code   RO          769    i.UART_WaitOnFlagUntilTimeout  stm32l4xx_hal_uart.o
    0x080012cc   0x080012cc   0x00000002   Code   RO          210    i.UsageFault_Handler  stm32l4xx_it.o
    0x080012ce   0x080012ce   0x00000002   PAD
    0x080012d0   0x080012d0   0x00000044   Code   RO         3806    i.__rt_ffs          kservice.o
    0x08001314   0x08001314   0x0000000e   Code   RO         4465    i.__scatterload_copy  mc_w.l(handlers.o)
    0x08001322   0x08001322   0x00000002   Code   RO         4466    i.__scatterload_null  mc_w.l(handlers.o)
    0x08001324   0x08001324   0x0000000e   Code   RO         4467    i.__scatterload_zeroinit  mc_w.l(handlers.o)
    0x08001332   0x08001332   0x00000002   PAD
    0x08001334   0x08001334   0x00000014   Code   RO         3577    i._has_defunct_thread  idle.o
    0x08001348   0x08001348   0x000000a2   Code   RO         3265    i._msh_exec_cmd     msh.o
    0x080013ea   0x080013ea   0x00000002   PAD
    0x080013ec   0x080013ec   0x00000074   Code   RO         4176    i._rt_thread_init   thread.o
    0x08001460   0x08001460   0x0000001c   Code   RO         4296    i._rt_timer_init    timer.o
    0x0800147c   0x0800147c   0x00000012   Code   RO         4297    i._rt_timer_remove  timer.o
    0x0800148e   0x0800148e   0x00000044   Code   RO          301    i.aht10_init        drv_aht10.o
    0x080014d2   0x080014d2   0x00000048   Code   RO          302    i.aht10_read_data   drv_aht10.o
    0x0800151a   0x0800151a   0x00000002   PAD
    0x0800151c   0x0800151c   0x00000070   Code   RO          303    i.aht10_read_humidity  drv_aht10.o
    0x0800158c   0x0800158c   0x00000084   Code   RO          304    i.aht10_read_temperature  drv_aht10.o
    0x08001610   0x08001610   0x00000048   Code   RO           13    i.aht10_thread_entry  main.o
    0x08001658   0x08001658   0x000000f8   Code   RO           14    i.aht10_timeout_entry  main.o
    0x08001750   0x08001750   0x00000048   Code   RO          306    i.aht10_write_data  drv_aht10.o
    0x08001798   0x08001798   0x0000004c   Code   RO           15    i.alarm_thread_entry  main.o
    0x080017e4   0x080017e4   0x00000048   Code   RO          361    i.beep_init         drv_beep.o
    0x0800182c   0x0800182c   0x000000e8   Code   RO         3410    i.bus_fault_track   cpuport.o
    0x08001914   0x08001914   0x0000000a   Code   RO         3266    i.cmd_free          msh.o
    0x0800191e   0x0800191e   0x0000000a   Code   RO         3267    i.cmd_ps            msh.o
    0x08001928   0x08001928   0x00000060   Code   RO         3330    i.finsh_get_prompt  shell.o
    0x08001988   0x08001988   0x00000014   Code   RO         3334    i.finsh_set_prompt_mode  shell.o
    0x0800199c   0x0800199c   0x0000000c   Code   RO         3335    i.finsh_system_function_init  shell.o
    0x080019a8   0x080019a8   0x00000094   Code   RO         3336    i.finsh_system_init  shell.o
    0x08001a3c   0x08001a3c   0x0000028c   Code   RO         3338    i.finsh_thread_entry  shell.o
    0x08001cc8   0x08001cc8   0x00000078   Code   RO         3411    i.hard_fault_track  cpuport.o
    0x08001d40   0x08001d40   0x00000020   Code   RO         3145    i.hello             cmd.o
    0x08001d60   0x08001d60   0x00000054   Code   RO          406    i.iic_ack           drv_iic.o
    0x08001db4   0x08001db4   0x00000078   Code   RO          408    i.iic_init          drv_iic.o
    0x08001e2c   0x08001e2c   0x00000054   Code   RO          409    i.iic_nack          drv_iic.o
    0x08001e80   0x08001e80   0x00000070   Code   RO          410    i.iic_read_byte     drv_iic.o
    0x08001ef0   0x08001ef0   0x00000070   Code   RO          411    i.iic_send_byte     drv_iic.o
    0x08001f60   0x08001f60   0x00000058   Code   RO          412    i.iic_start         drv_iic.o
    0x08001fb8   0x08001fb8   0x00000058   Code   RO          413    i.iic_stop          drv_iic.o
    0x08002010   0x08002010   0x00000068   Code   RO          414    i.iic_wait_ack      drv_iic.o
    0x08002078   0x08002078   0x00000068   Code   RO          487    i.key_init          drv_key.o
    0x080020e0   0x080020e0   0x000000e2   Code   RO          488    i.key_scan          drv_key.o
    0x080021c2   0x080021c2   0x00000002   PAD
    0x080021c4   0x080021c4   0x00000090   Code   RO           16    i.key_thread_entry  main.o
    0x08002254   0x08002254   0x0000005c   Code   RO          521    i.led_init          drv_led.o
    0x080022b0   0x080022b0   0x00000054   Code   RO         3146    i.list              cmd.o
    0x08002304   0x08002304   0x00000130   Code   RO         3147    i.list_event        cmd.o
    0x08002434   0x08002434   0x00000024   Code   RO         3148    i.list_find_init    cmd.o
    0x08002458   0x08002458   0x00000066   Code   RO         3149    i.list_get_next     cmd.o
    0x080024be   0x080024be   0x00000002   PAD
    0x080024c0   0x080024c0   0x00000144   Code   RO         3150    i.list_mailbox      cmd.o
    0x08002604   0x08002604   0x0000006c   Code   RO         3980    i.list_mem          mem.o
    0x08002670   0x08002670   0x0000011c   Code   RO         3151    i.list_sem          cmd.o
    0x0800278c   0x0800278c   0x000001b8   Code   RO         3152    i.list_thread       cmd.o
    0x08002944   0x08002944   0x00000140   Code   RO         3153    i.list_timer        cmd.o
    0x08002a84   0x08002a84   0x0000020c   Code   RO           17    i.main              main.o
    0x08002c90   0x08002c90   0x0000000e   Code   RO         3511    i.main_thread_entry  components.o
    0x08002c9e   0x08002c9e   0x00000002   PAD
    0x08002ca0   0x08002ca0   0x000000d8   Code   RO         3412    i.mem_manage_fault_track  cpuport.o
    0x08002d78   0x08002d78   0x0000001e   Code   RO          584    i.motor_forward     drv_motor.o
    0x08002d96   0x08002d96   0x00000002   PAD
    0x08002d98   0x08002d98   0x00000038   Code   RO          585    i.motor_init        drv_motor.o
    0x08002dd0   0x08002dd0   0x0000001e   Code   RO          587    i.motor_stop        drv_motor.o
    0x08002dee   0x08002dee   0x00000002   PAD
    0x08002df0   0x08002df0   0x000000ac   Code   RO         3268    i.msh_auto_complete  msh.o
    0x08002e9c   0x08002e9c   0x00000064   Code   RO         3269    i.msh_exec          msh.o
    0x08002f00   0x08002f00   0x0000006c   Code   RO         3270    i.msh_help          msh.o
    0x08002f6c   0x08002f6c   0x00000004   Code   RO         3271    i.msh_is_used       msh.o
    0x08002f70   0x08002f70   0x000000d0   Code   RO         3272    i.msh_split         msh.o
    0x08003040   0x08003040   0x00000018   Code   RO         3154    i.object_split      cmd.o
    0x08003058   0x08003058   0x00000054   Code   RO         3981    i.plug_holes        mem.o
    0x080030ac   0x080030ac   0x00000136   Code   RO         3808    i.print_number      kservice.o
    0x080031e2   0x080031e2   0x00000002   PAD
    0x080031e4   0x080031e4   0x0000002c   Code   RO         3512    i.rt_application_init  components.o
    0x08003210   0x08003210   0x0000001a   Code   RO         3982    i.rt_calloc         mem.o
    0x0800322a   0x0800322a   0x00000002   PAD
    0x0800322c   0x0800322c   0x0000001c   Code   RO         3513    i.rt_components_board_init  components.o
    0x08003248   0x08003248   0x0000001c   Code   RO         3514    i.rt_components_init  components.o
    0x08003264   0x08003264   0x0000001c   Code   RO         4115    i.rt_enter_critical  scheduler.o
    0x08003280   0x08003280   0x00000020   Code   RO         3618    i.rt_event_create   ipc.o
    0x080032a0   0x080032a0   0x000000be   Code   RO         3622    i.rt_event_recv     ipc.o
    0x0800335e   0x0800335e   0x00000086   Code   RO         3623    i.rt_event_send     ipc.o
    0x080033e4   0x080033e4   0x00000038   Code   RO         4116    i.rt_exit_critical  scheduler.o
    0x0800341c   0x0800341c   0x000000c4   Code   RO         3983    i.rt_free           mem.o
    0x080034e0   0x080034e0   0x00000050   Code   RO         4389    i.rt_hw_board_init  board.o
    0x08003530   0x08003530   0x00000034   Code   RO          629    i.rt_hw_console_getchar  drv_uart.o
    0x08003564   0x08003564   0x00000048   Code   RO          630    i.rt_hw_console_output  drv_uart.o
    0x080035ac   0x080035ac   0x00000218   Code   RO         3416    i.rt_hw_hard_fault_exception  cpuport.o
    0x080037c4   0x080037c4   0x0000003c   Code   RO         3417    i.rt_hw_stack_init  cpuport.o
    0x08003800   0x08003800   0x00000034   Code   RO          415    i.rt_hw_us_delay    drv_iic.o
    0x08003834   0x08003834   0x0000001c   Code   RO         3779    i.rt_interrupt_enter  irq.o
    0x08003850   0x08003850   0x0000001c   Code   RO         3781    i.rt_interrupt_leave  irq.o
    0x0800386c   0x0800386c   0x00000052   Code   RO         3625    i.rt_ipc_list_suspend  ipc.o
    0x080038be   0x080038be   0x00000002   PAD
    0x080038c0   0x080038c0   0x00000020   Code   RO         3812    i.rt_kprintf        kservice.o
    0x080038e0   0x080038e0   0x0000000e   Code   RO         4039    i.rt_list_insert_after  object.o
    0x080038ee   0x080038ee   0x0000000e   Code   RO         4177    i.rt_list_insert_after  thread.o
    0x080038fc   0x080038fc   0x0000000e   Code   RO         4298    i.rt_list_insert_after  timer.o
    0x0800390a   0x0800390a   0x0000000e   Code   RO         3626    i.rt_list_insert_before  ipc.o
    0x08003918   0x08003918   0x00000012   Code   RO         3155    i.rt_list_len       cmd.o
    0x0800392a   0x0800392a   0x00000012   Code   RO         4040    i.rt_list_remove    object.o
    0x0800393c   0x0800393c   0x00000012   Code   RO         4178    i.rt_list_remove    thread.o
    0x0800394e   0x0800394e   0x00000002   PAD
    0x08003950   0x08003950   0x000000f0   Code   RO         3984    i.rt_malloc         mem.o
    0x08003a40   0x08003a40   0x00000032   Code   RO         3817    i.rt_memmove        kservice.o
    0x08003a72   0x08003a72   0x00000002   PAD
    0x08003a74   0x08003a74   0x00000046   Code   RO         3818    i.rt_memset         kservice.o
    0x08003aba   0x08003aba   0x00000050   Code   RO         4041    i.rt_object_allocate  object.o
    0x08003b0a   0x08003b0a   0x00000026   Code   RO         4042    i.rt_object_delete  object.o
    0x08003b30   0x08003b30   0x00000020   Code   RO         4043    i.rt_object_detach  object.o
    0x08003b50   0x08003b50   0x00000024   Code   RO         4045    i.rt_object_get_information  object.o
    0x08003b74   0x08003b74   0x00000050   Code   RO         4047    i.rt_object_init    object.o
    0x08003bc4   0x08003bc4   0x0000000e   Code   RO         4048    i.rt_object_is_systemobject  object.o
    0x08003bd2   0x08003bd2   0x00000002   PAD
    0x08003bd4   0x08003bd4   0x00000058   Code   RO         4117    i.rt_schedule       scheduler.o
    0x08003c2c   0x08003c2c   0x00000050   Code   RO         4118    i.rt_schedule_insert_thread  scheduler.o
    0x08003c7c   0x08003c7c   0x00000048   Code   RO         4119    i.rt_schedule_remove_thread  scheduler.o
    0x08003cc4   0x08003cc4   0x00000020   Code   RO         3636    i.rt_sem_create     ipc.o
    0x08003ce4   0x08003ce4   0x00000024   Code   RO         3639    i.rt_sem_init       ipc.o
    0x08003d08   0x08003d08   0x00000036   Code   RO         3640    i.rt_sem_release    ipc.o
    0x08003d3e   0x08003d3e   0x0000006e   Code   RO         3641    i.rt_sem_take       ipc.o
    0x08003dac   0x08003dac   0x000000b0   Code   RO         3820    i.rt_show_version   kservice.o
    0x08003e5c   0x08003e5c   0x00000010   Code   RO         3826    i.rt_strlen         kservice.o
    0x08003e6c   0x08003e6c   0x00000026   Code   RO         3828    i.rt_strncpy        kservice.o
    0x08003e92   0x08003e92   0x00000002   PAD
    0x08003e94   0x08003e94   0x000000ac   Code   RO         3987    i.rt_system_heap_init  mem.o
    0x08003f40   0x08003f40   0x00000034   Code   RO         4120    i.rt_system_scheduler_init  scheduler.o
    0x08003f74   0x08003f74   0x00000028   Code   RO         4121    i.rt_system_scheduler_start  scheduler.o
    0x08003f9c   0x08003f9c   0x0000000c   Code   RO         4299    i.rt_system_timer_init  timer.o
    0x08003fa8   0x08003fa8   0x00000002   Code   RO         4300    i.rt_system_timer_thread_init  timer.o
    0x08003faa   0x08003faa   0x00000048   Code   RO         4180    i.rt_thread_create  thread.o
    0x08003ff2   0x08003ff2   0x00000002   PAD
    0x08003ff4   0x08003ff4   0x00000058   Code   RO         4184    i.rt_thread_exit    thread.o
    0x0800404c   0x0800404c   0x00000006   Code   RO         3578    i.rt_thread_idle_entry  idle.o
    0x08004052   0x08004052   0x00000002   PAD
    0x08004054   0x08004054   0x00000078   Code   RO         3579    i.rt_thread_idle_excute  idle.o
    0x080040cc   0x080040cc   0x00000038   Code   RO         3581    i.rt_thread_idle_init  idle.o
    0x08004104   0x08004104   0x00000036   Code   RO         4186    i.rt_thread_init    thread.o
    0x0800413a   0x0800413a   0x0000000e   Code   RO         4187    i.rt_thread_mdelay  thread.o
    0x08004148   0x08004148   0x0000003c   Code   RO         4188    i.rt_thread_resume  thread.o
    0x08004184   0x08004184   0x0000000c   Code   RO         4189    i.rt_thread_self    thread.o
    0x08004190   0x08004190   0x00000040   Code   RO         4190    i.rt_thread_sleep   thread.o
    0x080041d0   0x080041d0   0x0000002c   Code   RO         4191    i.rt_thread_startup  thread.o
    0x080041fc   0x080041fc   0x00000042   Code   RO         4192    i.rt_thread_suspend  thread.o
    0x0800423e   0x0800423e   0x00000020   Code   RO         4193    i.rt_thread_timeout  thread.o
    0x0800425e   0x0800425e   0x00000002   PAD
    0x08004260   0x08004260   0x00000060   Code   RO         4194    i.rt_thread_yield   thread.o
    0x080042c0   0x080042c0   0x00000032   Code   RO         3473    i.rt_tick_from_millisecond  clock.o
    0x080042f2   0x080042f2   0x00000002   PAD
    0x080042f4   0x080042f4   0x0000000c   Code   RO         3474    i.rt_tick_get       clock.o
    0x08004300   0x08004300   0x0000002c   Code   RO         3475    i.rt_tick_increase  clock.o
    0x0800432c   0x0800432c   0x00000068   Code   RO         4301    i.rt_timer_check    timer.o
    0x08004394   0x08004394   0x00000030   Code   RO         4302    i.rt_timer_control  timer.o
    0x080043c4   0x080043c4   0x0000002e   Code   RO         4303    i.rt_timer_create   timer.o
    0x080043f2   0x080043f2   0x00000020   Code   RO         4305    i.rt_timer_detach   timer.o
    0x08004412   0x08004412   0x00000028   Code   RO         4306    i.rt_timer_init     timer.o
    0x0800443a   0x0800443a   0x00000002   PAD
    0x0800443c   0x0800443c   0x0000008c   Code   RO         4308    i.rt_timer_start    timer.o
    0x080044c8   0x080044c8   0x0000002e   Code   RO         4309    i.rt_timer_stop     timer.o
    0x080044f6   0x080044f6   0x00000002   PAD
    0x080044f8   0x080044f8   0x00000282   Code   RO         3831    i.rt_vsnprintf      kservice.o
    0x0800477a   0x0800477a   0x00000004   Code   RO         3515    i.rti_board_end     components.o
    0x0800477e   0x0800477e   0x00000004   Code   RO         3516    i.rti_board_start   components.o
    0x08004782   0x08004782   0x00000004   Code   RO         3517    i.rti_end           components.o
    0x08004786   0x08004786   0x00000004   Code   RO         3518    i.rti_start         components.o
    0x0800478a   0x0800478a   0x0000002a   Code   RO         3519    i.rtthread_startup  components.o
    0x080047b4   0x080047b4   0x00000030   Code   RO         3156    i.show_wait_queue   cmd.o
    0x080047e4   0x080047e4   0x00000028   Code   RO         3833    i.skip_atoi         kservice.o
    0x0800480c   0x0800480c   0x00000038   Code   RO           18    i.stop_alarm_thread_entry  main.o
    0x08004844   0x08004844   0x00000010   Code   RO          523    i.turn_off_led_g    drv_led.o
    0x08004854   0x08004854   0x00000010   Code   RO          524    i.turn_off_led_r    drv_led.o
    0x08004864   0x08004864   0x00000010   Code   RO          526    i.turn_on_led_g     drv_led.o
    0x08004874   0x08004874   0x00000010   Code   RO          527    i.turn_on_led_r     drv_led.o
    0x08004884   0x08004884   0x00000050   Code   RO          631    i.uart_init         drv_uart.o
    0x080048d4   0x080048d4   0x000000d0   Code   RO         3418    i.usage_fault_track  cpuport.o
    0x080049a4   0x080049a4   0x0000000a   Code   RO         3157    i.version           cmd.o
    0x080049ae   0x080049ae   0x00000002   PAD
    0x080049b0   0x080049b0   0x00000040   Data   RO         3112    .constdata          system_stm32l4xx.o
    0x080049f0   0x080049f0   0x00000008   Data   RO         3113    .constdata          system_stm32l4xx.o
    0x080049f8   0x080049f8   0x00000006   Data   RO         3158    .constdata          cmd.o
    0x080049fe   0x080049fe   0x00000008   Data   RO         3159    .constdata          cmd.o
    0x08004a06   0x08004a06   0x0000000e   Data   RO         3160    .constdata          cmd.o
    0x08004a14   0x08004a14   0x0000000c   Data   RO         3161    .constdata          cmd.o
    0x08004a20   0x08004a20   0x00000012   Data   RO         3162    .constdata          cmd.o
    0x08004a32   0x08004a32   0x00000009   Data   RO         3163    .constdata          cmd.o
    0x08004a3b   0x08004a3b   0x0000000f   Data   RO         3164    .constdata          cmd.o
    0x08004a4a   0x08004a4a   0x0000000b   Data   RO         3165    .constdata          cmd.o
    0x08004a55   0x08004a55   0x00000011   Data   RO         3166    .constdata          cmd.o
    0x08004a66   0x08004a66   0x0000000d   Data   RO         3167    .constdata          cmd.o
    0x08004a73   0x08004a73   0x00000013   Data   RO         3168    .constdata          cmd.o
    0x08004a86   0x08004a86   0x0000000b   Data   RO         3169    .constdata          cmd.o
    0x08004a91   0x08004a91   0x00000011   Data   RO         3170    .constdata          cmd.o
    0x08004aa2   0x08004aa2   0x00000005   Data   RO         3171    .constdata          cmd.o
    0x08004aa7   0x08004aa7   0x0000000b   Data   RO         3273    .constdata          msh.o
    0x08004ab2   0x08004ab2   0x00000009   Data   RO         3274    .constdata          msh.o
    0x08004abb   0x08004abb   0x0000000b   Data   RO         3275    .constdata          msh.o
    0x08004ac6   0x08004ac6   0x00000122   Data   RO         3835    .constdata          kservice.o
    0x08004be8   0x08004be8   0x00000009   Data   RO         3989    .constdata          mem.o
    0x08004bf1   0x08004bf1   0x00000003   PAD
    0x08004bf4   0x08004bf4   0x00000044   Data   RO         3172    .conststring        cmd.o
    0x08004c38   0x08004c38   0x00000004   Data   RO         3520    .rti_fn.0           components.o
    0x08004c3c   0x08004c3c   0x00000004   Data   RO         3521    .rti_fn.0.end       components.o
    0x08004c40   0x08004c40   0x00000004   Data   RO          307    .rti_fn.1           drv_aht10.o
    0x08004c44   0x08004c44   0x00000004   Data   RO          365    .rti_fn.1           drv_beep.o
    0x08004c48   0x08004c48   0x00000004   Data   RO          416    .rti_fn.1           drv_iic.o
    0x08004c4c   0x08004c4c   0x00000004   Data   RO          490    .rti_fn.1           drv_key.o
    0x08004c50   0x08004c50   0x00000004   Data   RO          528    .rti_fn.1           drv_led.o
    0x08004c54   0x08004c54   0x00000004   Data   RO          588    .rti_fn.1           drv_motor.o
    0x08004c58   0x08004c58   0x00000004   Data   RO          633    .rti_fn.1           drv_uart.o
    0x08004c5c   0x08004c5c   0x00000004   Data   RO         3522    .rti_fn.1.end       components.o
    0x08004c60   0x08004c60   0x00000004   Data   RO         3341    .rti_fn.6           shell.o
    0x08004c64   0x08004c64   0x00000004   Data   RO         3523    .rti_fn.6.end       components.o
    0x08004c68   0x08004c68   0x00000070   Data   RO         3173    FSymTab             cmd.o
    0x08004cd8   0x08004cd8   0x00000018   Data   RO         3276    FSymTab             msh.o
    0x08004cf0   0x08004cf0   0x00000008   Data   RO         3991    FSymTab             mem.o
    0x08004cf8   0x08004cf8   0x00000020   Data   RO         4463    Region$$Table       anon$$obj.o


    Execution Region RW_IRAM2 (Exec base: 0x10000000, Load base: 0x08004dfc, Size: 0x00000000, Max: 0x00008000, ABSOLUTE)

    **** No section assigned to this execution region ****


    Execution Region RW_IRAM1 (Exec base: 0x20000000, Load base: 0x08004d18, Size: 0x00000848, Max: 0x00018000, ABSOLUTE)

    Exec Addr    Load Addr    Size         Type   Attr      Idx    E Section Name        Object

    0x20000000   0x08004d18   0x00000018   Data   RW           19    .data               main.o
    0x20000018   0x08004d30   0x00000001   Data   RW          489    .data               drv_key.o
    0x20000019   0x08004d31   0x00000003   PAD
    0x2000001c   0x08004d34   0x0000000c   Data   RW         1183    .data               stm32l4xx_hal.o
    0x20000028   0x08004d40   0x00000004   Data   RW         3114    .data               system_stm32l4xx.o
    0x2000002c   0x08004d44   0x00000018   Data   RW         3340    .data               shell.o
    0x20000044   0x08004d5c   0x00000004   Data   RW         3419    .data               cpuport.o
    0x20000048   0x08004d60   0x00000004   Data   RW         3420    .data               cpuport.o
    0x2000004c   0x08004d64   0x00000004   Data   RW         3421    .data               cpuport.o
    0x20000050   0x08004d68   0x00000004   Data   RW         3422    .data               cpuport.o
    0x20000054   0x08004d6c   0x00000004   Data   RW         3477    .data               clock.o
    0x20000058   0x08004d70   0x00000001   Data   RW         3782    .data               irq.o
    0x20000059   0x08004d71   0x00000003   PAD
    0x2000005c   0x08004d74   0x00000018   Data   RW         3990    .data               mem.o
    0x20000074   0x08004d8c   0x00000050   Data   RW         4050    .data               object.o
    0x200000c4   0x08004ddc   0x00000014   Data   RW         4123    .data               scheduler.o
    0x200000d8   0x08004df0   0x0000000c   Data   RW         4310    .data               timer.o
    0x200000e4        -       0x00000080   Zero   RW          632    .bss                drv_uart.o
    0x20000164        -       0x00000081   Zero   RW         3339    .bss                shell.o
    0x200001e5   0x08004dfc   0x00000003   PAD
    0x200001e8        -       0x00000180   Zero   RW         3582    .bss                idle.o
    0x20000368        -       0x00000080   Zero   RW         3834    .bss                kservice.o
    0x200003e8        -       0x00000020   Zero   RW         3988    .bss                mem.o
    0x20000408        -       0x00000040   Zero   RW         4122    .bss                scheduler.o
    0x20000448        -       0x00000400   Zero   RW            1    STACK               startup_stm32l475xx.o


==============================================================================

Image component sizes


      Code (inc. data)   RO Data    RW Data    ZI Data      Debug   Object Name

        98         18          0          0          0       2082   board.o
       106         12          0          4          0       1904   clock.o
      2026        762        355          0          0      15773   cmd.o
       182         30         16          0          0       6206   components.o
       320         26          0          0          0        900   context_rvds.o
      1372        736          0         16          0       6702   cpuport.o
       456         42          4          0          0       3952   drv_aht10.o
        72         10          4          0          0       1126   drv_beep.o
       844         84          4          0          0       6292   drv_iic.o
       330         24          4          1          0       1951   drv_key.o
       156         30          4          0          0       2898   drv_led.o
       116          4          4          0          0       2097   drv_motor.o
       204         40          4          0        128       2292   drv_uart.o
       202         26          0          0        384       5702   idle.o
       684          0          0          0          0      10623   ipc.o
        56         12          0          1          0       1666   irq.o
      1442        158        290          0        128      11301   kservice.o
      1120        516          0         24          0     773789   main.o
       826        248         17         24         32       5446   mem.o
       774        152         55          0          0       8549   msh.o
       312          6          0         80          0       8688   object.o
       416         56          0         20         64       8438   scheduler.o
       928        136          4         24        129       9376   shell.o
        36          8        392          0       1024        836   startup_stm32l475xx.o
        12          6          0         12          0       1861   stm32l4xx_hal.o
       634         38          0          0          0       3343   stm32l4xx_hal_gpio.o
       100          8          0          0          0        991   stm32l4xx_hal_msp.o
       236         38          0          0          0       3122   stm32l4xx_hal_rcc.o
      1396         68          0          0          0       6585   stm32l4xx_hal_uart.o
        12          0          0          0          0       2735   stm32l4xx_it.o
       236         28         72          4          0       2005   system_stm32l4xx.o
       750         42          0          0          0      12457   thread.o
       530         14          0         12          0      11570   timer.o

    ----------------------------------------------------------------------
     17036       3378       1264        228       1892     943258   Object Totals
         0          0         32          0          0          0   (incl. Generated)
        52          0          3          6          3          0   (incl. Padding)

    ----------------------------------------------------------------------

      Code (inc. data)   RO Data    RW Data    ZI Data      Debug   Library Member Name

         0          0          0          0          0          0   entry.o
         0          0          0          0          0          0   entry10a.o
         0          0          0          0          0          0   entry11a.o
         8          4          0          0          0          0   entry2.o
         4          0          0          0          0          0   entry5.o
         0          0          0          0          0          0   entry7b.o
         0          0          0          0          0          0   entry8b.o
         8          4          0          0          0          0   entry9a.o
        30          0          0          0          0          0   handlers.o
        36          8          0          0          0         68   init.o
         0          0          0          0          0          0   iusefp.o
        30          0          0          0          0         68   llshl.o
        36          0          0          0          0         68   llsshr.o
        32          0          0          0          0         68   llushr.o
        36          0          0          0          0         68   memcpya.o
        36          0          0          0          0        108   memseta.o
        24          0          0          0          0         68   strcat.o
        18          0          0          0          0         68   strcpy.o
        14          0          0          0          0         68   strlen.o
        30          0          0          0          0         80   strncmp.o
        24          0          0          0          0         76   strncpy.o
       104          0          0          0          0         92   uldiv.o
        56          0          0          0          0         88   d2f.o
       350          0          0          0          0        148   dadd.o
       186          0          0          0          0        176   depilogue.o
        26          0          0          0          0         76   dfltui.o
       234          0          0          0          0         96   dmul.o
       110          0          0          0          0        168   fepilogue.o

    ----------------------------------------------------------------------
      1436         16          0          0          0       1652   Library Totals
         4          0          0          0          0          0   (incl. Padding)

    ----------------------------------------------------------------------

      Code (inc. data)   RO Data    RW Data    ZI Data      Debug   Library Name

       470         16          0          0          0        900   mc_w.l
       962          0          0          0          0        752   mf_w.l

    ----------------------------------------------------------------------
      1436         16          0          0          0       1652   Library Totals

    ----------------------------------------------------------------------

==============================================================================


      Code (inc. data)   RO Data    RW Data    ZI Data      Debug   

     18472       3394       1264        228       1892     927434   Grand Totals
     18472       3394       1264        228       1892     927434   ELF Image Totals
     18472       3394       1264        228          0          0   ROM Totals

==============================================================================

    Total RO  Size (Code + RO Data)                19736 (  19.27kB)
    Total RW  Size (RW Data + ZI Data)              2120 (   2.07kB)
    Total ROM Size (Code + RO Data + RW Data)      19964 (  19.50kB)

==============================================================================

