:020000040800F2
:10000000480800209D010008710D0008A3020008A7
:100010006F0D000873080008CD12000800000000F2
:10002000000000000000000000000000730D000848
:100030007508000800000000EF010008750D0008B9
:10004000B7010008B7010008B7010008B7010008B0
:10005000B7010008B7010008B7010008B7010008A0
:10006000B7010008B7010008B7010008B701000890
:10007000B7010008B7010008B7010008B701000880
:10008000B7010008B7010008B7010008B701000870
:10009000B7010008B7010008B7010008B701000860
:1000A000B7010008B7010008B7010008B701000850
:1000B000B7010008B7010008B7010008B701000840
:1000C000B7010008B7010008B7010008B701000830
:1000D000B7010008B7010008B7010008B701000820
:1000E000B7010008B7010008B7010008B701000810
:1000F000B7010008B7010008B7010008B701000800
:10010000B7010008B7010008B7010008B7010008EF
:10011000B7010008B7010008B7010008B7010008DF
:10012000B7010008B7010008B7010008B7010008CF
:10013000B7010008B7010008B7010008B7010008BF
:10014000B7010008B7010008B7010008B7010008AF
:10015000B7010008B7010008B7010008B70100089F
:10016000B7010008B7010008B7010008B70100088F
:10017000B7010008B70100080000000000000000FF
:10018000B7010008B7010008DFF80CD000F05AFBF7
:1001900000480047690800084808002006488047D2
:1001A00006480047FEE7FEE7FEE7FEE7FEE7FEE75C
:1001B000FEE7FEE7FEE7FEE7310E000889010008D2
:1001C000EFF3108072B6704780F310887047434A8F
:1001D0001368012B04D04FF001031360404A1060F4
:1001E000404A116040484FF0805101607047EFF382
:1001F000108272B63948016851B34FF000010160B6
:100200003748016891B1EFF309811EF0100F08BF64
:1002100021ED108B21E9F00F4FF000041EF0100FBC
:1002200008BF012441F8044D006801602D490968A8
:10023000096808C9B1E8F00F002B18BF00F05AB8E0
:1002400081F309884EF0100E002B18BF2EF0100E0F
:1002500082F310884EF0040E704722490860EFF3D5
:10026000148222F0040282F314881D494FF000002A
:1002700008601A494FF0010008601C484FF47F01E4
:10028000D0F8002041EA0201016017484FF0805188
:10029000016017480068006880F3088861B662B69C
:1002A00070471EF0040F0CBFEFF30880EFF30980D6
:1002B00020E9F00F40F804ED40F804ED1EF0040FC3
:1002C0000CBF80F3088880F3098800B503F06EF94D
:1002D0005DF804EB4EF0040E704700005000002063
:1002E000480000204C00002004ED00E020ED00E07C
:1002F00008ED00E0B1EC088BB1EC08CBFFF7A0BF34
:100300002DE9F05F0546002092469B46884606464A
:10031000814640241BE0284641464746224600F0DD
:10032000DAF953465A46C01A914110D3114618467D
:10033000224600F0C1F92D1A67EB01084F4622460C
:100340000120002100F0B8F917EB00094E41201EF2
:10035000A4F10104DFDC484631462A46434600F05A
:1003600000B830BCBDE8C09F40EA01039B0703D042
:1003700009E008C9121F08C0042AFAD203E011F8E4
:10038000013B00F8013B521EF9D27047D2B201E0A6
:1003900000F8012B491EFBD270470022F6E710B58A
:1003A00013460A4604461946FFF7F0FF204610BDE3
:1003B000421E12F8013F002BFBD111F8013B02F85D
:1003C000013B002BF9D1704710B5044604E00B78CF
:1003D00000F8013B03B1491C521EF8D2204610BD63
:1003E000421C10F8011B0029FBD1801A70470346FC
:1003F00011F8012B00F8012B002AF9D1184670479B
:1004000030B505460020034600E05B1C934205D250
:10041000EC5CC85C201A01D1002CF6D130BD2DE96E
:10042000FE4F804681EA0300C00F0C46009021F089
:10043000004123F00045B8EB0200A94105D2404637
:10044000214690461C460B46024623F000401043CE
:1004500047D0270DC7F30A00C3F30A510290401A90
:10046000019040286BDAC3F3130040F4801B00981E
:10047000924620B10023D2EB030A63EB0B0B0198E9
:100480005946C0F14002504600F016F906460D46A6
:1004900050465946019A00F02EF910EB08006141D0
:1004A000002487EA115284EAE7731A4340D0009A85
:1004B00062B3019A012A4FEA075215DC001B61EB77
:1004C00002014FF0004202EA0752CDE90042001C4F
:1004D00041F5801132462B4600F065F903B000F07B
:1004E00045B840462146F9E7001B61EB0201001CBC
:1004F00041F5801300185B412018A2F5001747EB67
:10050000030140EAD570B6196D4111E06D084FEA5C
:10051000360645EAC0754FEA0752001B61EB02013F
:10052000001C41F5801149084FEA30000019514183
:1005300032462B4603B000F01CB800F025B90098F5
:10054000012240000023D0EB020263EBE07300982D
:1005500021464FEAE074B8EB000061EB0401E9E7E3
:1005600083F000435BE781F0004158E730BCBDE811
:10057000C08F30BCBDE8C04FFFF7DFBF2DE9FE4F95
:1005800081EA030404F0004421F0004100944FF09C
:10059000000B23F0004350EA01045ED052EA03044A
:1005A0005BD0C3F30A54C1F30A552C44A4F2F334CC
:1005B0000194A0FB0254C1F3130141F48011C3F371
:1005C000130343F4801301FB024400FB034E840A2F
:1005D000970A44EA815447EA8357A4FB07680295C7
:1005E0008D0A05FB07854FEA932C04FB0C54270565
:1005F000029D4FEA065847EA1637B5EB08056EEB41
:10060000070C870E920E47EA811742EA8312A7FB76
:100610000201B6EB0B0164EB00042B0D43EA0C3333
:100620005E1844EB1C50DA465146E7FB0201C5F365
:1006300013044FEA0B3343EA14534FEA0432019C8C
:1006400043EA0603A4F10C040294009CCDE900B433
:1006500000F0A9F803B000F003B800200146F9E764
:1006600030BCBDE8C08F0EB540F23341029100218D
:10067000CDE900110A460B4600F095F803B000BD25
:1006800001F0004330B421F0004150EA010206D0ED
:100690000A0DA2F56072C1F31301002A02DC30BC1E
:1006A00000207047440F44EAC104C100E01830BC88
:1006B00000EBC25000F031B8202A04DB203A00FAE7
:1006C00002F1002070479140C2F1200320FA03F3A9
:1006D000194390407047202A04DB203A21FA02F0A7
:1006E0000021704721FA02F3D040C2F1200291406C
:1006F000084319467047202A06DBCB17203A41FAF7
:1007000002F043EAE07306E041FA02F3D040C2F19E
:10071000200291400843194670470029A8BF70473E
:10072000401C490008BF20F00100704710B4B0FA27
:1007300080FC00FA0CF050EA010404BF10BC7047C2
:1007400049B1CCF1200421FA04F411FA0CF118BFDC
:10075000012121430843A3EB0C01CB1D4FEA0061AB
:100760004FEA102042BF002010BC704700EBC3507E
:1007700010440029A4BF10BC7047401C490008BFAA
:1007800020F0010010BC704710B5141E73F1000476
:1007900008DA401C41F1000192185B411A4301D173
:1007A00020F0010010BD2DE9F04D92469B4611B19D
:1007B000B1FA81F202E0B0FA80F220329046FFF7FF
:1007C0007BFF04460F4640EA0A0041EA0B0153460C
:1007D0005A46084313D0114653EA010019D0C8F114
:1007E00040025046FFF777FF05460E4650465946F1
:1007F0004246FFF761FF084305D0012004E0204690
:100800003946BDE8F08D0020054346EAE0762C43EA
:1008100037430A986305E40AA0EB08000022FD0AAA
:1008200044EA47540A3002D500200146E9E70105B1
:1008300010196941DDE9084500196941BDE8F04D2D
:10084000A2E70000064C074D06E0E06840F0010317
:1008500094E8070098471034AC42F6D3FFF798FCB1
:10086000F84C0008184D000810B503F08EFF00206A
:1008700010BDFEE7704700002DE9F04FDFF834921D
:10088000002309F1040A012403250AF1040B87B0AF
:100890000F270BF1040E04E104FA03F632407CD07A
:1008A000D1F804C0BCF1010F08D0BCF1020F05D093
:1008B000BCF1110F02D0BCF1120F29D1D0F808C041
:1008C000CDF800C04FEA430C05FA0CF8CDF80CC087
:1008D000DDF800C02CEA080CCDF800C0D1F80C807F
:1008E000DDF80CC008FA0CF8DDF800C048EA0C0886
:1008F000C0F80880D0F8048091F804C028EA0608FF
:10090000CCF3001C0CFA03FC4CEA080CC0F804C041
:10091000D1F804806FEA080C5FEA8C7C09D1D0F82A
:100920002CC02CEA060CC8F3C0069E4046EA0C0612
:10093000C662D0F80CC04FEA430805FA08F62CEA64
:10094000060CCDF8148002968E6806FA08F646EA80
:100950000C06C6604E68022E01D0122E15D1DE089C
:1009600000EB86060396366A4FEA437C4FEADC6862
:1009700007FA08FC26EA0C06D1F810C00CFA08FCAD
:100980004CEA060C039EC6F820C00668DDF808C0D5
:1009900026EA0C0691F804C000E081E0DDF814803E
:1009A0000CF0030C0CFA08FC4CEA060CC0F800C072
:1009B0004E68F60074D5404ED6F860C04CF0010C7D
:1009C000C6F860C0366E23F0030C06F001060096F0
:1009D0003A4E66440296D6F808C09E074FEA16784B
:1009E00007FA08F62CEA060CB0F1904F04D0344E0A
:1009F000B04203D101261BE0002619E0314EB0427F
:100A000001D1022614E0304EB04201D103260FE09E
:100A10002E4EB04201D104260AE02D4EB04201D143
:100A2000052605E02B4EB04201D1062600E0072640
:100A300006FA08F646EA0C06DDF808C0CCF80860AD
:100A4000D9F80060CC46D1F8048096435FEAC838F4
:100A500000D51643CCF80060DAF80060D446D1F82F
:100A6000048096435FEA883800D51643CCF80060CE
:100A7000DBF80060DC46D1F8048096435FEAC828C2
:100A800000D51643CCF80060DEF80060F446D1F8DB
:100A9000048096435FEA882800D51643CCF80060AE
:100AA0005B1C0A6832FA03F67FF4F6AE07B000F07A
:100AB00013B8000000040140001002400000014093
:100AC0000004004800080048000C004800100048DE
:100AD000001400480018004830BCBDE8C08F006911
:100AE000084000D0012070470AB1816170478162DF
:100AF0007047000001488068704700001C0000201B
:100B00000548064900688968054AC1F30221515C1D
:100B100001F01F01C840704728000020001002406B
:100B2000F04900080548064900688968054AC1F38C
:100B3000C221515C01F01F01C8407047280000200D
:100B400000100240F049000870B5254900231846FE
:100B50008A68CC6812F00C0204F00306214C4FEABC
:100B6000640509D00C2A05D0042A32D0082A00D105
:100B7000284670BD012E10D10B681B0704D4D1F894
:100B80009430C3F3032302E00B68C3F30313164E40
:100B900056F82330DAB10C2AEBD1C86800F0030014
:100BA000022818D0032818D01846CA68CB68C2F3A8
:100BB0000212C3F306234343521CB3FBF2F2C8688C
:100BC000C0F34160401C4000B2FBF0F070BD18461D
:100BD00070BD204670BD2046E7E72846E5E70000E7
:100BE000001002400024F400C049000810B50400C1
:100BF00002D0606F10B107E0012010BD002084F822
:100C00007000204600F026F8242060672068016804
:100C100021F001010160204600F0BCF90128ECD070
:100C2000606A10B1204600F025F92068416821F47F
:100C3000904141602068816821F02A01816020682C
:100C4000016841F0010101602046BDE8104000F05C
:100C500075B9000010B586B0044614216846FFF748
:100C60009CFB13492068884220D11248016E41F450
:100C700080410166016E01F480410591C16C41F033
:100C80000101C164C06C694600F0010005904FF499
:100C9000C060009002200190002002900320039089
:100CA000072004904FF09040FFF7E6FD06B010BD1E
:100CB00000380140001002402DE9F8430446406F1F
:100CC0001F4616460D4620284FD1CDB1C6B194F827
:100CD0007000012849D0012084F870004FF000080E
:100CE000C4F87C8021206067FFF704FFA4F85060FF
:100CF0008146A4F85260A068B0F5805F03D004E09C
:100D00000120BDE8F883206928B12E465FF0000578
:100D100084F8708010E00026FAE78021204600F079
:100D200083FAB8B9C6B116F8010B21680885B4F882
:100D30005200401EA4F85200B4F852004B464FF047
:100D4000000200970028E8D14FF04001204600F053
:100D50006BFA30B10320D4E735F8020BC0F308007A
:100D6000E3E7202060670020CBE70220C9E7FEE729
:100D70007047704710B502F05DFD03F0C1FABDE8A1
:100D8000104002F065BD000070B5254908680007F5
:100D900004D4D1F89400C0F3032002E00868C0F343
:100DA0000310204A52F82030886810F00C021E48C8
:100DB00007D01E4C042A06D06510082A05D00C2A3C
:100DC00005D003601CE004601AE0056018E0CA6802
:100DD00002F00306CA68C2F30212521C022E19D096
:100DE000032E1AD0B3FBF2F2CB68C3F306235343AE
:100DF000CA68C2F34162521C5200B3FBF2F20260B5
:100E00008968084AC1F30311103A515C0268CA406C
:100E1000026070BDB4FBF2F2E6E7B5FBF2F2E3E785
:100E200000100240C0490008280000200024F400FF
:100E30000D48016841F4700101600C48016841F0FF
:100E400001010160002181600268094B1A400260C3
:100E50008214C260026822F4802202608161024929
:100E6000C00380390860704788ED00E00010024040
:100E7000FFFFF6EA90F82410C90706D001684A6817
:100E8000836A22F400321A434A6090F824108907DA
:100E900006D501684A68C36A22F480321A434A6060
:100EA00090F82410490706D501684A68036B22F4BC
:100EB00080221A434A6090F82410090706D5016879
:100EC0004A68436B22F400421A434A6090F82410A7
:100ED000C90606D501688A68836B22F480521A43DA
:100EE0008A6090F82410890606D501688A68C36B69
:100EF00022F400521A438A6090F82410490611D552
:100F000001684A68036C22F480121A434A60016C3B
:100F1000B1F5801F06D101684A68436C22F4C00213
:100F20001A434A6090F82410090606D501684A68F9
:100F3000806C22F4002202434A607047F8B5002614
:100F40000446C667FFF7D6FD0546206800686FF0C7
:100F50007E47000708D52B4600224FF4001120469B
:100F6000009700F061F960B92068006840070AD571
:100F70002B4600224FF480012046009700F054F9E0
:100F800008B10320F8BD20206067A06784F8706076
:100F90000020F8BD2DE9F0410546016880682B6905
:100FA000EC6918436B69002723431843924A0B6886
:100FB000924C234003430B6028684168EB6821F49E
:100FC0004051194341602968A869914201D02B6AB8
:100FD00018438B6823F4306303438B60884B296884
:100FE000884899420DD1D0F8880010F0030006D04F
:100FF000012868D0022864D0032851D165E001247B
:101000004FE0814B99420BD1D0F8880010F00C00D2
:1010100055D0042857D0082853D00C2840D154E08C
:101020007A4B99420BD1D0F8880010F0300046D0AE
:10103000102848D0202844D0302831D145E0744BC6
:1010400099420BD1D0F8880010F0C00037D040286A
:1010500039D0802835D0C02822D136E06D4B994256
:101060000ED1D0F8880010F4407028D0B0F5807F01
:1010700029D0B0F5007F24D0B0F5407F10D124E016
:1010800091420DD1D0F8880010F4406017D0B0F52F
:10109000806F18D0B0F5006F13D0B0F5406F14D04A
:1010A00010245D4B00264FF40040914245D174B1AD
:1010B000022C0FD0042C0FD0082C18D10FE00024E4
:1010C000EFE70224EDE70424EBE70824E9E7FFF764
:1010D00017FD03E0184602E0FFF736FDA8B36A6883
:1010E00002EB4201814202D8B0EB023F01D9012755
:1010F0006FE0DFF828815CB1022C0CD0042C13D0F7
:10110000082CF4D150082105401846F1000105E0F3
:10111000FFF7F6FC0AE050084149F5E70023FFF726
:10112000EFF8A0F5407150E0FFF70EFD6A68010E80
:101130000302500818187141F0E7E9694FF6EF789B
:1011400081422FD1092CD2D200E042E0DFE804F046
:1011500006092005230505052600C8E7FFF7D0FC92
:1011600001E0FFF7DFFC4100D5F8040001EB50017E
:10117000B1FBF0F080B2A0F110014145B7D84FF6B5
:10118000F0710140C0F3420001432868C16020E0D3
:1011900024496868EAE7FFF7D7FCE4E74FF48031B9
:1011A0006868E3E7092CA2D2DFE804F00609180515
:1011B0001E05050520009AE7FFF7A2FC16E0FFF7E1
:1011C000B1FC13E080B2A0F1100141458FD829682D
:1011D000C8602E6638466E66BDE8F081686803EB2D
:1011E0005001B1FBF0F0EDE7FFF7AEFC696800EBF2
:1011F0005100B0FBF1F0E5E700800040F369FFEF3C
:101200000038014000100240004400400048004007
:10121000004C0040005000400024F400FFFC0F0090
:10122000000024F40048E8012DE9F0479A461746EB
:101230000E4604464FF000094FF02008089D39E0A3
:10124000681C37D0FFF756FCA0EB0A00A84222D852
:101250000DB32068016849072CD5C069C04300055B
:1012600028D421684FF4006008622068016821F4E6
:10127000D07101602068816821F001018160C4F8AB
:101280007480C4F87880C4F87C8000BF84F87090C3
:101290000320BDE8F0872068016821F4D071016067
:1012A0002068816821F001018160C4F87480C4F86D
:1012B0007880EBE72068C06936EA000004D000209F
:1012C000B842BDD00020E4E70120F9E7FEE70000C6
:1012D000002807D00E4910F0FF0F04D051FA80F01B
:1012E0000078401C704710F47F4F04D0C0F30720F3
:1012F000085C0930704710F47F0F04D0C0F307403A
:10130000085C1130704701EB1060007819307047AD
:10131000C64A000802E008C8121F08C1002AFAD114
:1013200070477047002001E001C1121F002AFBD165
:101330007047000003480168814201D001207047D6
:1013400000207047D00000202DE9F04F89B0924670
:101350008B460646002400E0641C305D202803D044
:10136000092801D05C45F7D34FF0FF387CB319480A
:1013700004F10609184F056811E0062217A1286834
:10138000FFF73EF850B9286822463146801DFFF726
:1013900037F818B9296811F8090020B108353868FC
:1013A0008542EAD314E06C688CB120216846FEF7D0
:1013B000F4FF6A465946304601F0DAFD38B1694615
:1013C000A047CAF80000002009B000F00BB8FFE702
:1013D0004046F9E72C000020300000205F5F636D7D
:1013E000645F000030BCBDE8C08F00002DE9FC4107
:1013F0001F460446DDE90831DDE90A651430406026
:101400000060C4E90827C4E90A310A4623211846C6
:101410001C3402F02FFBD4E903014218D4E9010186
:101420000D4B121F02F0CEF92060A67666760020E2
:10143000A562E061E56260612076E06520661C3CA3
:10144000009023460190054A194604F14C0002F031
:10145000E0FF0020BDE8FC81F53F00083F420008A6
:1014600010B5029C24F001044472C0E90712002167
:10147000C0E9093114304060006010BDF0E9051288
:101480004A60D0E90012116040600060704738B5D2
:101490000024009400F08EFC02226946A82000F08F
:1014A00057F978B94FF49675284602F046FE0820A1
:1014B0008DF800008DF8014002226946E12000F01D
:1014C00047F908B1012038BD284602F036FE002059
:1014D00038BD2DE9F0410D46064600F041FD712072
:1014E00000F006FD00F094FD20B100F065FD012044
:1014F000BDE8F08100246F1E09E0BC4201D100204C
:1015000000E0012000F0BCFC3055641CE4B2AC42A9
:10151000F3D300F051FD0020EAE700000EB50020F3
:101520000290022202A9AC2000F012F920B9062193
:101530006846FFF7CEFF10B1B7EE000A0EBD9DF86A
:1015400001009DF80210000340EA01109DF803100D
:1015500001F0F0010843FFF786F89FED081B53ECFC
:10156000112BFFF70BF89FED071B53EC112BFFF727
:1015700005F8FFF785F800EE100A0EBD0000000028
:1015800000005940000000000000B03E1FB50020E0
:101590000390022203A9AC2000F0DAF820B906215A
:1015A0006846FFF796FF10B1B7EE000A1FBD9DF821
:1015B00003009DF804100007000B40EA01209DF88D
:1015C00005100843FFF74FF89FED0B1B53EC112B51
:1015D000FEF7D4FF9FED0A1B53EC112BFEF7CEFF55
:1015E0009FED091B53EC112BFEF7BAFFFFF748F8EC
:1015F00000EE100A1FBD000000000000000069405E
:10160000000000000000B03E000000000000494063
:101610004FF084460E4D0F4CFFF7B8FF84ED040ADF
:10162000FFF77CFF84ED050A2069B04203DC10EE71
:10163000100AA84201DD042103E0E06802F064FB27
:101640000221606801F08BFE0A2002F076FDE3E7DC
:101650000000A4420000002070B52DED028B02F0C6
:1016600049FE01461BA002F02BF91EA002F028F94A
:10167000224DB2EE048A0A2495ED040A20EE080AEF
:10168000BDEEC00A10EE100A90FBF4F104FB11024B
:1016900010EE100A90FBF4F119A002F011F995ED8B
:1016A000050A20EE080ABDEEC00A10EE100A90FBF3
:1016B000F4F104FB110210EE100A90FBF4F117A0F4
:1016C00002F0FEF8BDEC028B1BA0BDE8704002F0FA
:1016D000F7B8000074696D657374616D703A202508
:1016E000640A00002F2A2A2A2A2A2A2A2A2A2A2A8F
:1016F0002A2A2A2A2A2A2A2A2F0A00000000002041
:101700002F2A2054454D50203D202532642E25643B
:1017100020432020202A2F0A000000002F2A2048E2
:10172000554D49203D202532642E25642025524800
:10173000202A2F0A000000002F2A2A2A2A2A2A2AD1
:101740002A2A2A2A2A2A2A2A2A2A2A2A2F0A0A005E
:1017500070B515460E46044600F002FC702000F0FD
:10176000C7FB00F055FC18B100F026FC012070BD4D
:10177000204600F0BDFB00F04BFC002406E0305D8D
:1017800000F0B6FB00F044FC641CE4B2AC42F6D3BB
:1017900000F012FC002070BD1CB50020019001F08B
:1017A00017FB03F057F803F05DF80D4C4FF0FF35D1
:1017B00001AE2946E06802F0C2FA0028F9D100968D
:1017C0002B4606220421606801F06AFD0028F0D152
:1017D00001F0D2FA03F04EF803F034F8E9E7000024
:1017E000000000200F4810B5C16C86B041F0020126
:1017F000C164C06C0C4C00F0020005900420009005
:101800000120019002200290039069462046FFF7D4
:1018100033F8002204212046FFF766F906B00020C5
:1018200010BD0000001002400004004810B51BA0CD
:1018300002F046F81C4C21781CA002F041F82078F8
:10184000C00702D01FA002F03BF82078800702D525
:101850001FA002F035F82078400702D51FA002F043
:101860002FF82078000702D520A002F029F8207870
:10187000C00602D520A002F023F82078000607D584
:1018800009480F300168BDE810401DA002F018B8EB
:10189000BDE810401EA002F013B80000627573206E
:1018A0006661756C743A0A0029ED00E05343425FAB
:1018B000434653525F424653523A307825303258AD
:1018C00020000000494255534552522000000000BC
:1018D000505245434953455252200000494D505201
:1018E000454349534552522000000000554E535481
:1018F0004B4552522000000053544B455252200099
:101900005343422D3E424641523A253038580A0050
:101910000A00000010B500F075FE002010BD10B5E3
:1019200000F034FF002010BD104810B5416991F857
:101930002110890703D40E490020087013E00169C3
:1019400021B180220A48FEF73FFD0CE001F00EFBBA
:1019500008B108A100E009A10548FEF748FD09A16A
:101960000348FEF725FD024810BD00002C000020B2
:10197000640100206D7368200000000066696E73CA
:10198000682000003E0000000349496911F8212F3A
:1019900060F341020A7070472C000020014AC2E93E
:1019A000000170472C0000207CB516491648FFF74F
:1019B000F5FF7821012001F02BFC144C6061D0B1BF
:1019C0000A210620CDE900014FF4007300221049DE
:1019D00010A002F0EAFA054600231A460FA160693A
:1019E00002F080F90120FFF7CFFF15B1284602F081
:1019F000EFFB00207CBD0BA001F062FF4FF0FF3039
:101A00007CBD0000F84C0008684C00082C00002049
:101A10003D1A0008747368656C6C00007368727816
:101A2000000000006E6F206D656D6F727920666F2B
:101A300072207368656C6C0A00000000984D68693C
:101A400010F8211F41F001010170FFF76DFF01F057
:101A500037FF002601F06CFD0400FBD41B2C07D0DF
:101A6000686990F82010012907D002290ED017E0EC
:101A70006969012081F82000ECE75B2C02D080F836
:101A800020600DE0022180F82010E3E780F820605C
:101A9000412CDFD0422CDDD0442C38D0432C43D015
:101AA000002CD7D0FF2CD5D0092C4ED07F2C75D050
:101AB000082C73D00D2C70D00A2CFCD0B0F872100A
:101AC000502901D3A0F87260B0F87430B0F87210E9
:101AD0008B427DD2CA1A00F12201233019441844E6
:101AE00001F0AEFF6869B0F8741022300C546869D8
:101AF00090F82110C90706D0B0F8741022300144C4
:101B000068A001F0DDFE6869B0F87440A5E0B0F8A7
:101B1000740000289ED064A001F0D2FE686930F8FD
:101B2000741F491E018095E7B0F87410B0F8722058
:101B300091428FD22230095C5CA001F0C1FE69693C
:101B400031F8740F401C088084E7002403E056A09D
:101B500001F0B6FE641C6869B0F87400A042F6DCBF
:101B60006C6953A0223401F0ABFE01F0FFF90128AB
:101B700002D1204601F03CF9FFF7D6FE014622468D
:101B80004CA001F09DFE68692230FEF729FC6969CE
:101B900021F8720F48805DE700E03DE0B0F8742066
:101BA000002AC0D0B0F87210521E491E89B293B2FA
:101BB000A0F87210A0F87430994224D9CA1A00F122
:101BC000230122301944184401F03AFF686900E00B
:101BD00049E0B0F8721022300E546869B0F8741001
:101BE0002230014435A001F06BFE6869B0F8744002
:101BF00003E02DA001F064FE641C6869B0F8720077
:101C0000A04290DBF5E72FA001F05AFE6869B0F81A
:101C1000721022300E541DE701F0A8F901280DD1F1
:101C2000686990F82100C00702D021A001F048FEA9
:101C30006869B0F87210223001F030F9FFF774FED5
:101C400001F03EFE686950212230FEF7A6FB68696C
:101C500022E015A001F034FE641C6869B0F872003F
:101C6000A042F6DC0AE022300C54686990F82100AA
:101C7000C00703D021460DA001F022FE6869B0F82C
:101C80007210491C89B2A0F87210B0F87420521C6E
:101C9000A0F874205029BED320F8726F4680D9E690
:101CA0002C000020257300000800000025630000C0
:101CB0000A0000002573257300000000082573202A
:101CC000200800000820080010B5124C206880078A
:101CD00002D511A001F0F4FD2068400011D50D4897
:101CE000C01E007808B1FFF7A1FD0A48001F007868
:101CF00008B100F0D5FF0748801E008808B102F047
:101D0000E9FD2068002804DABDE8104008A001F0D1
:101D1000D7BD10BD2CED00E06661696C656420766E
:101D20006563746F722066657463680A0000000062
:101D30006465627567206576656E740A0000000050
:101D400010B502A001F0BCFD002010BD48656C6C10
:101D50006F2052542D546872656164210A0000009E
:101D600010B5124C002240212046FEF7BDFE10485F
:101D7000016821F00C010160016841F0040101607B
:101D800000220221FEF7B0FE642001F039FD01229D
:101D900040212046FEF7A8FE642001F031FD2046D8
:101DA0000022BDE810404021FEF79EBE000C004816
:101DB0000008004870B51A4886B0C16C41F00401B3
:101DC000C164C16C01F004010591C16C41F00801CE
:101DD000C164C06C022500F0080001240590CDE923
:101DE0000054104E69463046CDE90245FEF744FDE9
:101DF0004020CDE90004CDE902450B4C6946204660
:101E0000FEF73AFD012202213046FEF76DFE012267
:101E100040212046FEF768FE06B0002070BD00009D
:101E20000010024000080048000C004810B5124C99
:101E3000002240212046FEF757FE1048016821F09D
:101E40000C010160016841F00401016001220221DE
:101E5000FEF74AFE642001F0D3FC01224021204617
:101E6000FEF742FE642001F0CBFC20460022BDE8D4
:101E700010404021FEF738BE000C00480008004822
:101E80002DE9F041064618480024016821F00C01B4
:101E9000016001680160154F2546804600224021FF
:101EA0003846FEF721FE642001F0AAFC0122402101
:101EB0003846FEF719FE6006040E02214046FEF782
:101EC0000EFE08B1641CE4B2642001F099FC6D1CA4
:101ED000EDB2082DE2D326B1FFF742FF2046BDE860
:101EE000F081FFF7A3FFF9E700080048000C004865
:101EF0002DE9F041184C0646206820F00C002060C7
:101F0000206840F004002060144F00224021384631
:101F1000FEF7EAFD0025300601D5012200E000228F
:101F200002212046FEF7E0FD7006060E0122402148
:101F30003846FEF7D9FD642001F062FC0022402102
:101F40003846FEF7D1FD642001F05AFC6D1CEDB25D
:101F5000082DE0D3BDE8F08100080048000C0048DF
:101F600070B5134C206820F00C002060206840F011
:101F700004002060012202212046FEF7B5FD0D4D30
:101F8000012240212846FEF7AFFD642001F038FC15
:101F9000002202212046FEF7A7FD642001F030FC5C
:101FA0002846BDE8704000224021FEF79DBD00009C
:101FB00000080048000C004870B5134C206820F061
:101FC0000C002060206840F0040020600022022104
:101FD0002046FEF789FD0D4D012240212846FEF7DF
:101FE00083FD642001F00CFC012202212046FEF753
:101FF0007BFD642001F004FC2846BDE8704000220F
:102000004021FEF771BD000000080048000C0048A8
:1020100070B5174D00242846296821F00C0129606D
:102020002968296001220221FEF75EFD642001F08B
:10203000E7FB104E012240213046FEF755FD64209B
:1020400001F0DEFB07E0641CE4B2FA2C03D9FFF7D1
:10205000B3FF012070BD02212846FEF740FD002895
:10206000F1D1002240213046FEF73EFD002070BD38
:1020700000080048000C004830B5164887B0C16C15
:1020800041F00401C164C16C01F004010591C16C0F
:1020900041F00801C164C06C002400F00800059004
:1020A0004FF4E060CDE9000402200325CDE90205EC
:1020B00069460948FEF7E0FB4FF40050CDE9000403
:1020C0000120CDE9020569460448FEF7D5FB07B0BB
:1020D000002030BD00100240000C004800080048FD
:1020E0002DE9F05F0126324DB702DFF8C8B0324C5F
:1020F0004FF400784FF480794FF4005A01281DD036
:102100002878A0B139462046FEF7E9FCC0B1414627
:102110002046FEF7E4FC98B149462046FEF7DFFC76
:1021200070B151465846FEF7DAFC012808D039460E
:102130002046FEF7D4FC012826D037E02E70E1E7D8
:102140000A2001F0FAFF0020287039462046FEF7E9
:10215000C6FC80B141462046FEF7C1FC70B149463D
:102160002046FEF7BCFC58B151465846FEF7B7FC76
:10217000012807D01AE0012000F020B80220FBE778
:102180000320F9E70420F7E741462046FEF7A7FCC5
:1021900001280BD149462046FEF7A1FC012805D1B4
:1021A00051465846FEF79BFC00B92E700020E3E72D
:1021B0001800002000080048000C004830BCBDE8B2
:1021C000C09F00000026144C01250020FFF788FF67
:1021D000012802D0022808D01AE0E06801F094FD3E
:1021E0000221606801F0BBF812E0207848B10128B4
:1021F0000ED1A06802F022F908A001F061FB267060
:1022000006E0A06802F060F90BA001F059FB257010
:102210000A2001F092FFD8E7000000207374617279
:1022200074207072696E74696E67206168743130F1
:1022300020646174612E0A0073746F70207072697B
:102240006E74696E672061687431302064617461F6
:102250002E0A0000144810B5C16C86B041F0100180
:10226000C164C06C114C00F0100005900122802167
:102270002046FEF739FC012211022046FEF734FC0D
:10228000012251022046FEF72FFC4FF460700090AF
:1022900001200021CDE90101039169462046FEF7A6
:1022A000EBFA06B0002010BD0010024000100048FC
:1022B00070B50BA001F004FB0E480F4D04680AE056
:1022C00002220EA12068FEF79BF818B10CA021682D
:1022D00001F0F6FA083428688442F1D3002070BD7A
:1022E0002D2D46756E6374696F6E204C6973743A58
:1022F0000A0000002C000020300000205F5F00007A
:1023000025730A002DE9F04194B000262BA4082380
:102310000BAA042105A800F08DF80820804601468C
:10232000224628A001F0CCFA404600F089FE2EA0FB
:1023300001F0C6FA05A9304600F08EF806460025E1
:1023400033E00BA850F825400C3CFDF739FF217A0B
:102350009DF81C2021F08001914202D0FDF734FF4E
:1023600022E0FDF731FF04F1140061690746814264
:1023700012D0384601F0D0FAE169CDE900102346C9
:102380000822414620A001F09BFA384602F012FADA
:1023900014A001F095FA07E0E069009023460822B6
:1023A00041461FA001F08CFA6D1C0998A842C8DCB8
:1023B000002EBFD114B00020BDE8F0816576656EB7
:1023C00074000000252D2A2E732020202020207349
:1023D00065742020202073757370656E64207468A6
:1023E000726561640A00000020202D2D2D2D2D2DF9
:1023F0002D2D2D2D202D2D2D2D2D2D2D2D2D2D2D1A
:102400002D2D2D0A00000000252D2A2E2A732020B4
:1024100030782530387820253033643A00000000C9
:10242000252D2A2E2A732020307825303878203028
:102430000A0000002DE9F04104461E4617460D46ED
:10244000084601F085FB001D2060257200206760B2
:10245000C4E90360BDE8F0812DE9F0410D4600219B
:102460002961E96891B1297A81B12E6888B1044661
:10247000FDF7A6FE0146A4F10C002A7A007A20F0AE
:102480008000904209D00846FDF79EFE0020BDE87E
:10249000F0813446FDF794FE014668680027246801
:1024A000B44201D1002404E010C0EA687F1CBA42A3
:1024B000F5D10846FDF788FE20462F61E7E70000CA
:1024C0002DE9F04196B000262FA408230CAA05217F
:1024D00006A8FFF7AFFF08208046014622462CA041
:1024E00001F0EEF9404600F0ABFD32A001F0E8F952
:1024F00006A93046FFF7B0FF064600253BE00CA8D2
:1025000050F825400C3CFDF75BFE0146207A9DF813
:10251000202020F080009042084602D0FDF754FEB3
:1025200028E0FDF751FE606904F11407B84238460F
:1025300013D001F0F1F9228C618C0091CDE90120DA
:1025400023460822414622A001F0BAF9384602F09B
:1025500031F925A001F0B4F90CE001F0DDF9218C8E
:10256000628CCDE9002102902346082241461FA03B
:1025700001F0A6F96D1C0A98A842C0DC002EB7D164
:1025800016B00020BDE8F0816D61696C626F780063
:10259000252D2A2E7320656E7472792073697A65F1
:1025A0002073757370656E64207468726561640A67
:1025B00000000000202D2D2D2D20202D2D2D2D2033
:1025C0002D2D2D2D2D2D2D2D2D2D2D2D2D2D0A008B
:1025D000252D2A2E2A7320253034642020253034DE
:1025E000642025643A0000000A000000252D2A2EF0
:1025F0002A7320253034642020253034642025645B
:102600000A00000010B5074C07A0E16801F058F976
:102610000AA0216901F054F96169BDE810400CA0DD
:1026200001F04EB95C000020746F74616C206D6520
:102630006D6F72793A2025640A0000007573656435
:10264000206D656D6F7279203A2025640A000000C4
:102650006D6178696D756D20616C6C6F6361746517
:1026600064206D656D6F72793A2025640A00000060
:102670002DE9F04194B000262CA408230BAA0221D6
:1026800005A8FFF7D7FE08208046014622462AA06B
:1026900001F016F9404600F0D3FC2EA001F010F92D
:1026A00005A93046FFF7D8FE0646002535E00BA801
:1026B00050F825400C3CFDF783FD217A9DF81C2045
:1026C00021F08001914202D0FDF77EFD24E0FDF76C
:1026D0007BFD606904F11407B842384611D001F05F
:1026E0001BF9A18BCDE900102346082241461FA00B
:1026F00001F0E6F8384602F05DF815A001F0E0F8C8
:102700000AE001F009F9A18BCDE900102346082267
:1027100041461AA001F0D4F86D1C0998A842C6DC05
:10272000002EBDD114B00020BDE8F08173656D614D
:1027300070686F7265000000252D2A2E73207620A8
:10274000202073757370656E6420746872656164AF
:102750000A000000202D2D2D202D2D2D2D2D2D2D6D
:102760002D2D2D2D2D2D2D0A00000000252D2A2E7A
:102770002A7320253033642025643A00252D2A2E23
:102780002A7320253033642025640A002DE9F041A6
:10279000B6B000263CA408232EAA012128A8FFF7E2
:1027A00049FE0820804601462246394801F088F853
:1027B000404600F045FC37A001F082F828A93046D9
:1027C000FFF74AFE0646002554E02EA850F82540A3
:1027D0000C3CFDF7F5FC0746207A9DF8A81020F088
:1027E0008000884203D03846FDF7EEFC41E08022AD
:1027F000214604A8FDF7B8FD3846FDF7E5FC94F83E
:102800003500009023460822414632A001F058F8D6
:1028100094F8340000F00F00012807D0022807D0F8
:1028200040B1042808D0032808D00AE02CA006E014
:102830002EA004E030A002E032A000E034A001F0BD
:102840003FF8A06A014600E0401C0278232AFBD032
:10285000E26A401A101A64235843B0FBF2F3276B64
:10286000A06CCDE90007E069081A81182BA001F0DF
:1028700027F86D1C2C98A842A7DC002E9ED136B0FC
:102880000020BDE8F081000074687265616400009A
:10289000F44B0008202D2D2D20202D2D2D2D2D2DFC
:1028A0002D202D2D2D2D2D2D2D2D2D2D202D2D2D72
:1028B0002D2D2D2D2D2D2D20202D2D2D2D2D2D206F
:1028C000202D2D2D2D2D2D2D2D2D2D202D2D2D0A75
:1028D00000000000252D2A2E2A73202533642000B5
:1028E00020726561647920200000000020737573F8
:1028F00070656E640000000020696E6974202020FD
:102900000000000020636C6F736520200000000051
:102910002072756E6E696E670000000020307825A9
:102920003038782030782530387820202020253025
:102930003264252520202030782530387820253035
:1029400033640A00F0B593B0002626A408230BAA2E
:102950000A2104A8FFF76EFD08272246394623A066
:1029600000F0AEFF384600F06BFB2AA000F0A8FF95
:1029700004A93046FFF770FD0646002524E00BA8A9
:1029800050F825400C3CFDF71BFC217A9DF81820DF
:1029900021F08001914202D0FDF716FC13E0FDF713
:1029A00013FCD4E90901CDE9000123460822394688
:1029B00021A000F085FF607AC00701D024A000E0CC
:1029C00026A000F07DFF6D1C0898A842D7DC002EE1
:1029D000CED101F08FFC014624A000F071FF13B0AE
:1029E0000020F0BD74696D6572000000252D2A2E4F
:1029F000732020706572696F646963202020746998
:102A00006D656F757420202020202020666C616722
:102A10000A000000202D2D2D2D2D2D2D2D2D2D20AA
:102A20002D2D2D2D2D2D2D2D2D2D202D2D2D2D2DE3
:102A30002D2D2D2D2D2D0A00252D2A2E2A732030E7
:102A4000782530387820307825303878200000001C
:102A50006163746976617465640A0000646561632A
:102A6000746976617465640A0000000063757272AF
:102A7000656E74207469636B3A3078253038780A53
:102A8000000000007CB5002133A000F0F9FB354CBC
:102A9000606010B934A000F013FF0022012139A0BA
:102AA00001F010F9E06010B939A000F009FF04202E
:102AB0001425CDE90005C601334600223B493CA060
:102AC00001F073FA10B101F083FB02E03BA000F0CB
:102AD000F7FE0220CDE90005334600223F4940A021
:102AE00001F063FA10B101F073FB02E03EA000F0C8
:102AF000E7FE0520CDE9000533460022424943A008
:102B000001F053FA10B101F063FB02E042A000F0C3
:102B1000D7FE0326CDE900654FF4807300224749B4
:102B200047A001F042FA10B101F052FB02E046A0CA
:102B300000F0C6FE4FF47A7300224A494AA000967C
:102B400001F040FCA06010B101F078FC02E049A067
:102B500000F0B6FE00207CBD616C61726D6576652B
:102B60006E74000000000020616C61726D5F65761C
:102B7000656E7420637265617465206661696C6559
:102B800064210A00616C61726D73656D0000000064
:102B9000616C61726D5F73656D20637265617465F0
:102BA000206661696C6564210A0000001116000846
:102BB000616874313064617461000000616874316F
:102BC000305F74687265616420637265617465204A
:102BD0006661696C6564210A0000000099170008AD
:102BE000616C61726D000000616C61726D5F746890
:102BF0007265616420637265617465206661696CE9
:102C00006564210A000000000D48000873746F70AD
:102C1000616C61726D00000073746F705F616C6154
:102C2000726D5F746872656164206372656174655A
:102C3000206661696C6564210A000000C5210008F6
:102C40006B65797363616E006B65795F746872653B
:102C5000616420637265617465206661696C656496
:102C6000210A000059160008616874313074696DDA
:102C70006572000061687431305F74696D6572203F
:102C8000637265617465206661696C6564210A0020
:102C900010B500F0D9FABDE81040FFF7F3BE000010
:102CA00010B518A000F00CFE1B4C21781BA000F002
:102CB00007FE2078C00702D01EA000F001FE207899
:102CC000800702D51EA000F0FBFD2078000702D58A
:102CD0001EA000F0F5FD2078C00602D51EA000F071
:102CE000EFFD2078000607D50B480C300168BDE8E1
:102CF00010401CA000F0E4BDBDE810401D4800F0ED
:102D0000DFBD00006D656D206D616E6167652066D9
:102D100061756C743A0A000028ED00E05343425F8D
:102D2000434653525F4D4653523A3078253032581D
:102D3000200000004941434356494F4C2000000009
:102D40004441434356494F4C200000004D554E53DB
:102D5000544B4552522000004D53544B4552522083
:102D6000000000005343422D3E4D4D41523A253064
:102D700038580A004449000810B54FF09044012229
:102D800002212046FDF7B0FE20460022BDE810409B
:102D90000121FDF7A9BE00000C4800B5C16C87B049
:102DA00041F00101C164C06C694600F0010005906A
:102DB00003200090012001900020029003904FF02A
:102DC0009040FDF759FD07B0002000BD0010024003
:102DD00010B54FF09044002202212046FDF784FEFA
:102DE00020460022BDE810400121FDF77DBE000015
:102DF0002DE9F0478046002500782C4618B122487E
:102E0000224F066831E0BDE8F0470021084600F097
:102E100077B806221EA13068FDF7F2FA20BB3068B1
:102E200000F106094046FDF7DBFA024649464046F6
:102E3000FDF7E6FAC0B925B94C464846FDF7D0FA89
:102E400005464946204601E0401C491C02781AB15B
:102E50000B780BB19A42F7D0001BA84200DA054666
:102E600049460DA000F02CFD083638688642D0D3C4
:102E7000002C06D02A4621464046BDE8F04700F027
:102E8000F5BFBDE8F08700002C00002030000020D6
:102E90005F5F636D645F000025730A0038B5044608
:102EA00001E0491E641C20782028FAD00928F8D0B7
:102EB00031B16A462046FEF747FA18B1204604E0D1
:102EC000002038BD009838BD401C0178202901D071
:102ED0000029F9D100210170214603A000F0F0FC87
:102EE0004FF0FF3038BD000025733A20636F6D6DE1
:102EF000616E64206E6F7420666F756E642E0A00BA
:102F000070B50DA000F0DCFC1248134D04680BE016
:102F1000062212A12068FDF773FA20B9216811A0DA
:102F2000891D00F0CDFC083428688442F0D30EA03F
:102F300000F0C6FC002070BD52542D5468726561CB
:102F400064207368656C6C20636F6D6D616E647373
:102F50003A0A00002C000020300000205F5F636D03
:102F6000645F0000257320000A0000000120704704
:102F700070B5002315461C461A464BE000F8012B9D
:102F80005B1C0678202E01D0092E01D18B42F5D38F
:102F9000082C11D321A000F093FC002606E000BF0E
:102FA00055F8261025A000F08BFC761CA642F7D31E
:102FB00021A000F085FC2FE08B422DD2F6B2222E0C
:102FC00003D045F82400641C1BE0401C45F8240095
:102FD0005B1C641C08E05C2E04D14678222E01D1D3
:102FE000401C5B1C401C5B1C0678222E01D08B42CF
:102FF000F1D38B4210D200F8012B5B1C0AE0401C7D
:103000005B1C0678202E03D0092E01D08B42F6D30C
:103010008B4201D28B42B4D3204670BD546F6F20D7
:103020006D616E7920617267732021205765206F72
:103030006E6C79205573653A0A00000025732000F4
:1030400010B5044602E003A000F03AFC641EFAD278
:1030500010BD00002D00000030B5134943680A6818
:10306000134402F1080498420DD05D885DB94D68A3
:10307000AB4208D08D689D4200D188605D68456094
:103080005B68851A1D518368134483420BD05D88A9
:10309000002D08D18D68854200D18B604168596050
:1030A0004068991A015130BD5C0000202DE9F04FB5
:1030B00085B09946DDE90EA5109CAB46630602D5A6
:1030C000DFF814C103E0DFF810C1ACF1110CE30626
:1030D00001D524F00104E30701D0302300E02023D0
:1030E00000260493A3070BD5002A02DA2D265242AC
:1030F00006E0630701D52B2602E0230700D5202632
:103100000023EE4622B930228DF8002001230CE086
:10311000B9F10A0F14D002F00F0812091CF8088048
:103120000EF803805B1C002AF2D1AB4200DD1D4685
:10313000AAEB050214F0110F4FF0200708D015E09C
:103140000A27B2FBF7F807FB1828B2FBF7F2E5E70E
:103150003EB1002A05DD521E03E0884200D207700E
:10316000401CB2F1000CA2F10102F6DC26B188424B
:1031700000D20670401C521EE40605D508E08842C5
:1031800001D2049C0470401C141EA2F10102F6DC62
:1031900030242E466D1E9E420ADD884200D2047005
:1031A000401CF6E7884201D2E55C0570401C00E057
:1031B00074461D1EA3F1010307DDBBF1000FF1D121
:1031C00003E0884200D20770401C131EA2F10102E6
:1031D000F7DC05B000F002B8D74B000830BCBDE802
:1031E000C08F00001CB502201421CDE90001C301ED
:1031F0000022044904A000F0D8FEBDE81C4000F005
:10320000E7BF0000912C00086D61696E00000000AE
:1032100070B54843044600F09BFB050003D02246EE
:10322000002100F027FC284670BD000070B5044C5A
:10323000044D02E020688047241DAC42FAD370BDE3
:103240003C4C00085C4C000870B5044C044D02E096
:1032500020688047241DAC42FAD370BD5C4C000846
:10326000644C000810B5FCF7ABFF044A5188491CB8
:103270005180BDE81040FCF7A7BF0000C40000204B
:1032800010B50C460146042000F017FC002806D0BB
:10329000447200F11401816141610021C16110BDDE
:1032A0002DE9FF470546DDF8308017460E004FF048
:1032B000FF304DD000F066FF044600202063FCF78D
:1032C0007FFF8146F80704D0E86936EA000005D0A0
:1032D00011E0B8070FD5E86930420CD0B8F1000F03
:1032E00003D0E8693040C8F8000078072CD5E869B9
:1032F000B043E86128E0039868B3E66384F840705F
:103300006A7A214605F1140000F0B0FA039800280B
:1033100009DD04F14C0003AA0021054601F03AF84A
:10332000284601F08BF84846FCF74EFF00F052FCAF
:10333000206B00280CD1FCF743FF8146B8F1000F49
:1033400002D0E16BC8F800104846FCF73DFF206B47
:1033500004B0BDE8F0876FF001002063F4E72DE9C9
:10336000F04105460C004FF0FF302BD00027FCF752
:1033700027FF8046E86905F114062043E8616C697F
:10338000B44216D12AE094F82C10A4F11400CA0714
:103390001AD0C16BEA6991431ED190F8401024689D
:1033A000490703D5E969C26B9143E96100F0CCFE9E
:1033B0000127B442E7D14046FCF706FF0FB100F009
:1033C00009FC0020BDE8F081890705D5C16BEA69D9
:1033D000114001D0C163E0E72468EAE74046FCF70A
:1033E000F3FEEEE710B5FCF7EBFE0B4C6188491ECF
:1033F00009B2618000290ADC00216180FCF7E4FE4B
:103400006068002807D0BDE8104000F0E3BBBDE8CD
:103410001040FCF7D9BE10BDC400002070B50028D4
:1034200033D01A4D296888422FD3696888422CD23C
:10343000A0F10C044FF0FF31154800F080FC6088CB
:103440004FF4F55610B12088B04208D011A000F01A
:1034500037FA23886288214615A000F031FA00204F
:1034600060802680A868844200D2AC6029686068C9
:10347000611A401A2969081A28612046FFF7ECFDF5
:10348000BDE87040024800F03FBC70BD5C00002009
:10349000E8030020746F2066726565206120626118
:1034A00064206461746120626C6F636B3A0A00008F
:1034B0006D656D3A203078253038782C207573652D
:1034C0006420666C61673A2025642C206D61676911
:1034D0006320636F64653A203078253034780A00C1
:1034E00010B5FDF751FC0E484FF47A710068B0FB3F
:1034F000F1F0401EB0F1807F09D24FF0E021094A7F
:103500004861FF2010700020886107200861FFF7E4
:103510008DFEBDE810400449044800F0BBBC00002B
:103520002800002023ED00E0008001204808002052
:103530000B4810B500684FF0FF34C169C9438906D4
:1035400002D4808CC4B208E0C169C943090701D420
:10355000082101620A2000F0F0FDE0B210BD000079
:10356000E4000020F8B506460D200F498DF8000054
:10357000002481F87040304600F070FC05460FE0F2
:10358000305D0A2805D101231A4669460648FDF731
:1035900093FB012331191A460348FDF78DFB641C88
:1035A000AC42EDD3F8BD0000E400002070B5314915
:1035B0000546283009682C1D11B18847002857D0CE
:1035C0002DA0216C00F07CF92FA0616A00F078F941
:1035D00031A0A16A00F074F933A0E16A00F070F93B
:1035E00035A0216B00F06CF937A0616800F068F934
:1035F00039A0A16800F064F93BA0E16800F060F92F
:103600003DA0216900F05CF93FA0616900F058F924
:1036100041A0A16900F054F943A0E16900F050F91C
:1036200045A0216A00F04CF947A0616B00F048F911
:1036300049A0A16B00F044F94BA0E16B00F040F908
:103640002878400708D500F09DFD01464AA000F00B
:1036500037F9FFF79BF802E04FA000F031F9287826
:10366000C00602D453A000F02BF9FEF72DFBFEE7B5
:1036700070BD0000440000207073723A203078253D
:103680003038780A000000007230303A2030782557
:103690003038780A000000007230313A2030782546
:1036A0003038780A000000007230323A2030782535
:1036B0003038780A000000007230333A2030782524
:1036C0003038780A000000007230343A2030782513
:1036D0003038780A000000007230353A2030782502
:1036E0003038780A000000007230363A20307825F1
:1036F0003038780A000000007230373A20307825E0
:103700003038780A000000007230383A20307825CE
:103710003038780A000000007230393A20307825BD
:103720003038780A000000007231303A20307825B5
:103730003038780A000000007231313A20307825A4
:103740003038780A000000007231323A2030782593
:103750003038780A00000000206C723A203078255A
:103760003038780A000000002070633A2030782555
:103770003038780A00000000686172642066617564
:103780006C74206F6E207468726561643A202573D2
:103790000D0A0D0A00000000686172642066617500
:1037A0006C74206F6E2068616E646C65720D0A0D1A
:1037B0000A00000046505520616374697665210D4A
:1037C0000A00000070B50446121D22F00700002216
:1037D0000A4D443840F82250521C112AFAD3416253
:1037E00000218162C16200F13402016382E81A00A3
:1037F0004FF080730364016070BD0000EFBEADDE6A
:1038000030B54FF0E0239A695C690849084D1444CB
:103810000968B1FBF5F141439869824201D9101A58
:1038200000E0201A8142F7D830BD000028000020B7
:1038300040420F0010B5FCF7C3FC044A1178491C44
:103840001170BDE81040FCF7BFBC0000580000201C
:1038500010B5FCF7B5FC044A1178491E1170BDE89B
:103860001040FCF7B1BC0000580000202DE9F041E9
:10387000064614460D46084600F0C0FC05F1140744
:10388000B4B1012C18D134680EE000BF95F83510A2
:1038900094F82120A4F11400914204D23946143046
:1038A00000F033F802E02468B442EFD1B44203D10F
:1038B0003946304600F029F80020BDE8F0810000CC
:1038C0000FB47F2110B503AB0448029A00F014FE38
:1038D0000248FFF747FE10BC5DF814FB68030020A8
:1038E0000268516002680A600160486070470268BF
:1038F000516002680A600160486070470268516068
:1039000002680A600160486070474268116042685E
:103910004A604160086070470246002100E0491C8F
:1039200000689042FBD108467047D0E900124A6017
:10393000D0E900121160406000607047D0E90012C9
:103940004A60D0E9001211604060006070470000DA
:103950002DE9F047002807D0374CC01C20F00306A3
:10396000E068864202D90020BDE8F0870C2E00D224
:103970000C264FF0FF31314800F0E1F9D4F808C0CF
:103980002168E768ACEB0100BA1B4FE00D186B88AB
:10399000E3BB6B681B1A0C3BB34246D36A6806F163
:1039A0001803121A0C3A4FF001094FF4F55A9A42D3
:1039B0002DD383190C33CA184FF00008A2F800A0C9
:1039C000A2F80280D5F80480C2E901806B60A5F8F6
:1039D000029050680C37B84202D001F108028350BF
:1039E000206930440C3020616269824200D26061FB
:1039F000A5F800A0654512D1A06842887AB1626836
:103A000090420CD040680844A060F6E70DE0A5F8AD
:103A1000029068686A1A801A22691044E3E707482E
:103A200000F072F905F10C009EE768688242ADD89B
:103A3000024800F069F996E75C000020E8030020E6
:103A400010B50346994211D28C189C420ED98118A8
:103A500004E000BF14F8013D01F8013D521EF9D207
:103A600010BD00BF11F8014B03F8014B521EF9D2F3
:103A700010BD000010B50346CCB2042A1AD381074A
:103A800018D1194644EA042343EA034306E008C177
:103A9000103A08C141F8083B41F8043C102AF6D21C
:103AA00001E008C1121F042AFBD20B4602E000BF4E
:103AB00003F8014B521EFBD210BD2DE9F0410F4619
:103AC000064600F045F80546C068FFF741FF0400D0
:103AD00019D00021EA68FFF7CDFF2672002060723E
:103AE00008223946204600F0C1F9FCF769FB06467A
:103AF00004F10C01281DFFF7F3FE3046FCF764FBD0
:103B00002046BDE8F0810020FBE770B504460020A8
:103B10002072FCF755FB054604F10C00FFF705FF8A
:103B20002846FCF751FB2046BDE87040FFF776BC05
:103B300070B5044600202072FCF742FB054604F1F4
:103B40000C00FFF7F2FE2846BDE87040FCF73CBBD6
:103B5000074A002102EB01131B78834202D102EBDA
:103B600001107047491C0529F4DB00207047000054
:103B7000740000202DE9F041044616460D46084623
:103B8000FFF7E6FF0746FFF76DFB381D796800E099
:103B900009688142FCD1FFF725FC45F080002072C6
:103BA00008223146204600F061F9FCF709FB054682
:103BB00004F10C01381DFFF793FE2846BDE8F041E3
:103BC000FCF702BB007A000601D5012070470020F7
:103BD0007047000070B5FCF7F3FA114C0546608899
:103BE000B0B9A068FDF774FB0E49401E626851F839
:103BF0003010143991420BD020700B48616000786E
:103C000001F11C01002802F11C0006D0FCF7DFFACC
:103C10002846BDE87040FCF7D7BAFCF7D8FAF7E7BA
:103C2000C4000020080400205800002010B50446FD
:103C3000FCF7C6FA024694F834000E4920F00F0053
:103C4000401C84F8340094F8350001EBC00104F105
:103C500014004B6818604B68A361486006486161B6
:103C6000A16B836819438160BDE810401046FCF7E2
:103C7000ABBA000008040020C400002010B50446C0
:103C8000FCF79EFA04F11401D1E900235360D1E955
:103C900000231A60A161616194F83520074951F849
:103CA000323001EBC2018B4204D10549A36B8A6813
:103CB0009A438A60BDE81040FCF786BA08040020E9
:103CC000C400002070B50C46014615460220FFF7DF
:103CD000F4FE002805D000F1140181614161848364
:103CE000457270BD2DE9F04116460A461F4605464D
:103CF0000221FFF73FFF05F11404AC616C61AE8354
:103D00006F720020BDE8F08170B50446FCF758FAE8
:103D10000546606904F11401884208D0143800F0A7
:103D200013FA2846FCF750FAFFF754FF05E0A08B82
:103D3000401CA0832846FCF747FA002070BD73B5ED
:103D40000546FCF73DFA0646A88B28B1401EA8831D
:103D50003046FCF739FA21E0019808B300F012FA76
:103D60000446002020636A7A214605F11400FFF71B
:103D70007DFD0198002809DD04F14C0001AA002115
:103D8000054600F007FB284600F058FB3046FCF7DC
:103D90001BFAFFF71FFF206B002800D100207CBD1D
:103DA0003046FCF711FA6FF001007CBD08B509A0A0
:103DB000FFF786FD0AA0FFF783FD12A00323009002
:103DC0000122194612A0FFF77BFDBDE8084018A0AC
:103DD000FFF776BD0A205C207C202F0A000000003F
:103DE0002D205254202D20202020205468726561FF
:103DF00064204F7065726174696E672053797374C3
:103E0000656D0A004A756C20203720323032300050
:103E1000202F207C205C202020202025642E25645B
:103E20002E2564206275696C642025730A000000E9
:103E30002032303036202D203230313920436F701F
:103E40007972696768742062792072742D7468725F
:103E5000656164207465616D0A000000014600E040
:103E6000491C0A78002AFBD1081A704710B5002AAD
:103E700007D0034611F8014B03F8014B2CB1521E39
:103E8000F8D110BD03F8011B00E00021521EF9D14A
:103E900010BD00000A46C11C10B522F0030321F03A
:103EA0000301182B20D9A3F118048C421CD3114C08
:103EB000581A18382160E0604FF4F5520A80002348
:103EC0000C30C1E901034B804B68194461600A80E2
:103ED00001224A8048608860002307A10848FFF754
:103EE00001FF2068A06010BD0146BDE8104005A09C
:103EF000FFF7E6BC5C000020686561700000000010
:103F0000E80300206D656D20696E69742C20657270
:103F1000726F7220626567696E2061646472657396
:103F20007320307825782C20616E6420656E6420C3
:103F30006164647265737320307825780A0000002C
:103F400010B50A4900230A4C4B80184604EBC00206
:103F5000401C526012600828F8DB072008700348F4
:103F60004B600C308B604060006010BDC4000020CE
:103F70000804002010B5074CA068FDF7A9F9064910
:103F8000401E51F8300014386060BDE810401C300D
:103F9000FCF763B9C4000020080400200148406019
:103FA00000607047DC00002070472DE9FF4789461C
:103FB000DDE90C76824601461D4690460120FFF75A
:103FC0007CFD041E0DD02846FFF7C2FC60B10396AD
:103FD0008DE8A10043464A4651462046FDF706FAC1
:103FE000204604B0BDE8F0872046FFF78EFD002094
:103FF000F7E7000070B513480468FCF7E1F80546E0
:104000002046FFF73BFE042084F8340004F14C0006
:1040100000F0EFF92046FFF7D5FD012801D1A06F90
:1040200058B104F114010848FFF761FC2846FCF779
:10403000CBF8BDE87040FFF7CDBD2046FFF778FD17
:10404000F4E70000C8000020D000002000F002F8D3
:10405000FCE7000070B527E0FCF7B2F80546FDF775
:1040600069F958B318480168A1F11404D1E90002B4
:104070004260D1E90002106049600960FFF7F2F880
:10408000A16F09B1204688472046FFF79BFD012814
:104090000FD0FFF7A7F92846FCF796F8A06AFFF7BC
:1040A000BDF92046FFF731FDFDF744F90028D3D1D3
:1040B00070BD2046FFF73CFDFFF794F92846BDE8A8
:1040C0007040FCF781B80000D00000201FB520230D
:1040D00008480722D9008DE80F000023064A07A1EF
:1040E000803800F00FF804B00248BDE81040803876
:1040F00000F06EB8680200204D4000087469646CDE
:10410000650000002DE9FF5F92460EAA0C4692E87A
:10411000E0010A46994683460121FFF72BFD8DE811
:10412000E0014B46524621465846FDF75FF904B080
:1041300000F000B830BCBDE8C09F10B500F0C0F87A
:10414000BDE8104000F024B870B5044690F8340083
:1041500000F00F00022802D04FF0FF3070BDFCF7D6
:104160002FF8054604F11400FFF7E8FB04F14C00BA
:1041700000F0AAF92846FCF727F82046FFF756FD7D
:10418000002070BD0148006870470000C800002092
:10419000F1B5FCF715F805460C480468204600F018
:1041A0002DF804F14C006A460021064600F0F2F8B2
:1041B000304600F043F92846FCF706F8FFF70AFD01
:1041C000206B801C00D120630020F8BDC8000020B7
:1041D00010B590F83610012280F835108A4002217F
:1041E000826380F83410FFF7AFFF0348006808B11E
:1041F000FFF7F0FC002010BDC800002070B5044699
:1042000090F8340000F00F00012802D04FF0FF308A
:1042100070BDFBF7D5FF054694F8340020F00F0081
:10422000801C84F834002046FFF728FD04F14C0080
:1042300000F04AF92846FBF7C7FF002070BD10B513
:1042400004466FF00100206304F11400FFF776FBD1
:104250002046FFF7EBFCBDE81040FFF7BBBC0000B9
:1042600070B5FBF7ADFF06461348046894F83400B8
:1042700000F00F00012819D1D4E90501884215D0BA
:1042800004F114000546FFF759FB94F835000B497B
:1042900001EBC00041680D604168696045602860BD
:1042A0003046FBF791FFFFF795FC02E03046FBF745
:1042B0008BFF002070BD0000C80000200804002013
:1042C000002802DA4FF0FF3070474FF47A7190FB0C
:1042D000F1F290FBF1F301FB130000EB40034A43C2
:1042E000C3EBC0104B1E03EBC00090FBF1F0104479
:1042F000704700000148006870470000540000202B
:10430000094810B50168491C0160FFF73BFF816C4B
:10431000491E816403D1416C8164FFF7A1FFBDE8B0
:10432000104000F003B80000540000202DE9F041D7
:10433000FFF7E0FF0646FBF743FF0746144D1EE07C
:1043400060696FF00041301A143C88421AD220464E
:10435000FDF794F8D4E907108847FFF7CBFF06462E
:10436000607A810708D5C10706D020F0010060728D
:10437000204600F063F802E020F0010060722C6833
:10438000AC42DDD13846BDE8F041FBF71DBF00006F
:10439000DC00002049B1012904D0022908D00329FA
:1043A0000ED109E0406A10600AE01168416207E03E
:1043B000417A21F0020102E0417A41F002014172AA
:1043C000002070472DE9F843884601461E461746EF
:1043D0000A20089DFFF771FB040008D033463A46D7
:1043E00041460095FDF73CF82046BDE8F8830020E3
:1043F000FBE770B50546FBF7E3FE04462846FDF7EC
:104400003DF82046FBF7E0FE2846FFF791FB002031
:1044100070BD2DE9F8439046DDE908450A461F4680
:1044200006460A21FFF7A6FB23463A464146304698
:104430000095FDF715F8BDE8F8830000F8B50446CF
:10444000FBF7BEFE05462046FDF718F8607A20F01F
:10445000010060722846FBF7B7FEFFF74BFF616A69
:104460000844A062FBF7ACFE0546164A0020009205
:1044700002EBC002694653686FF0004C5DF82020E3
:104480000BE01268A2EBC0067769A66AB74202D0B9
:10449000BE1B664503D341F820209A42F1D109485A
:1044A000001F0168491C016004F114010098FFF726
:1044B00025FA607A40F0010060722846FBF784FE1E
:1044C0000020F8BDDC00002070B50446407AC0072B
:1044D0000ED0FBF775FE05462046FCF7CFFF2846B9
:1044E000FBF772FE607A20F001006072002070BD60
:1044F0004FF0FF3070BD00002DE9FF4F89460446A4
:1045000000EB090783B080464FF0FF3A4FF0200BD5
:10451000A74202D25746C8F1FF3907E1252803D048
:10452000BC4200D2207081E000260599491C05910B
:1045300008782D2811D02B2812D0202813D023281A
:1045400014D0302815D00A785546303A0A2A13D2AA
:1045500005A800F047F905461AE046F01006E4E722
:1045600046F00406E1E746F00806DEE746F02006DE
:10457000DBE746F00106D8E72A2809D10698491C4E
:10458000059120C80690002D02DA6D4246F0100613
:10459000CDF800A0059801782E2918D1401C05906F
:1045A0000178A1F130020A2A04D205A800F01AF914
:1045B000009008E02A2908D1401C0590069802C8FE
:1045C000069000910846002801DA00200090059826
:1045D00000210278682A01D06C2A02D1401C1146C1
:1045E000059000780A236F287DD00CDC63281FD04B
:1045F00004DC25287BD058280DD17EE0642801D02A
:10460000692808D17DE070285ED073282CD07528E9
:1046100079D0782873D0BC4201D22520207005982B
:10462000641C0178D1B3BC4200D22170641C7AE0D2
:10463000F00608D458466D1E002D04DDBC4200D2A1
:104640002070641CF7E70699BC4211F8040B069130
:1046500000D22070584602E0BC4200D22070641C98
:104660006D1E002DF8DC5EE0069808C8069003B9C0
:104670003EA31846FFF7F2FB0099002902DD8842AD
:1046800000DD0846F1060AD459462A466D1E8242CC
:1046900005DDBC4200D22170641CF6E752E0002127
:1046A00006E0BC4201D21A782270491C5B1C641CD3
:1046B0008142F6DB5A4629466D1E814233DDBC42FB
:1046C00000D22270641CF6E7681C02D1082546F06F
:1046D000010600980296CDE900500698102339464D
:1046E00004C806901BE006E001E00CE007E0BC42D5
:1046F0009CD2252016E7082305E046F0400610234B
:1047000001E046F002066C2901D068291DD0069808
:1047100004C8069000983946CDE90050029620461C
:10472000FEF7C4FC04460598401C059005980078E7
:1047300000287FF4F3AEB9F1000F11D0BC420DD2C6
:1047400020700DE0401E0590EDE7069830F8041B40
:1047500006908AB2B007DDD512B2DBE707F8010C8C
:1047600007B0A4EB080000F005B80000284E554C37
:104770004C29000030BCBDE8C08F002070470020ED
:104780007047002070470020704710B5FBF718FDF8
:10479000FEF7A6FEFFF70AFBFFF700FCFFF7D0FBD2
:1047A000FEF720FDFFF700FCFFF790FCFFF7E2FBB0
:1047B000002010BD70B5054604680BE0A4F114019B
:1047C00006A0FFF77DF82068A84202D004A0FFF7FA
:1047D00077F82468AC42F1D170BD00002573000069
:1047E0002F00000010B5014600206FF02F0307E0F6
:1047F000541C0C60127800EB800003EB4000104466
:104800000A681478303C0A2CF2D310BD1CB5002085
:104810000B4C01AE451E019000962B46062202214C
:104820006068FEF73DFD0028F6D12946E068FFF7F5
:1048300086FAFEF7CDFA00F00DF800F013F8EBE77A
:1048400000000020012211020148FCF74DB90000D0
:1048500000100048012280210148FCF745B9000002
:104860000010004800224FF480710148FCF73CB969
:1048700000100048002280210148FCF735B90000F3
:10488000001000480D4810B50B4901604FF4E131AC
:104890004160002181600C22C160C0E90412816185
:1048A000C16101624162FCF7A1F9002803D004A0B4
:1048B000FFF706F8012010BD00380140E400002099
:1048C000756172743120696E6974206661696C6506
:1048D00064210A0010B518A0FEF7F2FF1A4C2188D7
:1048E0001AA0FEF7EDFF2088C00702D01DA0FEF73A
:1048F000E7FF2088800702D51DA0FEF7E1FF208892
:10490000400702D51DA0FEF7DBFF2088000702D577
:104910001CA0FEF7D5FF2088C00502D51BA0FEF71E
:10492000CFFF2088800502D51BA0FEF7C9FFBDE898
:10493000104004A0FEF7C4BF75736167652066610F
:10494000756C743A0A0000002AED00E05343425FA0
:10495000434653525F554653523A307825303258C9
:1049600020000000554E444546494E535452200005
:10497000494E56535441544520000000494E56506C
:10498000432000004E4F435020000000554E414C44
:1049900049474E454420000044495642595A455221
:1049A0004F20000010B5FFF701FA002010BD0000F5
:1049B00000000000000000000102030406070809CF
:1049C000A0860100400D0300801A060000350C008F
:1049D00040420F0080841E0000093D0000127A0052
:1049E0000024F40000366E010048E801006CDC028F
:1049F000000000000102030468656C6C6F007665BE
:104A00007273696F6E005F5F636D645F766572736A
:104A1000696F6E006C6973745F74687265616400BD
:104A20005F5F636D645F6C6973745F746872656106
:104A300064006C6973745F73656D005F5F636D64C0
:104A40005F6C6973745F73656D006C6973745F6527
:104A500076656E74005F5F636D645F6C6973745F2D
:104A60006576656E74006C6973745F6D61696C6204
:104A70006F78005F5F636D645F6C6973745F6D6115
:104A8000696C626F78006C6973745F74696D6572CC
:104A9000005F5F636D645F6C6973745F74696D65FB
:104AA00072006C697374005F5F636D645F68656C4E
:104AB00070005F5F636D645F7073005F5F636D6460
:104AC0005F667265650000000100020001000300DE
:104AD00001000200010004000100020001000300C7
:104AE00001000200010005000100020001000300B6
:104AF00001000200010004000100020001000300A7
:104B00000100020001000600010002000100030094
:104B10000100020001000400010002000100030086
:104B20000100020001000500010002000100030075
:104B30000100020001000400010002000100030066
:104B40000100020001000700010002000100030053
:104B50000100020001000400010002000100030046
:104B60000100020001000500010002000100030035
:104B70000100020001000400010002000100030026
:104B80000100020001000600010002000100030014
:104B90000100020001000400010002000100030006
:104BA00001000200010005000100020001000300F5
:104BB00001000200010004000100020001000300E6
:104BC00001000200010030313233343536373839D4
:104BD00061626364656600303132333435363738AC
:104BE00039414243444546006C6973745F6D656D9D
:104BF00000000000252D2A2E73207072692020737A
:104C00007461747573202020202020737020202070
:104C10002020737461636B2073697A65206D6178FD
:104C20002075736564206C656674207469636B20FD
:104C3000206572726F720A00874700087F4700087C
:104C40008F140008E5170008B51D0008792000083A
:104C500055220008992D0008854800087B47000868
:104C6000A919000883470008F8490008411D0008F9
:104C7000FE490008A5490008064A0008A5490008A1
:104C8000144A00088D270008204A00088D270008D4
:104C9000324A0008712600083B4A000871260008C5
:104CA0004A4A000805230008554A00080523000861
:104CB000664A0008C1240008734A0008C12400089D
:104CC000864A000845290008914A0008452900083D
:104CD000A24A0008B1220008A74A0008012F0008D4
:104CE000B24A00081F190008BB4A0008151900083D
:104CF000E84B000805260008184D000800000020B9
:104D0000E400000014130008FC4D0008E40000203B
:104D100064070000241300080000000000000000E9
:104D20000000000000000000000000000000000083
:104D30000100000010000000010000000000000061
:104D400000093D000000000000000000000000001D
:104D50000000000000000000000000000000000053
:104D60000000000000000000000000000000000043
:104D70000000000000000000000000000000000033
:104D80000000000000000000000000000100000022
:104D90007800002078000020800000000200000061
:104DA000880000208800002020000000040000008F
:104DB000980000209800002020000000050000005E
:104DC000A8000020A8000020300000000A00000019
:104DD000B8000020B80000202C00000000000000F7
:104DE00000000000000000000000000000000000C3
:0C4DF000000000000000000000000000B7
:040000050800018965
:00000001FF
